:0300000002004CAF
:200008000000E2FBEAF2802C0000E0FBEAF08024E6B50202EBF62200E2B50202EBF22200DE
:20002800E0B50202EBF02230F6E0A88220F5D3EAC6F582228B822230F6E6A88220F5D980EE
:01004800CFE8
:0300A5000200490D
:030049000200A80A
:2000A800758F011201EB1214470200B4C01EE581F51E2406F581E51E2405F876007D007E86
:2000C80000ED2413FBEE3400FCA81E08A60308A604A81E088682088683E0FAA3E04A7003B1
:2000E800020188C005C0068B828C83A3A3E0FAA3E0FFE51E2403F874042BF6E43C08F6E566
:200108001E2403F88682088683E0FDA3E0FEC3ED9AEE64808FF063F08095F0D006D0054045
:200128005F74062BFAE43CFF8A828F83E06051C005C006E51E2403F88682088683E4F0A3AE
:20014800F074072BF582E43CF583E0FAA3E0FFA81E088682088683E0FDA3E0FEC007C006C4
:20016800C005C0021201718009C002C0078D828E8322D002D005D006D007D006D005801E7B
:2001880074042BFBE43CFC8B828C83E0FAA3E0FF0ABA00010F8B828C83EAF0EFA3F074095C
:2001A8002DFDE43EFEE51E2405F8E51E2405F9E604F7E51E2405F8B60A0050030200C97C45
:2001C800647D007E007F001CBCFF091DBDFF051EBEFF011FEC4D4E4F70ED0200BE851E8169
:2001E800D01E227F007D007E00ED2413F582EE3400F583E4F0A3F074092DFDE43EFE0FBF3C
:200208000A0040E57E7E7F02900001EEF0EFA3F07E707F03900003EEF0EFA3F07E207F04B5
:20022800900005EEF0EFA3F07E1D7F04900007EEF0EFA3F07E1A7F04900009EEF0EFA3F098
:200248007E237F0490000BEEF0EFA3F07EE27F0490000DEEF0EFA3F07E127F0590000FEEF6
:20026800F0EFA3F07E167F05900011EEF0EFA3F012250D022CC9C01E85811EC082C0830524
:200288008105817C007D007A007B007F007E00EF2413F582EE3400F583E51E2403F8E0F635
:2002A800A3E008F6E51E2403F8E60846601AE51E2403F8A91E0986F0E7B5F00A0886F00960
:2002C800E7B5F002800280669002BDECF0EDA3F0900009123982AE82AF83EE2413FEEF3467
:2002E80000FF8E828F83A81E08E6F008E6A3F08E828F83A3A3E51E24FCF8E6F008E6A3F0D6
:200308008E828F83A3A3A3A3E4F0A3F074062EF582E43FF5837401F074072EF582E43FF569
:2003280083E51E24FAF8E6F008E6A3F0803474092FFFE43EFE0ABA00010B8A048B05C3EAA8
:20034800940AEB6480948050030202971203598011900011E0C0E0A3E0C0E0903AD575F0DF
:200368008022851E81D01E22C01EE581F51E2404F581AE82AF837C007D007A007B00A81E94
:2003880008E4F608F6A81E08E62413F58208E63400F583E51E2403F8E0F6A3E008F6E51EFD
:2003A8002403F8E608466012E51E2403F8E6B5060708E6B50702800280309002BDECF0EDB0
:2003C800A3F0900009123982AF82AE83EF2413FFEE3400FE74062FFFE43EFEE51E24FCF892
:2003E80086058F828E83EDF08022A81E08740926F6E40836F60ABA00010B8A048B05C3EAAF
:20040800940AEB64809480500302038D851E81D01E22022634022B70022982C01E85811E92
:20042800C082C083C0F00581A81E0886820886830886F0E4123967A3123967FCFBC0048B63
:20044800F005F07A80E4FC3392D28008A2D2EC13FCEA13FAD5F0F5EAF4FA740F4AF590E587
:200468001E2404F876007F00D004C004E590F4FA8FF005F07401800225E0D5F0FB5AD004E8
:20048800603A8C027F00EA2AFAEF33FFEA2AFAEF33FFE51E2404F886057E00ED2AFAEE3FE5
:2004A800FF0ABA00010FA81E0886820886830886F0EA123967A3EF12396780180FE51E244E
:2004C80004F8A607BF040040A10B8B04BB04005003020445851E81D01E22AD82AE83AFF09D
:2004E80075B0FCACB053043C8D828E838FF0EC123967F4FC8D828E838FF01239675304BF50
:200508008D828E838FF0EC0239678582A022C01EE581F51E2422F581AD82AE83AFF0E51EC8
:200528002402FCFB7A008D828E838FF0A81E08123AB5F6A81E08E6600FEA2BF8A91E09E7D1
:20054800F60DBD00080E8005EA2CF876200ABA200040D37F007E408C828F838EF012263456
:0805680080FE851E81D01E22D9
:0C3AD5004F75744F6654696D6572730084
:20057000900092742DF0900093742FF0900094747CF0900095745CF090009603F0900097D9
:20059000F0900098E4F0FFEF246DF582E43400F583742EF00FBF200040ED90008DE4F01229
:2005B00005B48011900009E0C0E0A3E0C0E090006D75F00022900099E4F0A3F090006DE4B0
:2005D000F0900099E0FEA3E0FFEE2492F582EF3400F583E0900096F0BE030CBF00099000C1
:2005F00099E4F0A3F0800B90009974012EF0E43FA3F090028974E1F0743AA3F07480A3F0C6
:2006100090006D75F000122E919002897496F07400A3F0E4A3F090006DF5F0122E919002BF
:200630008974F0F0743AA3F07480A3F090006D75F000122E9112064A801190000DE0C0E0C2
:20065000A3E0C0E090009075F00022900090E0FF530710E4BF00010490009BF0900090E094
:20067000FF530720E4BF00010490009CF0900090E0FF530704E4BF00010490009DF01206F3
:2006900093801190000BE0C0E0A3E0C0E090008E75F0002290008EE0FEA3E0FFBE0105BF42
:2006B00000028010BE0205BF00028010BE031BBF0018801090009B7401F0800E90009C7481
:2006D00001F0800690009D7401F090009BE0601990028974F2F0743AA3F07480A3F09000B4
:2006F0006D75F000122E91801790028974F0F0743AA3F07480A3F090006D75F000122E9146
:2007100090009CE0601990028974F2F0743AA3F07480A3F090006D75F000122E91801790B1
:20073000028974F0F0743AA3F07480A3F090006D75F000122E9190009DE0601990028974BA
:20075000F2F0743AA3F07480A3F090006D75F000122E91801790028974F0F0743AA3F074F1
:2007700080A3F090006D75F000122E9190009BE0701090009CE0700A90009DE07004C200CF
:200790008002D20090009EA200E433F090009BE0701090009CE0700A90009DE07004C200CA
:2007B0008002D20090009FA200E433F090009BE09000A0F090009CE09000A1F090009DE098
:2007D0009000A2F090008EE0FEA3E0FFBE0505BF00028020BE0605BF00028020BE0905BF8B
:2007F00000028020BE0A05BF00028020BE0B2BBF0028802090009E7401F0801E90009F74CA
:2008100001F080169000A07401F0800E9000A17401F080069000A27401F090028974F0F0FC
:20083000743AA3F07480A3F090006D75F000122E9190009EE0601990028974F4F0743AA362
:20085000F07480A3F090006D75F000122E91801790028974F7F0743AA3F07480A3F0900079
:200870006D75F000122E9190009FE0601990028974F4F0743AA3F07480A3F090006D75F0A0
:2008900000122E91801790028974F7F0743AA3F07480A3F090006D75F000122E9190028954
:2008B00074F0F0743AA3F07480A3F090006D75F000122E919000A0E0601990028974F2F0DF
:2008D000743AA3F07480A3F090006D75F000122E91801790028974F0F0743AA3F07480A32F
:2008F000F090006D75F000122E919000A1E0601990028974F2F0743AA3F07480A3F0900072
:200910006D75F000122E91801790028974F0F0743AA3F07480A3F090006D75F000122E9123
:200930009000A2E0601990028974F2F0743AA3F07480A3F090006D75F000122E9180179089
:20095000028974F0F0743AA3F07480A3F090006D75F000122E9112096B8011900009E0C05D
:20097000E0A3E0C0E090006D75F00022900091E4F09000A0E060069000917401F09000A1BE
:20099000E06008900091E043E002F09000A2E06008900091E043E004F090009FE060089050
:2009B0000091E043E010F090009EE06008900091E043E020F0900091E0FF1209CF800D90E2
:2009D000000FE0C0E0A3E0C0E08F82227C407D0D7E037F001CBCFF091DBDFF051EBEFF0142
:0A09F0001FEC4D4E4F70ED0205CCD8
:193AE1005A313233204220502041313233200020002A002A20002020001F
:2009FA0090016BE4F0A3F0020A0490016BE0FEA3E0FF9002BDEEF0EFA3F0900005123982FD
:200A1A00AE82AF83EE24A3FEEF3400FF8E828F83A3A3A3A3E4F090016BE0FEA3E0FF900215
:200A3A00BDEEF0EFA3F0900005123982AE82AF83EE24A3F582EF3400F583E4F0A3F0A3F0FA
:200A5A0090016BE0FEA3E0FF9002BDEEF0EFA3F0900005123982AE82AF83EE24A3FEEF34D7
:200A7A0000FF8E828F83A3A3A3E4F022AFF0AE83E582900177F0EEA3F0EFA3F090016BE04E
:200A9A00FEA3E0FF9002BDEEF0EFA3F0900005123982AE82AF83EE24A3FEEF3400FF7404FC
:200ABA002EFEE43FFF900175E08E828F83F090016BE0FEA3E0FF9002BDEEF0EFA3F090003B
:200ADA0005123982AE82AF83EE24A3FEEF3400FF900177E0FBA3E0FCA3E0FD8E828F83EB04
:200AFA00F0ECA3F0EDA3F090016BE0FEA3E0FF9002BDEEF0EFA3F0900005123982AE82AFA1
:200B1A0083EE24A3FEEF3400FF74032EFEE43FFF900173E08E828F83F090016BE02401F0B7
:200B3A00A3E03400F090016BE0FEA3E0FF0EBE00010FC374289E74808FF063F08095F050A4
:200B5A0016120B608011900011E0C0E0A3E0C0E0903AFA75F08022020A0490016DE4F090D6
:200B7A00016EF0900171F0900172F090016DE075F005A424A3FE740035F0FF8E828F83A309
:200B9A00A3A3A3E0FF7E009001EA7401F0E4A3F08F828E8302175CE58290017AF0E0FFBF07
:200BBA000102800DBF02028005BF035280060212A8021341121143E5828583F045F060033A
:200BDA000211DE1211B5E5828583F045F060030213CF90016DE075F005A424A3FE740035FD
:200BFA00F0FF8E828F83A3A3A3A3E0FF7E009001EA7402F0E4A3F08F828E8302175C22AF21
:200C1A00F0AE83E58290017FF0EEA3F0EFA3F090016DE075F005A424A3FE740035F0FF8E58
:200C3A00828F83A3A3A3E0FF900183E4F0A3F090017DE0FDA3E0FE90017BE0FBA3E0FC8D64
:200C5A00278E288D218E22E4F523F524C0079002BDE523F0E524A3F0900005C006C005C0A0
:200C7A0004C003123982A882AF83D003D004D005D006E824A3F525EF3400F5268525828560
:200C9A002683E0F8A3E0FAA3E0E84AD007700122852582852683A3A3A3E0B50702800302B7
:200CBA000EAD90016DE07A00B5230CEAB52408900182745BF080069001827420F090018355
:200CDA00E0F9A3E0FAC3E99BEA64808CF063F08095F0404DE99DEA64808EF063F08095F004
:200CFA00503FC00790017FE0F8A3E0F9A3E0FA900182E0888289838AF012396790017F74EA
:200D1A000128F0E439A3F0EAA3F090017FE0F9A3E0FAA3E0FF89828A838FF0E4123967D08E
:200D3A0007900183E02401F0A3E03400F09002BDE523F0E524A3F0900005C007C006C00518
:200D5A00C004C003123982A982AA83D003D004D005D006D007E924A3F582EA3400F583E007
:200D7A00F8A3E0F9A3E0FA90017FE0F529A3E0F52AA3E0F52B900183E0F525A3E0F52688E1
:200D9A008289838AF0123AB5F52C6062C3E5259BE52664808CF063F08095F04042E5259501
:200DBA0027E52664808528F063F08095F05030852982852A83852BF0E52C123967A385821F
:200DDA002985832A90017FE529F0E52AA3F0E52BA3F0852982852A83852BF0E412396705AE
:200DFA0025E4B52502052608B8009409809190017FE529F0E52AA3F0E52BA3F0900183E50F
:200E1A0025F0E526A3F090016DE07A00B5230CEAB52408900182745DF080069001827420FD
:200E3A00F0900183E0F9A3E0FAC3E99BEA64808CF063F08095F0404FE99521EA64808522B2
:200E5A00F063F08095F0503FC00790017FE0F8A3E0F9A3E0FA900182E0888289838AF01264
:200E7A00396790017F740128F0E439A3F0EAA3F090017FE0F9A3E0FAA3E0FF89828A838F5F
:200E9A00F0E4123967D007900183E02401F0A3E03400F00523E4B523020524020C66AF8376
:200EBA00E58290018BF0EFA3F0900185E0FDA3E0FEA3E0FF8D828E838FF0E4123967A31243
:200EDA003967900188E0F535A3E0F536A3E0F5378535828536838537F0E4123967A312392E
:200EFA006790018DF0A3F090018BE0F52DA3E0F52E9002BDE52DF0E52EA3F0900005C007B9
:200F1A00C006C005123982A882A983D005D006D007E824A3F8E93400F988828983A3A3A3CB
:200F3A00E0F9852D2F852E30E4F531F532C0019002BDE531F0E532A3F0900005C007C006E7
:200F5A00C005123982A882A983D005D006D007E824A3F533E93400F534853382853483E09A
:200F7A00F8A3E0F9A3E0E849D001700122853382853483A3A3A3E0B501028003021054E506
:200F9A002FB5311CE530B5321790018DE0FBA3E0FC8D828E838FF0EB123967A3EC123967FE
:200FBA0090018DE02401F0A3E03400F09002BDE531F0E532A3F0900005C007C006C005C0B7
:200FDA0001123982AB82AC83D001D005D006D007EB24A3F582EC3400F583E0FAA3E0FBA3BE
:200FFA00E0FC90018DE0F533A3E0F5348A828B838CF0123AB5600F0533E4B5330205340ADA
:20101A00BA00E90B80E690018DE533F0E534A3F0E52DB53119E52EB5321485358285368337
:20103A008537F0E533123967A3E53412396790018DE02401F0A3E03400F00531E4B53102F6
:20105A000532020F47AFF0AE83E582900191F0EEA3F0EFA3F0900191E0FDA3E0FEA3E0FF99
:20107A008D828E838FF0E412396790016DE0FF7E009001857494F07401A3F0E4A3F09001A8
:20109A00887496F07401A3F0E4A3F08F828E83120EB8900172E0FF900194E0FDA3E0FE8F47
:2010BA00047F00C3ED9CEE64808FF063F08095F05007900172EDF0802D90018FE0FDA3E03A
:2010DA00FEED2CFCEE3FFF900196E0FAA3E0FBC3EC9AEF64808BF063F08095F05008EAC344
:2010FA009D04900172F0900191E0FDA3E0FEA3E0FF900172E0FC7B00900172E0F5388B3912
:20111A0090018FE0F8A3E0FAE82538F8EA3539FA90017BECF0EBA3F090017DE8F0EAA3F0E8
:20113A008D828E838FF0020C1990016DE075F005A4F53A85F03B7C007D009002BDECF0EDF3
:20115A00A3F0900005C005C004123982AA82AB83D004D005EA24A3FAEB3400FB8A828B8315
:20117A00E0F8A3E0F9A3E0E849602C8A828B83A3A3A3E0FFE53A24A3FBE53B3400FE8B829F
:20119A008E83A3A3A3A3E0FEEFB50604900001220CBC00A60D80A39000002290016DE075B6
:2011BA00F005A424A3FE740035F0FF8E828F83A3A3A3A3E0FFBF0103EF8001E4FF7E008F6F
:2011DA00828E83227E007F009002BDEEF0EFA3F0900005C007C006123982AC82AD83D00671
:2011FA00D007EC24A3FCED3400FD8C828D83E0F9A3E0FAA3E0E94A7001228C828D83A3A310
:20121A00A3E0FD90016DE075F005A424A3FB740035F0FC8B828C83A3A3A3A3E0FCEDB504C7
:20123A00657D009001EA7403F0E4A3F08C828D83C007C00612175CD006D007900171E0FD9D
:20125A0004900171F0ED246EFDE43401FC90016DE08D828C83F08E0590016DEDF0ED75F041
:20127A0005A424A3FC740035F0FD8C828D83A3A3A3A3E0FD7C009001EA7401F0E4A3F08D6B
:20129A00828C8302175C0EBE00010F0211E290016DE0FF75F005A424A3FD740035F0FE8D8A
:2012BA00828E83A3A3A3E0FE7D000FBF00010D9002BDEFF0EDA3F0900005C007C006C005CC
:2012DA00123982AB82AC83D005D006D007EB24A3FBEC3400FC8B828C83E0F8A3E0F9A3E08D
:2012FA00E84960428B828C83A3A3A3E0B506308F0490016DECF0EC75F005A424A3FB740094
:20131A0035F0FC8B828C83A3A3A3A3E0FC7B009001EA7401F0E4A3F08C828B8302175C0F9C
:20133A00BF008C0D80892290016DE0FF75F005A424A3FD740035F0FE8D828E83A3A3A3E0E1
:20135A00FE7D001FBFFF011DED20E7689002BDEFF0EDA3F0900005C007C006C0051239823F
:20137A00AB82AC83D005D006D007EB24A3FBEC3400FC8B828C83A3A3A3E0B506308F0490B9
:20139A00016DECF0EC75F005A424A3FB740035F0FC8B828C83A3A3A3A3E0FC7B009001EA1E
:2013BA007401F0E4A3F08C828B8302175C1FBFFF011D80942290016DE4F0900171E0FF6062
:2013DA006B1F900171EFF0EF246EF582E43401F583E0FF90016DF0EF75F005A424A3FE74FC
:2013FA000035F0FF8E828F83A3A3A3A3E0FF7E009001EA7404F0E4A3F08F828E8312175CA3
:20141A0090016DE075F005A424A3FE740035F0FF8E828F83A3A3A3A3E0FF7E009001EA746F
:0D143A0001F0E4A3F08F828E8302175C2284
:103AFA004D656E75206974656D20636F756E74000F
:201447009001B9E4F09001BAF09001BBF09001BCF09001BDF09001BEF09001CBF09001CA8F
:20146700F09001C9F09001C8F09001CCF09001C7F09001CDF0FFEF2498F582E43401F5834D
:201487007420F00FBF200040ED1214958011900009E0C0E0A3E0C0E090019875F0002290DE
:2014A70001BA7401F07458C0E07415C0E07490C0E07401C0E01214C1800E900001E0C0E031
:2014C700A3E0C0E090000122E58124FCF5817458C0E07415C0E0740AC0E0E4C0E01214E9ED
:2014E700800E900001E0C0E0A3E0C0E090000222E58124FCF5817458C0E07415C0E074E882
:20150700C0E07403C0E0121512800E900001E0C0E0A3E0C0E090000322E58124FCF58174ED
:2015270058C0E07415C0E074E8C0E07403C0E012153B800E900001E0C0E0A3E0C0E09000BC
:201547000422E58124FCF5811221EB120B7402164AAF83E5829001CEF0EFA3F09001CEE0A8
:20156700FEA3E0FFBE0105BF0002801BBE0205BF00028059BE0306BF0003021632BE0406CA
:20158700BF000302163E229001BAE0FFBF0103021D32BF02199001BBE0600912173F900164
:2015A700BBE4F022121DCA9001BB7401F022BF03028001229001BBE0600912173F9001BBF7
:2015C700E4F022121D7D9001BB7401F0221215D9801190000BE0C0E0A3E0C0E09001D075EA
:2015E700F000229001D0E0FEA3E0FF9001B9E0FC7D00EEB50405EFB50501229001B9EEF0CE
:20160700BE010BBF0008758201120BB1801ABE020BBF0008758203120BB1800CBE0309BF63
:201627000006758202120BB102164A9001BAE0FFBF040122021E5C9001BAE0FFBF010302F9
:201647001F8D2290018F7410F0E4A3F09001D2F5F012105F7E007F007D00EE24D2FBEF3465
:2016670001FC8B828C83E060238D0474102C2498FCE43401FBEE24D2F582EF3401F5830ED5
:20168700BE00010FE08C828B83F080118D0474102C2498F582E43401F5837420F00DBD1095
:2016A7000040B7900009E0C0E0A3E0C0E090019875F0002222AF83E5829001E8F0EFA3F09A
:2016C7009001E5E0FDA3E0FEA3E0FF9001E8E0FBA3E0FC9001E3E0F9A3E0FAE92BF9EA3CDD
:2016E700FAC3EB99EC64808AF063F08095F050338D828E838FF0123AB5F8700FEB2498F5CA
:2017070082EC3401F5837420F08011EB2498F582EC3401F583E8F00DBD00010E0BBB00C1A3
:201727000C80BE02172D900009E0C0E0A3E0C0E090019875F00022229001E37410F0E4A395
:20174700F09001E5740AF0743BA3F07480A3F09000000216BCAF83E5829001ECF0EFA3F0F9
:201767009001ECE0FEA3E0FFC3EE940BEF64809480500122C3742A9E74808FF063F0809501
:20178700F0500122EE24F5FE240A83F582EE242483F583E473015DCE2276CA1E31312FDA13
:2017A70072CC268031313131245B7B9BBBDBF815313131DCFB1818181919191A1D1D181BBE
:2017C7001A1A1B1B1D1D1D1D1C1C1C1C1C1C1C1D1D1D1D17179002A57410F0740EA3F0906E
:2017E70002A774C7F07401A3F0E4A3F09001C0F5F002338F9001CDE4F0229001EAE0FEA345
:20180700E0FFBE0311BF000E9001BA7402F09001BBE4F002173FBE0405BF0002800122905F
:2018270001BA7401F002173F9001EAE0FEA3E0FFBE0311BF000E9001BA7403F09001BBE4CD
:20184700F002173FBE0405BF00028001229001BA7401F002173F9001EAE0FEA3E0FFBE026B
:2018670005BF00028001221218738011900005E0C0E0A3E0C0E09001EE75F000229001F209
:20188700E0FF9001EE75F000C007122F93AD82AE83D0077C00EFB50505ECB5060122900127
:2018A700F2E0FF0F9001F2EFF01218B58011900007E0C0E0A3E0C0E09001EE75F00022909F
:2018C70001BBE4F0021DCA9001EAE0FEA3E0FFBE0205BF00028001221218E4801190000550
:2018E700E0C0E0A3E0C0E09001EE75F000229001F2E0FFBF0101221F9001F2EFF01219093E
:201907008011900007E0C0E0A3E0C0E09001EE75F000229001BBE4F0021DCA9001EAE0FE8D
:20192700A3E0FFBE0205BF00028001221219388011900005E0C0E0A3E0C0E09001EE75F0E5
:2019470000229001F3E0FFBF0C01220F9001F3EFF012195D8011900007E0C0E0A3E0C0E048
:201967009001EE75F000229001BBE4F0021DCA9001EAE0FEA3E0FFBE0205BF00028001224D
:2019870012198C8011900005E0C0E0A3E0C0E09001EE75F000229001F3E0FFBF0101221F55
:2019A7009001F3EFF01219B18011900007E0C0E0A3E0C0E09001EE75F000229001BBE4F0F0
:2019C700021DCA9001EAE0FEA3E0FFBE0205BF00028001221219E08011900005E0C0E0A3BF
:2019E700E0C0E09001EE75F000229001F4E0FFBF3201220F9001F4EFF0121A05801190001D
:201A070007E0C0E0A3E0C0E09001EE75F000229001BBE4F0021DCA9001EAE0FEA3E0FFBE6D
:201A27000205BF0002800122121A348011900005E0C0E0A3E0C0E09001EE75F00022900174
:201A4700F4E0FFBF0A01221F9001F4EFF0121A598011900007E0C0E0A3E0C0E09001EE75F9
:201A6700F000229001BBE4F0021DCA9001EAE0FEA3E0FFBE0205BF0002800122121A88800C
:201A870011900005E0C0E0A3E0C0E09001EE75F000229001EFE0FFBF3B079001EFE4F080BC
:201AA700060F9001EFEFF0121AB38011900007E0C0E0A3E0C0E09001EE75F000229001BBAF
:201AC700E4F0021D7D9001EAE0FEA3E0FFBE0205BF0002800122121AE28011900005E0C0B7
:201AE700E0A3E0C0E09001EE75F000229001EFE0FF70089001EF743BF080061F9001EFEFCC
:201B0700F0121B0D8011900007E0C0E0A3E0C0E09001EE75F000229001BBE4F0021D7D9077
:201B270001EAE0FEA3E0FFBE0205BF0002800122121B3C8011900005E0C0E0A3E0C0E09068
:201B470001EE75F000229001F0E0FFBF17079001F0E4F080060F9001F0EFF0121B6780115C
:201B6700900007E0C0E0A3E0C0E09001EE75F000229001BBE4F0021D7D9001EAE0FEA3E086
:201B8700FFBE0205BF0002800122121B968011900005E0C0E0A3E0C0E09001EE75F0002284
:201BA7009001F0E0FF70089001F07417F080061F9001F0EFF0121BC18011900007E0C0E0AF
:201BC700A3E0C0E09001EE75F000229001BBE4F0021D7D9001EAE0FEA3E0FFBE0205BF00BA
:201BE70002800122121BF08011900005E0C0E0A3E0C0E09001EE75F000229001EEE4F012E8
:201C07001C0B8011900007E0C0E0A3E0C0E09001EE75F000229001BBE4F0021D7D9001EA8E
:201C2700E0FEA3E0FFBE031ABF00179001BA7404F012173F900221E4F0903B0B75F080022D
:201C47001E11BE0405BF00028001229001BA7401F002173F9001EAE0FEA3E0FFBE0205BFBC
:201C670000028001229002217420F0903B0F75F080021E119001EAE0FEA3E0FFBE0205BF32
:201C870000028001229002217410F0903B1675F080021E119001EAE0FEA3E0FFBE0205BF1B
:201CA70000028001229002217401F0903B1B75F080021E119001EAE0FEA3E0FFBE0205BF05
:201CC70000028001229002217402F0903B2275F080021E119001EAE0FEA3E0FFBE024BBF97
:201CE70000489002217404F0903B2975F080021E119001EAE0FEA3E0FFBE022EBF002B902D
:201D070002217408F0903B3075F080021E119001EAE0FEA3E0FFBE0211BF000E900221E40C
:201D2700F0903B3775F080021E1122121D378011900005E0C0E0A3E0C0E09001C075F0008D
:201D47002290029874C0F07401A3F0E4A3F090029BF09001F5F5F012309F9001E37405F047
:201D6700E4A3F09001E574F5F07401A3F0E4A3F090000B0216BC121D828011900005E0C0B1
:201D8700E0A3E0C0E090020975F000229002987409F07402A3F0E4A3F090029B04F090014E
:201DA700FF75F00012309F9001E37410F0E4A3F09001E574FFF07401A3F0E4A3F090000090
:201DC7000216BC121DCF8011900005E0C0E0A3E0C0E090021A75F0002290029F741AF0740B
:201DE70002A3F0E4A3F0900210F5F01232219001E37410F0E4A3F09001E57410F07402A382
:201E0700F0E4A3F09000000216BCAFF0AE83E582900222F0EEA3F0EFA3F0900222E0FDA3DE
:201E2700E0FEA3E0FF9001E37410F0E4A3F09001E5EDF0EEA3F0EFA3F09000001216BC9082
:201E47000221E0FF021E4E90000FE0C0E0A3E0C0E08F822222900225E4F0121E6680119032
:201E6700000DE0C0E0A3E0C0E090022575F00022900225E0FF9001BCF0530710900226EF89
:201E8700F0900225E05420900227F0900225E05404900228F0900225E05408900229F090D0
:201EA7000225E0544090022AF0900226E07018900227E07012900228E0700C900229E07078
:201EC7000690022AE0600C90022B7401F090022CF0804190022BE4F090022CF09002AF7468
:201EE700C7F07401A3F0E4A3F09001C0F5F01236FBE58320E70D9001C2E0FFBF1102800329
:201F0700BF120C9001BF7401F090022CF080059001BFE4F090022DE4F090022CE0600690AA
:201F2700022D7420F090022BE0600890022DE043E010F0900226E0601090022DE043E00155
:201F4700F090022DE043E002F0900227E0600890022DE043E004F0900228E0600890022D5E
:201F6700E043E008F090022DE0FFC007121F78800D90000FE0C0E0A3E0C0E08F8222D00778
:201F87009001BDEFF0229001BEE0FF600302203E9001BCE0541090023BF09001BCE054200B
:201FA70090023CF09001BCE0540490023DF09001BCE0540890023EF09001BCE0544090027C
:201FC7003FF090028F743DF0743BA3F07480A3F090022E75F000122F217E00EE243BFCE40E
:201FE7003402FD8C828D83E060298E0574312D900239F090023AE4F09002897439F0740232
:20200700A3F0E4A3F090022EF5F0C006122E91D006801B9002897443F0743BA3F07480A367
:20202700F090022E75F000C006122E91D0060EBE050040A70221BDBF010280030221519036
:2020470001BDE05401900240F09001BDE05402900241F09001BDE05404900242F09001BDE5
:20206700E05408900243F090028F7445F0743BA3F07480A3F090022E75F000122F217E00C0
:20208700EE2440FCE43402FD8C828D83E060298E0574312D900239F090023AE4F090028972
:2020A7007439F07402A3F0E4A3F090022EF5F0C006122E91D006801B9002897443F0743BDE
:2020C700A3F07480A3F090022E75F000C006122E91D0060EBE040040A79001BDE030E4193B
:2020E700900289744AF0743BA3F07480A3F090022E75F000122E9180179002897443F07484
:202107003BA3F07480A3F090022E75F000122E919001BDE030E51A900289744CF0743BA3F3
:20212700F07480A3F090022E75F000122E910221BD9002897443F0743BA3F07480A3F09030
:20214700022E75F000122E91806CBF024F90028F744EF0743BA3F07480A3F090022E75F055
:2021670000122F219001BFE060199002897452F0743BA3F07480A3F090022E75F000122E4E
:20218700918033900289740BF0743BA3F07480A3F090022E75F000122E91801ABF031790A8
:2021A700028F7455F0743BA3F07480A3F090022E75F000122F219001E3740AF0E4A3F09095
:2021C70001E5742EF07402A3F0E4A3F09000001216BC9001BEE02401F0E024FC5005900162
:0421E700BEE4F02240
:203B0A00004F666600426F696C65720050756D70005A6F6E652031005A6F6E652032005A4C
:203B2A006F6E652033005A6F6E652034005265736574005A6F6E6520005F004F7574200080
:143B4A0050004200485720004F6E00323032303037313800C5
:2021EB001209FA900173E4F0A3F09001757428F0E4A3F0903B5E75F080120A869001737423
:20220B0028F0E4A3F09001757429F0E4A3F0903B6875F080120A869001737428F0E4A3F059
:20222B00900175742AF0E4A3F0903B6F75F080120A869001737428F0E4A3F090017504F0C6
:20224B00E4A3F0903B7575F080120A86900173E4F0A3F0900175740AF0E4A3F0903B7C7523
:20226B00F080120A86900173740AF0E4A3F0900175740BF0E4A3F0903B8675F080120A8694
:20228B00900173740BF0E4A3F0900175740CF0E4A3F0903B8F75F080120A86900173740BF8
:2022AB00F0E4A3F0900175740DF0E4A3F0903B9475F080120A86900173740BF0E4A3F0905E
:2022CB000175740EF0E4A3F0903B9975F080120A86900173740BF0E4A3F0900175740FF046
:2022EB00E4A3F0903BA075F080120A86900173740BF0E4A3F09001757410F0E4A3F0903BC4
:20230B00A775F080120A86900173740BF0E4A3F09001757411F0E4A3F0903BAD75F0801239
:20232B000A86900173740BF0E4A3F090017504F0E4A3F0903B7575F080120A869001737468
:20234B000AF0E4A3F09001757414F0E4A3F0903BB375F080120A869001737414F0E4A3F014
:20236B009001757416F0E4A3F0903BBC75F080120A869001737414F0E4A3F09001757417C9
:20238B00F0E4A3F0903BC475F080120A869001737414F0E4A3F09001757418F0E4A3F09039
:2023AB003BCC75F080120A869001737414F0E4A3F09001757419F0E4A3F0903BD275F08015
:2023CB00120A869001737414F0E4A3F09001757415F0E4A3F0903BD875F080120A869001AC
:2023EB00737414F0E4A3F090017504F0E4A3F0903B7575F080120A86900173740AF0E4A33F
:20240B00F090017504F0E4A3F0903B7575F080120A86900173E4F0A3F0900175741EF0E4B2
:20242B00A3F0903BE675F080120A86900173741EF0E4A3F0900175741FF0E4A3F0903BF30B
:20244B0075F080120A86900173741EF0E4A3F09001757420F0E4A3F0903BFA75F080120A26
:20246B0086900173741EF0E4A3F09001757421F0E4A3F0903BFF75F080120A869001737403
:20248B001EF0E4A3F09001757422F0E4A3F0903C0675F080120A86900173741EF0E4A3F053
:2024AB009001757423F0E4A3F0903C0D75F080120A86900173741EF0E4A3F0900175742412
:2024CB00F0E4A3F0903C1475F080120A86900173741EF0E4A3F09001757425F0E4A3F09090
:2024EB003B6F75F080120A86900173741EF0E4A3F090017504F0E4A3F0903B7575F080020B
:02250B000A863E
:203B5E00486F74205761746572003120486F75720052657365740052657475726E005365CF
:203B7E007420436C6F636B005365742044617465004461792B004461792D004D6F6E746843
:203B9E002B004D6F6E74682D00596561722B00596561722D005365742054696D65004D699E
:203BBE006E7574652B004D696E7574652D00486F75722B00486F75722D00526573657420AA
:203BDE005365636F6E64730054657374204F75747075747300426F696C65720050756D7035
:1D3BFE00005A6F6E652031005A6F6E652032005A6F6E652033005A6F6E65203400F0
:20250D00C281C283C2827E107F271EBEFF011FEE4F70F753800F4380301225EE7EC47F094B
:20252D001EBEFF011FEE4F70F753800F4380301225EE7E647F001EBEFF011FEE4F70F753A2
:20254D00800F4380301225EE122600E58270F953800F4380201225EE122600E58270F97558
:20256D00822812258A75820C12258A75820612258A75820112258A758200022626E582906C
:20258D000244F0C283C28253800F900244E0FF74F05F4280C0071225EED00753800FEFC4FB
:2025AD0054F042801225EE122600E58270F922E582900245F0D283C28253800F900245E059
:2025CD00FF74F05F4280C0071225EED00753800FEFC454F042801225EE122600E58270F9DF
:2025ED0022D2817EF47F011EBEFF011FEE4F70F7C28122C283D282D281900246E580F0E06A
:20260D0030E708C281C28275820122C281C2827582002275820102258AE582900247F0E094
:20262D004480F58202258AAFF0AE83E582900248F0EEA3F0EFA3F0900248E0FDA3E0FEA3C2
:20264D00E0FF90024BEDF0EEA3F0EFA3F07E007F00EE2EFCEF33FDEC241BF582ED343CF5A9
:20266D0083E493F582C007C006122626D006D00790024BE0FBA3E0FCA3E0FD7A008B828C7A
:20268D00838DF0123AB5F960248982C007C006C005C004C003C0021225BCD002D003D0049D
:2026AD00D005D006D0070BBB00210C801E758220C007C006C005C004C003C0021225BCD085
:2026CD0002D003D004D005D006D0070ABA100040AC90024BEBF0ECA3F0EDA3F00EBE00017E
:1026ED000FC3EE9402EF64809480500302265E22A5
:043C1B000000400065
:2026FD00D2B6D2B7227E0A7F001EBEFF011FEE4F70F722D2B7122702C2B6122702C2B702D0
:20271D002702C2B6D2B7122702D2B6022702D2B6D2B712270230B60790024EE4F080069081
:20273D00024E7401F0C2B7122702C2B690024EE0F58222E58290024FF07F0090024FE0309A
:20275D00E704D2B68002C2B6C007122702D2B7122702C2B7122702C2B6122702D007900259
:20277D004FE025E0F00FBF080040D002272BE582900250F0900251E4F0FF900251E025E027
:20279D00F0D2B6C2B7C007122702D2B7122702A2B6E433FEC006122702C2B7122702D0066D
:2027BD00D007900251E04EF00FBF080040CC900250E06004C2B68002D2B6122702D2B712C4
:2027DD002702C2B7122702900251E0F58222E582900253F0E025E0F0900252E05401FF90EA
:2027FD000253E04FF0E0F582022750E582900259F0122710900259E0FF900252E4F08F825A
:20281D001227EBE582700712271F75820022900257E0FEA3E0FF900254E0FBA3E0FCA3E01C
:20283D00FD79007A00C3E99EEA64808FF063F08095F050418B828C838DF0123AB5F582C03A
:20285D0007C006C005C004C003C002C001122750E582D001D002D003D004D005D006D00703
:20287D00700712271F758200220BBB00010C09B900B30A80B012271F75820122E582900266
:20289D005FF012271090025FE0FF9002527401F08F821227EBE582700712271F75820022E6
:2028BD0090025DE0F508A3E0F50990025AE0FBA3E0FCA3E0FD79007A00C3E99508EA6480DE
:2028DD008509F063F08095F0504AE50824FFF8E50934FFFFC3E998EA64808FF063F080954A
:2028FD00F0E433F582C005C004C003C002C00112278BAF82D001D002D003D004D0058B824D
:1B291D008C838DF0EF123967A3AB82AC8309B900A80A80A512271F7582012268
:20293800E582900260F0E0FF75F00A84AEF053060F75F00AEF84540FC454F042068E822297
:20295800E582900261F0E0FFFD5305F0E4CDC4540F6DCD540FCD6DCD30E30244F0ED75F0DA
:202978000AA4FD740F5F2DF58222AFF0AE83E582900262F0EEA3F0EFA3F07F00EF2465F5E2
:2029980082E43402F583E4F00FBF090040EE9002547465F07402A3F0E4A3F090025704F026
:2029B800E4A3F075826812280890025A7465F07402A3F0E4A3F090025D7407F0E4A3F0756C
:2029D8008268122899E5827003F58222900262E0FDA3E0FEA3E0FF8D028E038F0490026531
:2029F800E0F953017F8982C007C006C005C004C003C002122958A982D002D003D004D00561
:202A1800D006D0078A828B838CF0E912396774012DFAE43EFB8F04900266E0F953017F8947
:202A380082C007C006C005C004C003C002122958A982D002D003D004D005D006D0078A829C
:202A58008B838CF0E912396774022DFAE43EFB8F04900267E0F953013F8982C007C006C02F
:202A780005C004C003C002122958A982D002D003D004D005D006D0078A828B838CF0E912A6
:202A9800396774032DFAE43EFB8F04900268E0F95301078982C007C006C005C004C003C05E
:202AB80002122958A982D002D003D004D005D006D0078A828B838CF0E912396774042DFA73
:202AD800E43EFB8F04900269E0F953013F8982C007C006C005C004C003C002122958A98263
:202AF800D002D003D004D005D006D0078A828B838CF0E912396774052DFAE43EFB8F0490B2
:202B1800026AE0F953011F8982C007C006C005C004C003C002122958A982D002D003D00408
:202B3800D005D0068A828B838CF0E912396774062DFDE43EFE90026BE0F582C006C00512EC
:202B58002958AC82D005D006D0078D828E838FF0EC12396775820122AFF0AE83E58290020C
:202B78006EF0EEA3F0EFA3F0900271E4F090026EE0FDA3E0FEA3E0FF8D028E038F048A8266
:202B98008B838CF0123AB5F582C007C006C005122938E582D005D006D007547F900272F0A6
:202BB80074012DFAE43EFB8F048A828B838CF0123AB5F582C007C006C005122938E582D0A7
:202BD80005D006D007547F900273F074022DFAE43EFB8F048A828B838CF0123AB5F582C048
:202BF80007C006C005122938E582D005D006D007547F4480900274F074032DFAE43EFB8FF8
:202C1800048A828B838CF0123AB5F582C007C006C005122938E582D005D006D007540790F1
:202C38000275F074042DFAE43EFB8F048A828B838CF0123AB5F582C007C006C005122938F3
:202C5800E582D005D006D007543F900276F074052DFAE43EFB8F048A828B838CF0123AB501
:202C7800F582C007C006C005122938E582D005D006D007541F900277F074062DFDE43EFEE7
:202C98008D828E838FF0123AB5F582122938AF82900278EFF09002547471F07402A3F0E4D0
:142CB800A3F09002577408F0E4A3F07582680228080226FDF3
:202CCC00AFF0AE83E58290027CF0EEA3F0EFA3F090027F7410F07427A3F090027CE0FDA36F
:202CEC00E0FEA3E0FF90027FE0FBA3E0FC90027AE0F50AA3E0F50B9002B5EBF0ECA3F08569
:202D0C000A82850B83C007C006C005C004C0031238DAA882AA83D003D004D005D006D0078B
:202D2C0088017430298D828E838FF0123967A3AD82AE839002BDEBF0ECA3F088828A83C05D
:202D4C0007C006C005C004C003123982A982AA83D003D00490027AE50AC399F0E50B9AA30E
:202D6C00F09002B5740AF0E4A3F08B828C831238DAE5828583F0D005D006D00790027FF009
:202D8C00E5F0A3F090027CEDF0EEA3F0EFA3F090027FE0F5F0A3E045F06003022CF190022F
:202DAC007CEDF0EEA3F0EFA3F08D828E838FF0E4023967AFF0AE83E582900282F0EEA3F0CA
:202DCC00EFA3F09002877480F0E4A3F0900282E0FDA3E0FEA3E0FF900287E0FBA3E0FC90FA
:202DEC000281E0F97A009002B5EBF0ECA3F089828A83C007C006C0051238DAAB82AC83D096
:202E0C0005D006D007900285EBF0ECA3F08D008E018F02EB4C60047C3180027C30888289CD
:202E2C00838AF0EC123967900285E0FC900287E0FAA3E0FB8A018CF0E9A4FC900281E0C341
:202E4C009CF0EBC313CA13CAFB900287EAF0EBA3F00DBD00010E900282EDF0EEA3F0EFA329
:202E6C00F0900287E0F5F0A3E045F06003022DE3900282EDF0EEA3F0EFA3F08D828E838FA8
:202E8C00F0E4023967AFF0AE83E58290028CF0EEA3F0EFA3F090028CE0FDA3E0FEA3E0FF6A
:202EAC008D828E838FF0123AB560120DBD00010E90028CEDF0EEA3F0EFA3F080E390028C9C
:202ECC00EDF0EEA3F0EFA3F0900289E0FAA3E0FBA3E0FC8A828B838CF0123AB5F960218D76
:202EEC00828E838FF0E9123967A3AD82AE8390028CEDF0EEA3F0EFA3F00ABA00D60B80D320
:202F0C0090028CEDF0EEA3F0EFA3F08D828E838FF0E4023967AFF0AE83E582900292F0EE49
:202F2C00A3F0EFA3F0900292E0FDA3E0FEA3E0FF8D828E838FF0E412396790028FE0FAA399
:202F4C00E0FBA3E0FC8A828B838CF0123AB5F960218D828E838FF0E9123967A3AD82AE83BD
:202F6C00900292EDF0EEA3F0EFA3F00ABA00D60B80D3900292EDF0EEA3F0EFA3F08D828EA8
:072F8C00838FF0E4023967B6
:202F9300AFF0AE83E582900295F0EEA3F0EFA3F0900295E0FDA3E0FEA3E0FF74062DFAE441
:202FB3003EFB8F048A828B838CF0123AB5FA7C0074D02AFB74073CFC74052DFDE43EFE8DB9
:202FD300828E838FF0123AB5FF24F3500302309BEF240A83F582EF241183F583E4739B0B62
:202FF3000F73777B7F83878B8F93973030303030303030303030303090001F229002BF7477
:2030130004F0E4A3F08B828C83C004C0031239A2E5828583F0D003D00445F070219002BF85
:203033007464F0E4A3F08B828C83C004C0031239A2E5828583F0D003D00445F0701A900257
:20305300BF7490F07401A3F08B828C831239A2E5828583F045F0700490001D2290001C22F4
:2030730090001F2290001E2290001F2290001E2290001F2290001E2290001E2290001E22BA
:2030930090001E2290001F2290FFFF22AFF0AE83E58290029CF0EEA3F0EFA3F090029CE066
:2030B300FDA3E0FEA3E0FF900298E0F53CA3E0F53DA3E0F53E7402253CF53FE4353DF540C1
:2030D300853E41853F828540838541F0123AB575F00A8424308D828E838FF0123967740187
:2030F3002DFAE43EFB8F04853F828540838541F0123AB575F00A84A9F07430298A828B832E
:203113008CF012396774022DFAE43EFB8F048A828B838CF0743A12396774032DF53FE43E31
:20313300F5408F417401253CF542E4353DF543853E448542828543838544F0123AB575F022
:203153000A842430853F828540838541F012396774042DFAE43EFB8F04854282854383851C
:2031730044F0123AB575F00A84A9F07430298A828B838CF012396790029BE0701374052D30
:20319300FAE43EFB8F048A828B838CF0E402396774052DFAE43EFB8F048A828B838CF074FC
:2031B3003A12396774062DF542E43EF5438F44853C3F853D40853E41853F828540838541AB
:2031D300F0123AB575F00A8424308542828543838544F012396774072DFAE43EFB8F0485CE
:2031F3003F828540838541F0123AB575F00A84A9F07430298A828B838CF012396774082DB2
:20321300FDE43EFE8D828E838FF0E4023967AFF0AE83E5829002A2F0EEA3F0EFA3F0900269
:20323300A2E0FDA3E0FEA3E0FF90029FE0F53CA3E0F53DA3E0F53E7404253CF53FE4353DE9
:20325300F540853E41853F828540838541F0123AB575F00A8424308D828E838FF012396745
:2032730074012DFAE43EFB8F04853F828540838541F0123AB575F00A84A9F07430298A8245
:203293008B838CF012396774022DFAE43EFB8F048A828B838CF0742F12396774032DF53FCF
:2032B300E43EF5408F417405253CF542E4353DF543853E448542828543838544F0123AB5E0
:2032D30075F00A842430853F828540838541F012396774042DFAE43EFB8F0485428285433E
:2032F300838544F0123AB575F00A84A9F07430298A828B838CF012396774052DFAE43EFB20
:203313008F048A828B838CF0742F12396774062DF542E43EF5438F447406253CF53FE435E9
:203333003DF540853E41853F828540838541F0123AB575F00A84243085428285438385441B
:20335300F012396774072DFAE43EFB8F04853F828540838541F0123AB575F00A84A9F07421
:2033730030298A828B838CF012396774082DFDE43EFE8D828E838FF0E4023967AFF0AE83DE
:20339300E5829002AAF0EEA3F0EFA3F09002A7E0F51BA3E0F51CA3E0F51D7404251BF50C79
:2033B300E4351CF50D851D0E9002AAE0F50FA3E0F510A3E0F5117404250FFAE43510FBAC6C
:2033D300118A828B838CF0123AB5850C82850D83850EF01239677403251BF512E4351CF5ED
:2033F30013851D147403250FF8E43510F9AC11888289838CF0123AB585128285138385140F
:20341300F01239677402251BF512E4351CF513851D147402250FF8E43510F9AC1188828933
:20343300838CF0123AB58512828513838514F01239677401251BF515E4351CF516851D1752
:203453007401250FF8E43510F9AC11888289838CF0123AB58515828516838517F0123967CE
:203473007405251BF518E4351CF519851D1A7405250FF8E43510F9AC11888289838CF0124C
:203493003AB5851882851983851AF0123967AA1BAB1CAC1DA80FA910AF11888289838FF08F
:2034B300123AB58A828B838CF01239677406251BF518E4351CF519851D1A7406250FF8E460
:2034D3003510F9AF11888289838FF0123AB5851882851983851AF01239679002A5E0FEA30C
:2034F300E0FF9002ADEEF0EFA3F0AD1BAE1CAF1D9002ADE0F8A3E0F9C3E498748089F0633B
:20351300F08095F0400122C005C006C0078A828B838CF0123AB5FF7E00743CC39FF518E4D7
:203533009EF519C3E89518E964808519F063F08095F0D007D006D0054004A818A919C005B4
:20355300C006C0078A828B838CF0123AB5FF8806EE2F8A828B838CF01239679002ADE0FE25
:20357300A3E0FF9002ADEEC398F0EF99A3F08A828B838CF0123AB5FFBF3C028009D007D060
:2035930006D005023503D007D006D0058A828B838CF0E41239678515828516838517F0127D
:2035B3003AB5F9098515828516838517F0E9123967B93C0280030235038515828516838533
:2035D30017F0E41239678512828513838514F0123AB5F9098512828513838514F0E912398A
:2035F30067B918028003023503C002C003C0048512828513838514F0E4123967850C82858D
:203613000D83850EF0123AB5F909850C82850D83850EF0E9123967851B82851C83851DF063
:20363300C007C006C005C004C003C002122F93A882A983D002D003D004D005D006D0077443
:20365300042DF518E43EF5198F1A851882851983851AF0123AB5FC7B00C3E89CE964808B5A
:20367300F063F08095F0D004D003D0024003023503851882851983851AF07401123967748F
:20369300052DF518E43EF5198F1A851882851983851AF0123AB5F909851882851983851A4E
:2036B300F0E9123967B90C028003023503C002C003C004851882851983851AF07401123910
:2036D3006774062DF8E43EF98F04888289838CF0123AB5FB0B888289838CF0EB123967D08B
:2036F30004D003D002023503AFF0AE83E5829002B2F0EEA3F0EFA3F09002B2E0F540A3E08A
:20371300F541A3E0F54274062540FAE43541FBAC428A828B838CF0123AB5F53C9002AFE0A1
:20373300F53DA3E0F53EA3E0F53F7406253DF8E4353EFBAC3F88828B838CF0123AB5FCB580
:203753003C0280030238CA74052540F9E43541FAAB4289828A838BF0123AB5FB7405253D0F
:20377300F8E4353EF9AA3F888289838AF0123AB5FAEBB5020280030238BB74042540F8E4A5
:203793003541F9AF42888289838FF0123AB5FF7404253DF9E4353EFDAE3F89828D838EF074
:2037B300123AB5FEEFB5060280030238A974022540F8E43541F9AD42888289838DF0123AF1
:2037D300B5F5437402253DF8E4353EF9AD3F888289838DF0123AB5FDB54302800302389104
:2037F30074012540F544E43541F5458542468544828545838546F0123AB5F5447401253D9E
:20381300F547E4353EF548853F498547828548838549F0123AB5F547B5444E854047854106
:20383300488542498547828548838549F0123AB5F547853D40853E41853F4285408285416B
:20385300838542F0123AB5F540B5470490000022E4F548F541E547C39540F547E5489541D9
:20387300F54885478285488322754500A8477900E544C398F8E54599F988828983228543DE
:20389300477548008D017D00E547C399F9E5489DFD89828D83227D008E017E00EFC399FFAD
:2038B300ED9EFD8F828D8322E4FFFEEBC39AFBEF9EFF8B828F8322AE3CE4FFFDEEC39CFE24
:0738D300EF9D8E82F58322B8
:2038DA00AF83E5829002B7F0EFA3F09002B9E4F0A3F09002B5E0FEA3E0FF7D109002B7E06B
:2038FA00FBA3E0FC9002BB235401F0EB2BFBEC33FC9002B7EBF0ECA3F09002B9E0FBA3E007
:20391A00FCEB2BFBEC33FC9002B9EBF0ECA3F09002BBE060089002B9E043E001F09002B9A1
:20393A00E0FBA3E0FCC3EB9EEC9F40139002B9EBC39EF0EC9FA3F09002B7E043E001F0DD2A
:0D395A009B9002B7E0FEA3E08E82F5832271
:06007B00E4787FF6D8FDD9
:200059007900E94400601B7A00903C1F78C875A002E493F2A308B8000205A0D9F4DAF27529
:02007900A0FFE6
:1B39670020F71130F6138883A88220F509F6A8837583002280FEF280F5F0225F
:20398200AA83AB828BF09002BDE0A4F8A9F08AF0E0A429F98BF0A3E0A429F583888222223B
:2039A200AF83E5829002C1F0EFA3F09002C1E0FEA3E0FF30E709C3E49EFCE49FFD80048E01
:2039C200048F059002BFE0FEA3E0FF30E709C3E49EFAE49FFB80048E028F039002C3EAF0EA
:2039E200EBA3F08C828D83123A0AAE82AF839002C1E0A3E030E70CC3E49EFCE49FFD8C82C9
:083A02008D83228E828F832246
:203A0A00AF83E5829002C5F0EFA3F09002C7E4F09002C5E0FEA3E0FF7D009002C3E0FBA306
:203A2A00E0FC2354017036EB2BFBEC33FC9002C3EBF0ECA3F09002C3E0FBA3E0FCC3EE9BAC
:203A4A00EF9C5011ECC313CB13CBFC9002C3EBF0ECA3F080080D9002C7EDF080BD9002C7F9
:203A6A00E0FF9002C5E0FDA3E0FE9002C3E0FBA3E0FCC3ED9BEE9C400B9002C5EDC39BF047
:203A8A00EE9CA3F09002C3E0FDA3E0C313CD13CDFE9002C3EDF0EEA3F08F061FEE70C390B1
:0B3AAA0002C5E0FEA3E08E82F583223F
:200081007800E84400600A790175A000E4F309D8FC78C7E84402600C7903900001E4F0A3B1
:0400A100D8FCD9FAB4
:0D004C00758149123AD1E582600302004936
:1C3AB50020F71430F6148883A88220F507E6A88375830022E280F7E49322E02220
:043AD10075820022D8
:00000001FF
