:03000000020006F5
:03005F0002000399
:0300030002006296
:20006200758F0112023912150C02006EC04DE581F54D240CF581E54D2408F8E4F608F67C84
:20008200007D00EC2413FAED3400FBE54D240AF8A60208A603087600E54D240AF886820811
:2000A20086830886F0123DE8FEA3123DE8FF4E7003020193E54D240AF8740226FBE4083641
:2000C200FE0886078B828E838FF0123DE8FBA3123DE8FEE54D240AF8A94D09740426F7E414
:2000E200083609F70809E6F7A84D0886820886830886F0123DE8FAA3123DE8FFC3EA9BEFFD
:2001020064808EF063F08095F05003020193E54D240AF8740626FBE40836FE0886078B8285
:200122008E838FF0123DE86068A84D0886820886830886F0E4123C27A3123C27E54D240AC9
:20014200F8740726FBE40836FE0886078B828E838FF0123DE8FBA3123DE8FEE54D240AF855
:2001620086820886830886F0123DE8FAA3123DE8FFC006C005C004C0031201808009C003EB
:20018200C0068A828F8322D003D004D005D006803BC004C005E54D240AF8740426FBE408E4
:2001A20036FE0886078B828E838FF0123DE8FAA3123DE8FD0ABA00010D8B828E838FF0EA76
:2001C200123C27A3ED123C27D005D00474092CFCE43DFDE54D2408F806B600020806E54DE3
:2001E2002408F8C3E6940A08E6648094805003020085E54D2404F87664E408F608F608F6C8
:20020200E54D2404F8E624FFFA08E634FFFB08E634FFFE08E634FFFFE54D2404F8A602082A
:20022200A60308A60608A607EA4B4E4F70D2020078854D81D04D227E007F007C007D00ECA8
:200242002413F582ED3400F583E4F0A3F074092CFCE43DFD0EBE00010FC3EE940AEF64802D
:20026200948040DB7ED87F02900001EEF0EFA3F07ED07F03900003EEF0EFA3F07E7D7F0444
:20028200900005EEF0EFA3F07E7A7F04900007EEF0EFA3F07E777F04900009EEF0EFA3F084
:2002A2007E807F0490000BEEF0EFA3F07E437F0590000DEEF0EFA3F07E737F0590000FEE7C
:2002C200F0EFA3F07E777F05900011EEF0EFA3F0122604022E15C04D85814DC082C08305C5
:2002E2008105817C007D007A007B007F007E00EF2413F582EE3400F583E54D2403F8E0F6AC
:20030200A3E008F6E54D2403F8E60846601AE54D2403F8A94D0986F0E7B5F00A0886F00978
:20032200E7B5F0028002806C9002BDECF0EDA3F0900009123C42AE82AF83EE2413F582EFFE
:200342003400F583A84D08E6F008E6A3F0EE2413FEEF3400FF8E828F83A3A3E54D24FCF8A4
:20036200E6F008E6A3F08E828F83A3A3A3A3E4F0A3F074062EF582E43FF5837401F0740775
:200382002EF582E43FF583E54D24FAF8E6F008E6A3F0803474092FFFE43EFE0ABA00010B2D
:2003A2008A048B05C3EA940AEB6480948050030202F11203B98011900011E0C0E0A3E0C0E4
:2003C200E0903E0875F08022854D81D04D22C04DE581F54D2404F581AE82AF83E4FCFDFA40
:2003E200FBE54D2403F8E4F608F6E54D2403F8E62413F58208E63400F583A84D08E0F6A3E2
:20040200E008F6A84D08E608466010A84D08E6B5060708E6B50702800280309002BDECF0AD
:20042200EDA3F0900009123C42AF82AE83EF2413FFEE3400FE74062FFFE43EFEE54D24FC50
:20044200F886058F828E83EDF08024E54D2403F8740926F6E40836F60ABA00010B8A048B89
:2004620005C3EA940AEB6480948050030203EC854D81D04D2202272B022CC2022ADAC04D1A
:2004820085814DC082C083C0F00581A84D0886820886830886F0E4123C27A3123C277C00CB
:2004A2007B00C0048BF005F07A80E4FC3392D28008A2D2EC13FCEA13FAD5F0F5EAF4FA7426
:2004C2000F4AF590E54D2404F876007F00D004C004E590F4FA8F048CF005F07401800225DA
:2004E200E0D5F0FB5AD004603A8C027F00EA2AFAEF33FFEA2AFAEF33FFE54D2404F886054A
:200502007E00ED2AFAEE3FFF0ABA00010FA84D0886820886830886F0EA123C27A3EF123C77
:200522002780180FE54D2404F8A607BF0400409F0B8B04BB040050030204A4854D81D04D84
:2005420022AD82AE83AFF075B0FCACB053043C8D828E838FF0EC123C27F4FC8D828E838FC9
:20056200F0123C275304BF8D828E838FF0EC023C278582A022C04DE581F54D2423F581AD26
:2005820082AE83AFF0E54D2403FCA84D08A6047A007B008D828E838FF0A84D0808123DE83B
:2005A200F6A84D0808E66013A84D08EA26F8A94D0909E7F60DBD00080E8005EA2CF87620F2
:2005C2000ABA00010BC3EA9420EB6480948040C37F007E408C828F838EF012272B80FE85C0
:0505E2004D81D04D2207
:0C3E08004F75744F6654696D657273004D
:2005E700900092742DF0900093742FF0900094747CF0900095745CF090009603F090009762
:20060700F0900098E4F07E007F00EE246DF582EF3400F583742EF00EBE00010FC3EE942086
:20062700EF6480948040E390008DE4F01206388011900009E0C0E0A3E0C0E090006D75F039
:200647000022900099E4F0A3F090006DE4F0900099E0FEA3E0FFEE2492F582EF3400F583D1
:20066700E0900096F0BE030CBF0009900099E4F0A3F0800B90009974012EF0E43FA3F090CB
:2006870002897414F0743EA3F07480A3F090006D75F000122FE39002897496F07400A3F0E2
:2006A700E4A3F090006D75F000122FE39002897423F0743EA3F07480A3F090006D75F00066
:2006C700122FE31206CF801190000DE0C0E0A3E0C0E090009075F00022900090E0FF530737
:2006E700107E00E4BF0004BE00010490009BF0900090E0FF5307207E00E4BF0004BE000183
:200707000490009CF0900090E0FF5307047E00E4BF0004BE000104FF90009DF01207288090
:200727001190000BE0C0E0A3E0C0E090008E75F0002290008EE0FEA3E0FFBE0105BF0002BB
:200747008010BE0205BF00028010BE031BBF0018801090009B7401F0800E90009C7401F0FA
:20076700800690009D7401F090009BE060199002897425F0743EA3F07480A3F090006D75F4
:20078700F000122FE380179002897423F0743EA3F07480A3F090006D75F000122FE3900023
:2007A7009CE060199002897425F0743EA3F07480A3F090006D75F000122FE3801790028995
:2007C7007423F0743EA3F07480A3F090006D75F000122FE390009DE060199002897425F00F
:2007E700743EA3F07480A3F090006D75F000122FE380179002897423F0743EA3F07480A38B
:20080700F090006D75F000122FE390009BE0700F90009CE0700990009DE07003FF80027FCC
:200827000190009EEFF090009BE0700F90009CE0700990009DE07003FF80027F0190009FE4
:20084700EFF090009BE09000A0F090009CE09000A1F090009DE09000A2F090008EE0FEA38C
:20086700E0FFBE0505BF00028020BE0605BF00028020BE0905BF00028020BE0A05BF000284
:200887008020BE0B2BBF0028802090009E7401F0801E90009F7401F080169000A07401F046
:2008A700800E9000A17401F080069000A27401F09002897423F0743EA3F07480A3F09000F2
:2008C7006D75F000122FE390009EE060199002897427F0743EA3F07480A3F090006D75F0C0
:2008E70000122FE38017900289742AF0743EA3F07480A3F090006D75F000122FE390009F0C
:20090700E060199002897427F0743EA3F07480A3F090006D75F000122FE380179002897459
:200927002AF0743EA3F07480A3F090006D75F000122FE39002897423F0743EA3F07480A3C6
:20094700F090006D75F000122FE39000A0E060199002897425F0743EA3F07480A3F0900091
:200967006D75F000122FE380179002897423F0743EA3F07480A3F090006D75F000122FE3EF
:200987009000A1E060199002897425F0743EA3F07480A3F090006D75F000122FE3801790A9
:2009A70002897423F0743EA3F07480A3F090006D75F000122FE39000A2E0601990028974B2
:2009C70025F0743EA3F07480A3F090006D75F000122FE380179002897423F0743EA3F074B7
:2009E70080A3F090006D75F000122FE31209F88011900009E0C0E0A3E0C0E090006D75F015
:200A07000022900091E4F09000A0E060069000917401F09000A1E06008900091E043E0021D
:200A2700F09000A2E06008900091E043E004F090009FE06008900091E043E010F090009E64
:200A4700E06008900091E043E020F0900091E0FF120A5C800D90000FE0C0E0A3E0C0E08F3D
:200A670082227C407D0D7E037F001CBCFF091DBDFF051EBEFF011FEC4D4E4F70ED02065041
:193E14005A313233204220502041313233200020002A002A2000202000E8
:200A870090016BE4F0A3F0020A9190016BE0FEA3E0FF9002BDEEF0EFA3F0900005123C421F
:200AA700AE82AF83EE24A3FEEF3400FF8E828F83A3A3A3A3E4F090016BE0FEA3E0FF900288
:200AC700BDEEF0EFA3F0900005123C42AE82AF83EE24A3F582EF3400F583E4F0A3F0A3F0AA
:200AE70090016BE0FEA3E0FF9002BDEEF0EFA3F0900005123C42AE82AF83EE24A3FEEF3487
:200B070000FF8E828F83A3A3A3E4F022AFF0AE83E582900177F0EEA3F0EFA3F090016BE0C0
:200B2700FEA3E0FF9002BDEEF0EFA3F0900005123C42AE82AF83EE24A3FEEF3400FF7404AB
:200B47002EFEE43FFF900175E0FCA3E08E828F83ECF090016BE0FEA3E0FF9002BDEEF0EF65
:200B6700A3F0900005123C42AE82AF83EE24A3FEEF3400FF900177E0FBA3E0FCA3E0FD8E0F
:200B8700828F83EBF0ECA3F0EDA3F090016BE0FEA3E0FF9002BDEEF0EFA3F0900005123CF2
:200BA70042AE82AF83EE24A3FEEF3400FF74032EFEE43FFF900173E0FCA3E0FD8E828F836E
:200BC700ECF090016BE02401F0A3E03400F090016BE0FEA3E0FF0EBE00010FC374289E74F1
:200BE700808FF063F08095F05016120BF68011900011E0C0E0A3E0C0E0903E2D75F0802247
:200C0700020A9190016DE4F090016EF0900171F0900172F090016DE075F005A424A3FE7465
:200C27000035F0FF8E828F83A3A3A3A3E0FF7E009001EA7401F0E4A3F08F828E8302184BA0
:200C4700E58290017AF0E0FFBF0102800DBF02028005BF035280060213500213F81211DEA8
:200C6700E5828583F045F06003021280121257E5828583F045F0600302149490016DE07573
:200C8700F005A424A3FE740035F0FF8E828F83A3A3A3A3E0FF7E009001EA7402F0E4A3F0F4
:200CA7008F828E8302184B22AFF0AE83E58290017FF0EEA3F0EFA3F090016DE075F005A45E
:200CC70024A3FE740035F0FF8E828F83A3A3A3E0FF8F0E750F00900183E4F0A3F090017D1C
:200CE700E0FCA3E0FD90017BE0FAA3E0FB8C108D118C088D09E4F50AF50B9002BDE50AF0B8
:200D0700E50BA3F0900005C005C004C003C002123C4285820C85830DD002D003D004D005A0
:200D2700E50C24A3F582E50D3400F583E0F9A3E0FEA3E0E94E700122E50C24A3FEE50D345C
:200D470000FF8E828F83A3A3A3E0FF7E00B50E06EEB50F028003020F4590016DE07E00B5BE
:200D67000A0CEEB50B08900182745BF080069001827420F0900183E0FEA3E0FFC3EE9AEF03
:200D870064808BF063F08095F0404AEE9CEF64808DF063F08095F0503C90017FE0F9A3E0E1
:200DA700FEA3E0FF900182E0F889828E838FF0123C2790017F740129F0E43EA3F0EFA3F0DC
:200DC70090017FE0F9A3E0FEA3E0FF89828E838FF0E4123C27900183E02401F0A3E034006C
:200DE700F09002BDE50AF0E50BA3F0900005C005C004C003C002123C42AE82AF83D002D014
:200E070003D004D005EE24A3F582EF3400F583E0F9A3E0FEA3E0FF90017FE0F512A3E0F50D
:200E270013A3E0F514900183E0F50CA3E0F50D89828E838FF0123DE8F86061C3E50C9AE5D4
:200E47000D64808BF063F08095F04041E50C9510E50D64808511F063F08095F0502F8512E6
:200E6700828513838514F0E8123C27A385821285831390017FE512F0E513A3F0E514A3F003
:200E87008512828513838514F0E4123C27050CE4B50C02050D09B900960E809390017FE5FD
:200EA70012F0E513A3F0E514A3F0900183E50CF0E50DA3F090016DE07E00B50A0CEEB50BC3
:200EC70008900182745DF080069001827420F0900183E0FEA3E0FFC3EE9AEF64808BF063A2
:200EE700F08095F0404CEE9508EF64808509F063F08095F0503C90017FE0F9A3E0FEA3E0BD
:200F0700FF900182E0F889828E838FF0123C2790017F740129F0E43EA3F0EFA3F090017FEB
:200F2700E0F9A3E0FEA3E0FF89828E838FF0E4123C27900183E02401F0A3E03400F0050A1B
:200F4700E4B50A02050B020D01AF83E58290018BF0EFA3F0900185E0FDA3E0FEA3E0FF8D1B
:200F6700828E838FF0E4123C27A3123C27900188E0F51FA3E0F520A3E0F521851F828520DE
:200F8700838521F0E4123C27A3123C2790018DF0A3F090018BE0F515A3E0F5169002BDE557
:200FA70015F0E516A3F0900005C007C006C005123C42A882A983D005D006D007E824A3F8A1
:200FC700E93400F988828983A3A3A3E0F9891D751E00851517851618E4F519F51A9002BD2F
:200FE700E519F0E51AA3F0900005C007C006C005123C4285821B85831CD005D006D007E546
:201007001B24A3F582E51C3400F583E0F8A3E0F9A3E0E849700122E51B24A3FBE51C340031
:20102700FC8B828C83A3A3A3E0FC7B00B51D06EBB51E0280030210EDE517B5191CE518B59F
:201047001A1790018DE0FBA3E0FC8D828E838FF0EB123C27A3EC123C2790018DE02401F0CA
:20106700A3E03400F09002BDE519F0E51AA3F0900005C007C006C005123C42AB82AC83D050
:2010870005D006D007EB24A3F582EC3400F583E0FAA3E0FBA3E0FC90018DE0F8A3E0F98A03
:2010A700828B838CF0123DE8600C08B80001090ABA00EC0B80E990018DE8F0E9A3F0E51520
:2010C700B51917E516B51A12851F828520838521F0E8123C27A3E9123C2790018DE02401E3
:2010E700F0A3E03400F00519E4B51902051A020FE4AFF0AE83E582900191F0EEA3F0EFA310
:20110700F0900191E0FDA3E0FEA3E0FF8D828E838FF0E4123C2790016DE0FF7E009001856D
:201127007494F07401A3F0E4A3F09001887496F07401A3F0E4A3F08F828E83120F5090017B
:2011470072E0FF900194E0FDA3E0FE8F047F00C3ED9CEE64808FF063F08095F050079001C5
:2011670072EDF0802E90018FE0FDA3E0FEED2CFCEE3FFF900196E0FAA3E0FBC3EC9AEF6491
:20118700808BF063F08095F05009EAC39D04FF900172F0900191E0FDA3E0FEA3E0FF9001C9
:2011A70072E0FC7B00900172E0FA8A228B2390018FE0F8A3E0FAE82522F8EA3523FA9001BF
:2011C7007BECF0EBA3F090017DE8F0EAA3F08D828E838FF0020CAF90016DE0FF75F005A489
:2011E700F52485F0257C007D009002BDECF0EDA3F0900005C005C004123C42AA82AB83D0B9
:2012070004D005EA24A3F582EB3400F583E0F8A3E0F9A3E0E8496034EA24A3FAEB3400FBCE
:201227008A828B83A3A3A3E0FFE52424A3FBE5253400FE8B828E83A3A3A3A3E0FEEFB5068C
:2012470004900001220CBC00A00D809D9000002290016DE075F005A424A3FE740035F0FF43
:201267008E828F83A3A3A3A3E0FFBF0103EF8001E4FF7E008F828E83227E007F009002BDB6
:20128700EEF0EFA3F0900005C007C006123C42AC82AD83D006D007EC24A3F582ED3400F5EA
:2012A70083E0F9A3E0FAA3E0E94A700122EC24A3FCED3400FD8C828D83A3A3A3E0FD9001C3
:2012C7006DE075F005A424A3FB740035F0FC8B828C83A3A3A3A3E0FCEDB504657D009001B8
:2012E700EA7403F0E4A3F08C828D83C007C00612184BD006D007900171E0FD04900171F07D
:20130700ED246EFDE43401FC90016DE08D828C83F08E0590016DEDF0ED75F005A424A3FC1D
:20132700740035F0FD8C828D83A3A3A3A3E0FD7C009001EA7401F0E4A3F08D828C8302187E
:201347004B0EBE00010F02128490016DE0FF75F005A424A3FD740035F0FE8D828E83A3A31B
:20136700A3E0FE8E267527007C000FBF00010C9002BDEFF0ECA3F0900005C007C004123C23
:2013870042AA82AB83D004D007EA24A3F582EB3400F583E0F8A3E0F9A3E0E8496052EA2478
:2013A700A3FAEB3400FB8A828B83A3A3A3E0FE7D00B52634EDB527308F0690016DEEF0EEAA
:2013C70075F005A424A3FD740035F0FE8D828E83A3A3A3A3E0FE7D009001EA7401F0E4A32F
:2013E700F08E828D8302184B0FBF00010C0213762290016DE0FF75F005A424A3FD74003591
:20140700F0FE8D828E83A3A3A3E0FD7E007C001FBFFF011CEC30E701229002BDEFF0ECA31A
:20142700F0900005C007C006C005C004123C42AA82AB83D004D005D006D007EA24A3FAEB34
:201447003400FB8A828B83A3A3A3E0FB7A00B50534EAB506308F0390016DEBF0EB75F0057B
:20146700A424A3FA740035F0FB8A828B83A3A3A3A3E0FB7A009001EA7401F0E4A3F08B820D
:201487008A8302184B1FBFFF011C02141B90016DE4F0900171E0FF606B1F900171EFF0EF3B
:2014A700246EF582E43401F583E0FF90016DF0EF75F005A424A3FE740035F0FF8E828F8342
:2014C700A3A3A3A3E0FF7E009001EA7404F0E4A3F08F828E8312184B90016DE075F005A43F
:2014E70024A3FE740035F0FF8E828F83A3A3A3A3E0FF7E009001EA7401F0E4A3F08F828E87
:051507008302184B22D5
:103E2D004D656E75206974656D20636F756E7400D8
:20150C009001B9E4F09001BAF09001BBF09001BCF09001BDF09001BEF09001CBF09001CAC9
:20152C00F09001C9F09001C8F09001CCF09001C7F09001CDF07E007F00EE2498F582EF34F8
:20154C0001F5837420F00EBE00010FC3EE9420EF6480948040E31215678011900009E0C0DF
:20156C00E0A3E0C0E090019875F000229001BA7401F0742AC0E07416C0E07490C0E074017B
:20158C00C0E0121593800E900001E0C0E0A3E0C0E090000122E58124FCF581742AC0E074C2
:2015AC0016C0E0740AC0E0E4C0E01215BB800E900001E0C0E0A3E0C0E090000222E58124E5
:2015CC00FCF581742AC0E07416C0E074E8C0E07403C0E01215E4800E900001E0C0E0A3E0E5
:2015EC00C0E090000322E58124FCF581742AC0E07416C0E074E8C0E07403C0E012160D805E
:20160C000E900001E0C0E0A3E0C0E090000422E58124FCF5811222E2120C0A02171CAF8325
:20162C00E5829001CEF0EFA3F09001CEE0FEA3E0FFBE0105BF0002801BBE0205BF00028081
:20164C0059BE0306BF0003021704BE0406BF0003021710229001BAE0FFBF0103021E22BFBC
:20166C0002199001BBE0600912182E9001BBE4F022121EBB9001BB7401F022BF0302800111
:20168C00229001BBE0600912182E9001BBE4F022121E6E9001BB7401F0221216AB80119088
:2016AC00000BE0C0E0A3E0C0E09001D075F000229001D0E0FEA3E0FF9001B9E0FD7C00EE36
:2016CC00B50505EFB50401229001B9EEF0BE010BBF0008758201120C47801ABE020BBF003A
:2016EC0008758203120C47800CBE0309BF0006758202120C4702171C9001BAE0FFBF0401DB
:20170C0022021F4E9001BAE0FFBF01030220812290018F7410F0E4A3F09001D275F0001295
:20172C0010F87E007F007C007D00EE24D2FAEF3401FB8A828B83E0602A8C0374102BFB33B2
:20174C0095E0FAEB2498FBEA3401FAEE24D2F582EF3401F5830EBE00010FE0F98B828A838D
:20176C00F080178C0374102BFB3395E0FAEB2498F582EA3401F5837420F00CBC00010DC329
:20178C00EC9410ED6480948040A0021799900009E0C0E0A3E0C0E090019875F0002222AF79
:2017AC0083E5829001E8F0EFA3F09001E5E0FDA3E0FEA3E0FF9001E8E0FBA3E0FC9001E3AB
:2017CC00E0F9A3E0FAE92BF9EA3CFAC3EB99EC64808AF063F08095F050338D828E838FF06F
:2017EC00123DE8F8700FEB2498F582EC3401F5837420F08011EB2498F582EC3401F583E8C4
:20180C00F00DBD00010E0BBB00C10C80BE02181C900009E0C0E0A3E0C0E090019875F00022
:20182C0022229001E37410F0E4A3F09001E5743DF0743EA3F07480A3F09000000217ABAF13
:20184C0083E5829001ECF0EFA3F09001ECE0FEA3E0FFC3EE940BEF64809480500122C374E5
:20186C002A9E74808FF063F08095F0500122EE24F5FE240A83F582EE242483F583E473F1B0
:20188C004DBE1266BA0E21211FCA62BC167021212121144B6B8BABCBE805212121CBEB18B5
:2018AC0019191A1A1A1B1E1E191C1B1B1C1C1E1E1E1E1D1D1D1D1D1D1D1E1E1E1E18189027
:2018CC0002A57410F0740EA3F09002A774C7F07401A3F0E4A3F09001C075F00002367D90EE
:2018EC0001CDE4F0229001EAE0FEA3E0FFBE0311BF000E9001BA7402F09001BBE4F00218B3
:20190C002EBE0405BF00028001229001BA7401F002182E9001EAE0FEA3E0FFBE0311BF00FE
:20192C000E9001BA7403F09001BBE4F002182EBE0405BF00028001229001BA7401F002187E
:20194C002E9001EAE0FEA3E0FFBE0205BF00028001221219638011900005E0C0E0A3E0C0D2
:20196C00E09001EE75F000229001F2E0FF9001EE75F000C0071230E5AD82AE83D0077C008E
:20198C00EFB50505ECB50601229001F2E0FF0F9001F2EFF01219A58011900007E0C0E0A3D5
:2019AC00E0C0E09001EE75F000229001BBE4F0021EBB9001EAE0FEA3E0FFBE0205BF000239
:2019CC008001221219D48011900005E0C0E0A3E0C0E09001EE75F000229001F2E0FFBF0168
:2019EC0001221F9001F2EFF01219F98011900007E0C0E0A3E0C0E09001EE75F000229001B1
:201A0C00BBE4F0021EBB9001EAE0FEA3E0FFBE0205BF0002800122121A288011900005E0F2
:201A2C00C0E0A3E0C0E09001EE75F000229001F3E0FFBF0C01220F9001F3EFF0121A4D8015
:201A4C0011900007E0C0E0A3E0C0E09001EE75F000229001BBE4F0021EBB9001EAE0FEA332
:201A6C00E0FFBE0205BF0002800122121A7C8011900005E0C0E0A3E0C0E09001EE75F000FD
:201A8C00229001F3E0FFBF0101221F9001F3EFF0121AA18011900007E0C0E0A3E0C0E09028
:201AAC0001EE75F000229001BBE4F0021EBB9001EAE0FEA3E0FFBE0205BF00028001221293
:201ACC001AD08011900005E0C0E0A3E0C0E09001EE75F000229001F4E0FFBF3201220F902A
:201AEC0001F4EFF0121AF58011900007E0C0E0A3E0C0E09001EE75F000229001BBE4F002F2
:201B0C001EBB9001EAE0FEA3E0FFBE0205BF0002800122121B248011900005E0C0E0A3E062
:201B2C00C0E09001EE75F000229001F4E0FFBF0A01221F9001F4EFF0121B49801190000782
:201B4C00E0C0E0A3E0C0E09001EE75F000229001BBE4F0021EBB9001EAE0FEA3E0FFBE023A
:201B6C0005BF0002800122121B788011900005E0C0E0A3E0C0E09001EE75F000229001EFFC
:201B8C00E0FFBF3B079001EFE4F080060F9001EFEFF0121BA38011900007E0C0E0A3E0C056
:201BAC00E09001EE75F000229001BBE4F0021E6E9001EAE0FEA3E0FFBE0205BF00028001A3
:201BCC0022121BD28011900005E0C0E0A3E0C0E09001EE75F000229001EFE0FF70089001A1
:201BEC00EF743BF080061F9001EFEFF0121BFD8011900007E0C0E0A3E0C0E09001EE75F06E
:201C0C0000229001BBE4F0021E6E9001EAE0FEA3E0FFBE0205BF0002800122121C2C8011F9
:201C2C00900005E0C0E0A3E0C0E09001EE75F000229001F0E0FFBF17079001F0E4F0800642
:201C4C000F9001F0EFF0121C578011900007E0C0E0A3E0C0E09001EE75F000229001BBE483
:201C6C00F0021E6E9001EAE0FEA3E0FFBE0205BF0002800122121C868011900005E0C0E07C
:201C8C00A3E0C0E09001EE75F000229001F0E0FF70089001F07417F080061F9001F0EFF036
:201CAC00121CB18011900007E0C0E0A3E0C0E09001EE75F000229001BBE4F0021E6E900129
:201CCC00EAE0FEA3E0FFBE0205BF0002800122121CE08011900005E0C0E0A3E0C0E090011D
:201CEC00EE75F000229001EEE4F0121CFB8011900007E0C0E0A3E0C0E09001EE75F0002216
:201D0C009001BBE4F0021E6E9001EAE0FEA3E0FFBE031ABF00179001BA7404F012182E90E2
:201D2C000221E4F0903E3E75F080021F03BE0405BF00028001229001BA7401F002182E90D8
:201D4C0001EAE0FEA3E0FFBE0205BF00028001229002217420F0903E4275F080021F039023
:201D6C0001EAE0FEA3E0FFBE0205BF00028001229002217410F0903E4975F080021F03900C
:201D8C0001EAE0FEA3E0FFBE0205BF00028001229002217401F0903E4E75F080021F0390F6
:201DAC0001EAE0FEA3E0FFBE0205BF00028001229002217402F0903E5575F080021F0390CE
:201DCC0001EAE0FEA3E0FFBE024BBF00489002217404F0903E5C75F080021F039001EAE0F1
:201DEC00FEA3E0FFBE022EBF002B9002217408F0903E6375F080021F039001EAE0FEA3E04A
:201E0C00FFBE0211BF000E900221E4F0903E6A75F080021F0322121E278011900005E0C012
:201E2C00E0A3E0C0E09001C075F0002290029874C0F07401A3F0E4A3F090029BF09001F54B
:201E4C0075F0001231F19001E37405F0E4A3F09001E574F5F07401A3F0E4A3F090000B029E
:201E6C0017AB121E738011900005E0C0E0A3E0C0E090020975F000229002987409F07402F9
:201E8C00A3F0E4A3F090029B04F09001FF75F0001231F19001E37410F0E4A3F09001E57499
:201EAC00FFF07401A3F0E4A3F09000000217AB121EC08011900005E0C0E0A3E0C0E0900209
:201ECC001A75F0002290029F741AF07402A3F0E4A3F090021075F0001234409001E37410A1
:201EEC00F0E4A3F09001E57410F07402A3F0E4A3F09000000217ABAFF0AE83E582900222C6
:201F0C00F0EEA3F0EFA3F0900222E0FDA3E0FEA3E0FF9001E37410F0E4A3F09001E5EDF07C
:201F2C00EEA3F0EFA3F09000001217AB900221E0FF021F4090000FE0C0E0A3E0C0E08F82E8
:201F4C002222900225E4F0121F58801190000DE0C0E0A3E0C0E090022575F0002290022557
:201F6C00E0FF9001BCF0530710900226EFF0900225E05420900227F0900225E05404900203
:201F8C0028F0900225E05408900229F0900225E05440FE90022AF0EF7018900227E0701218
:201FAC00900228E0700C900229E0700690022AE0600C90022B7401F090022CF080459002BF
:201FCC002BE4F090022CF09002AF74C7F07401A3F0E4A3F09001C075F0001239CBAE82E57C
:201FEC0083FF20E70D9001C2E0FFBF11028003BF120C9001BF7401F090022CF08005900162
:20200C00BFE4F090022DE4F090022CE0600690022D7420F090022BE0600890022DE043E080
:20202C0010F0900226E0601090022DE043E001F090022DE043E002F0900227E06008900292
:20204C002DE043E004F0900228E0600890022DE043E008F090022DE0FFC00712206C800D04
:20206C0090000FE0C0E0A3E0C0E08F8222D0079001BDEFF0229001BEE0FF60030221339042
:20208C0001BCE0541090023BF09001BCE0542090023CF09001BCE0540490023DF09001BC86
:2020AC00E0540890023EF09001BCE0544090023FF090028F7470F0743EA3F07480A3F09045
:2020CC00022E75F0001230737E00EE243BFCE43402FD8C828D83E0602A8E0574312D90024D
:2020EC0039F090023AE4F09002897439F07402A3F0E4A3F090022E75F000C006122FE3D0F4
:20210C0006801B9002897476F0743EA3F07480A3F090022E75F000C006122FE3D0060EBEA0
:20212C00050040A60222B4BF010280030222489001BDE05401900240F09001BDE0540290C6
:20214C000241F09001BDE05404900242F09001BDE05408900243F090028F7478F0743EA355
:20216C00F07480A3F090022E75F0001230737E00EE2440FCE43402FD8C828D83E0602A8E09
:20218C000574312D900239F090023AE4F09002897439F07402A3F0E4A3F090022E75F000A4
:2021AC00C006122FE3D006801B9002897476F0743EA3F07480A3F090022E75F000C00612FA
:2021CC002FE3D0060EBE040040A69001BDE030E419900289747DF0743EA3F07480A3F090A2
:2021EC00022E75F000122FE380179002897476F0743EA3F07480A3F090022E75F000122F5C
:20220C00E39001BDE030E51A900289747FF0743EA3F07480A3F090022E75F000122FE3025D
:20222C0022B49002897476F0743EA3F07480A3F090022E75F000122FE30222B4BF024F903A
:20224C00028F7481F0743EA3F07480A3F090022E75F0001230739001BFE06019900289741E
:20226C0085F0743EA3F07480A3F090022E75F000122FE38033900289743EF0743EA3F0749F
:20228C0080A3F090022E75F000122FE3801ABF031790028F7488F0743EA3F07480A3F090FA
:2022AC00022E75F0001230739001E3740AF0E4A3F09001E5742EF07402A3F0E4A3F0900057
:1622CC00001217AB9001BEE02401F0E024FC50059001BEE4F0224A
:203E3D00004F666600426F696C65720050756D70005A6F6E652031005A6F6E652032005A16
:203E5D006F6E652033005A6F6E652034005265736574005A6F6E6520005F004F757420004A
:143E7D0050004200485720004F6E003230323030373138008F
:2022E200120A87900173E4F0A3F09001757428F0E4A3F0903E9175F080120B1390017374D9
:2023020028F0E4A3F09001757429F0E4A3F0903E9B75F080120B139001737428F0E4A3F09D
:20232200900175742AF0E4A3F0903EA275F080120B139001737428F0E4A3F090017504F00A
:20234200E4A3F0903EA875F080120B13900173E4F0A3F0900175740AF0E4A3F0903EAF7531
:20236200F080120B13900173740AF0E4A3F0900175740BF0E4A3F0903EB975F080120B134A
:20238200900173740BF0E4A3F0900175740CF0E4A3F0903EC275F080120B13900173740B3C
:2023A200F0E4A3F0900175740DF0E4A3F0903EC775F080120B13900173740BF0E4A3F090A2
:2023C2000175740EF0E4A3F0903ECC75F080120B13900173740BF0E4A3F0900175740FF08A
:2023E200E4A3F0903ED375F080120B13900173740BF0E4A3F09001757410F0E4A3F0903E05
:20240200DA75F080120B13900173740BF0E4A3F09001757411F0E4A3F0903EE075F080124A
:202422000B13900173740BF0E4A3F090017504F0E4A3F0903EA875F080120B13900173741E
:202442000AF0E4A3F09001757414F0E4A3F0903EE675F080120B139001737414F0E4A3F058
:202462009001757416F0E4A3F0903EEF75F080120B139001737414F0E4A3F090017574170D
:20248200F0E4A3F0903EF775F080120B139001737414F0E4A3F09001757418F0E4A3F0907D
:2024A2003EFF75F080120B139001737414F0E4A3F09001757419F0E4A3F0903F0575F08022
:2024C200120B139001737414F0E4A3F09001757415F0E4A3F0903F0B75F080120B13900161
:2024E200737414F0E4A3F090017504F0E4A3F0903EA875F080120B13900173740AF0E4A383
:20250200F090017504F0E4A3F0903EA875F080120B13900173E4F0A3F0900175741EF0E4F6
:20252200A3F0903F1975F080120B13900173741EF0E4A3F0900175741FF0E4A3F0903F2617
:2025420075F080120B13900173741EF0E4A3F09001757420F0E4A3F0903F2D75F080120B68
:2025620013900173741EF0E4A3F09001757421F0E4A3F0903F3275F080120B1390017374B9
:202582001EF0E4A3F09001757422F0E4A3F0903F3975F080120B13900173741EF0E4A3F097
:2025A2009001757423F0E4A3F0903F4075F080120B13900173741EF0E4A3F0900175742456
:2025C200F0E4A3F0903F4775F080120B13900173741EF0E4A3F09001757425F0E4A3F090D4
:2025E2003EA275F080120B13900173741EF0E4A3F090017504F0E4A3F0903EA875F0800219
:022602000B13B8
:203E9100486F74205761746572003120486F75720052657365740052657475726E00536599
:203EB1007420436C6F636B005365742044617465004461792B004461792D004D6F6E74680D
:203ED1002B004D6F6E74682D00596561722B00596561722D005365742054696D65004D6968
:203EF1006E7574652B004D696E7574652D00486F75722B00486F75722D0052657365742074
:203F11005365636F6E64730054657374204F75747075747300426F696C65720050756D70FE
:1D3F3100005A6F6E652031005A6F6E652032005A6F6E652033005A6F6E65203400B9
:20260400C281C283C2827E107F271EBEFF011FEE4F70F753800F4380301226E57EC47F095B
:202624001EBEFF011FEE4F70F753800F4380301226E57E647F001EBEFF011FEE4F70F753B2
:20264400800F4380301226E51226F7E58270F953800F4380201226E51226F7E58270F97582
:20266400822812268175820C12268175820612268175820112268175820002271DE582909C
:202684000244F0C283C28253800F900244E0FF74F05F4280C0071226E5D00753800FEFC40B
:2026A40054F042801226E51226F7E58270F922E582900245F0D283C28253800F900245E072
:2026C400FF74F05F4280C0071226E5D00753800FEFC454F042801226E51226F7E58270F900
:2026E40022D2817EF47F011EBEFF011FEE4F70F7C28122C283D282D281900246E580F0E072
:2027040030E708C281C28275820122C281C28275820022758201022681E582900247F0E0A4
:202724004480F582022681AFF0AE83E582900248F0EEA3F0EFA3F0900248E0FDA3E0FEA3D2
:20274400E0FF90024BEDF0EEA3F0EFA3F07E007F00EE2EFCEF33FDEC244EF582ED343FF57B
:2027640083E493F582C007C00612271DD006D00790024BE0FBA3E0FCA3E0FD79007A008B1F
:20278400828C838DF0123DE8F860288882C007C006C005C004C003C002C0011226B3D0014E
:2027A400D002D003D004D005D006D0070BBB00250C8022758220C007C006C005C004C00391
:2027C400C002C0011226B3D001D002D003D004D005D006D00709B900010AC3E99410EA6450
:2027E400809480409A90024BEBF0ECA3F0EDA3F00EBE00010FC3EE9402EF64809480500353
:042804000227552230
:043F4E00000040002F
:20280800D2B6D2B7227E0A7F001EBEFF011FEE4F70F722D2B712280DC2B612280DC2B702AB
:20282800280DC2B6D2B712280DD2B602280DD2B6D2B712280D30B60790024EE4F080069045
:20284800024E7401F0C2B712280DC2B690024EE0F58222E58290024FF07E007F0090024F14
:20286800E030E704D2B68002C2B6C007C00612280DD2B712280DC2B712280DC2B612280DB0
:20288800D006D00790024FE025E0F00EBE00010FC3EE9408EF6480948040C2022836E582F4
:2028A800900250F0900251E4F07E007F00900251E025E0F0D2B6C2B7C007C00612280DD22B
:2028C800B712280DA2B6E433FDC00512280DC2B712280DD005D006D007900251E04DF00E2A
:2028E800BE00010FC3EE9408EF6480948040BE900250E06004C2B68002D2B612280DD2B758
:2029080012280DC2B712280D900251E0F58222E582900253F0E025E0F0900252E05401FF23
:20292800900253E04FF0E0F58202285BE582900259F012281B900259E0FF900252E4F08F07
:2029480082122917E582700712282A75820022900257E0FEA3E0FF900254E0FBA3E0FCA314
:20296800E0FD79007A00C3E99EEA64808FF063F08095F050418B828C838DF0123DE8F582B8
:20298800C007C006C005C004C003C002C00112285BE582D001D002D003D004D005D006D012
:2029A80007700712282A758200220BBB00010C09B900B30A80B012282A75820122E582901D
:2029C800025FF012281B90025FE0FF9002527401F08F82122917E582700712282A75820094
:2029E8002290025DE0F528A3E0F52990025AE0FBA3E0FCA3E0FD79007A00C3E99528EA64B0
:202A0800808529F063F08095F0504AE52824FFF8E52934FFFFC3E998EA64808FF063F080D2
:202A280095F0E433F582C005C004C003C002C0011228A6AF82D001D002D003D004D0058BF1
:1C2A4800828C838DF0EF123C27A3AB82AC8309B900A80A80A512282A75820122EA
:202A6400E582900260F0E0FF7E009002BF740AF0E4A3F08F828E83C007C006123C62AC82E9
:202A8400D006D00753040F9002C8740AF0E4A3F08F828E83C004123D76AE82D00453060FC9
:202AA400EEC454F0FEEC42068E8222E582900261F0E0FFFD5305F0E4C4CDC4540F6DCD5420
:202AC4000FCD6DCD30E30244F0ED75F00AA4FD740F5F2DF58222AFF0AE83E582900262F0D3
:202AE400EEA3F0EFA3F07E007F00EE2465F582EF3402F583E4F00EBE00010FC3EE9409EF5A
:202B04006480948040E49002547465F07402A3F0E4A3F090025704F0E4A3F0758268122978
:202B24003490025A7465F07402A3F0E4A3F090025D7407F0E4A3F07582681229C5E5827021
:202B440003F58222900262E0FDA3E0FEA3E0FF900265E0FC53047F8C82C007C006C00512E6
:202B64002AAFAC82D005D006D0078D828E838FF0EC123C2774012DFAE43EFB8F0490026684
:202B8400E0F953017F8982C007C006C005C004C003C002122AAFA982D002D003D004D0057B
:202BA400D006D0078A828B838CF0E9123C2774022DFAE43EFB8F04900267E0F953013F8935
:202BC40082C007C006C005C004C003C002122AAFA982D002D003D004D005D006D0078A82B7
:202BE4008B838CF0E9123C2774032DFAE43EFB8F04900268E0F95301078982C007C006C015
:202C040005C004C003C002122AAFA982D002D003D004D005D006D0078A828B838CF0E912C0
:202C24003C2774042DFAE43EFB8F04900269E0F953013F8982C007C006C005C004C003C0D3
:202C440002122AAFA982D002D003D004D005D006D0078A828B838CF0E9123C2774052DFAC9
:202C6400E43EFB8F0490026AE0F953011F8982C007C006C005C004C003C002122AAFA9829C
:202C8400D002D003D004D005D0068A828B838CF0E9123C2774062DFDE43EFE90026BE0F582
:202CA40082C006C005122AAFAC82D005D006D0078D828E838FF0EC123C2775820122AFF0AF
:202CC400AE83E58290026EF0EEA3F0EFA3F0900271E4F090026EE0FDA3E0FEA3E0FF8D829F
:202CE4008E838FF0123DE8F582C007C006C005122A64E582D005D006D007547F900272F0F0
:202D040074012DFAE43EFB8F048A828B838CF0123DE8F582C007C006C005122A64E582D0F6
:202D240005D006D007547F900273F074022DFAE43EFB8F048A828B838CF0123DE8F582C0C4
:202D440007C006C005122A64E582D005D006D007547F4480900274F074032DFAE43EFB8F7D
:202D6400048A828B838CF0123DE8F582C007C006C005122A64E582D005D006D00754079041
:202D84000275F074042DFAE43EFB8F048A828B838CF0123DE8F582C007C006C005122A6443
:202DA400E582D005D006D007543F900276F074052DFAE43EFB8F048A828B838CF0123DE87E
:202DC400F582C007C006C005122A64E582D005D006D007541F900277F074062DFDE43EFE6D
:202DE4008D828E838FF0123DE8F582122A64AF82900278EFF09002547471F07402A3F0E420
:142E0400A3F09002577408F0E4A3F07582680229340228086B
:202E1800AFF0AE83E58290027CF0EEA3F0EFA3F090027F7410F07427A3F090027CE0FDA321
:202E3800E0FEA3E0FF90027FE0FBA3E0FC90027AE0F52AA3E0F52B9002B5EBF0ECA3F085DB
:202E58002A82852B83C007C006C005C004C003123B9AA882AA83D003D004D005D006D0073B
:202E780088017430298D828E838FF0123C27A3AD82AE839002BDEBF0ECA3F088828A83C04D
:202E980007C006C005C004C003123C42A982AA83D003D00490027AE52AC399F0E52B9AA3BE
:202EB800F09002B5740AF0E4A3F08B828C83123B9AE5828583F0D005D006D00790027FF0F9
:202ED800E5F0A3F090027CEDF0EEA3F0EFA3F090027FE0F5F0A3E045F06003022E3D900294
:202EF8007CEDF0EEA3F0EFA3F08D828E838FF0E4023C27AFF0AE83E582900282F0EEA3F0BA
:202F1800EFA3F09002877480F0E4A3F0900282E0FDA3E0FEA3E0FF900287E0FBA3E0FC90AC
:202F38000281E0F97A009002B5EBF0ECA3F089828A83C007C006C005123B9AAB82AC83D085
:202F580005D006D007900285EBF0ECA3F08D008E018F02EB4C60067B317C0080047B307C19
:202F780000888289838AF0EB123C27900285E0FBA3E0900287E0FAA3E0FC8A018BF0E9A4CF
:202F9800FB900281E0C39BF0ECC313CA13CAFC900287EAF0ECA3F00DBD00010E900282ED2C
:202FB800F0EEA3F0EFA3F0900287E0F5F0A3E045F06003022F2F900282EDF0EEA3F0EFA3A9
:202FD800F08D828E838FF0E4023C27AFF0AE83E58290028CF0EEA3F0EFA3F090028CE0FDBE
:202FF800A3E0FEA3E0FF8D828E838FF0123DE860120DBD00010E90028CEDF0EEA3F0EFA387
:20301800F080E390028CEDF0EEA3F0EFA3F0900289E0FAA3E0FBA3E0FC8A828B838CF012AD
:203038003DE8F960218D828E838FF0E9123C27A3AD82AE8390028CEDF0EEA3F0EFA3F00AD1
:20305800BA00D60B80D390028CEDF0EEA3F0EFA3F08D828E838FF0E4023C27AFF0AE83E5CF
:2030780082900292F0EEA3F0EFA3F0900292E0FDA3E0FEA3E0FF8D828E838FF0E4123C27A3
:2030980090028FE0FAA3E0FBA3E0FC8A828B838CF0123DE8F960218D828E838FF0E9123C03
:2030B80027A3AD82AE83900292EDF0EEA3F0EFA3F00ABA00D60B80D3900292EDF0EEA3F050
:0D30D800EFA3F08D828E838FF0E4023C2781
:2030E500AFF0AE83E582900295F0EEA3F0EFA3F0900295E0FDA3E0FEA3E0FF74062DFAE4EE
:203105003EFB8F048A828B838CF0123DE8FA7C0074D02AFB74073CFC74052DFDE43EFE8D2F
:20312500828E838FF0123DE8FF24F350030231EDEF240A83F582EF241183F583E473ED5DE1
:2031450061C5C9CDD1D5D9DDE1E5E93131313131313131313131313190001F229002BF7490
:2031650004F0E4A3F08B828C83C004C003123C62E5828583F0D003D00445F070219002BF6F
:203185007464F0E4A3F08B828C83C004C003123C62E5828583F0D003D00445F0701A900241
:2031A500BF7490F07401A3F08B828C83123C62E5828583F045F0700490001D2290001C22DE
:2031C50090001F2290001E2290001F2290001E2290001F2290001E2290001E2290001E2267
:2031E50090001E2290001F2290FFFF22AFF0AE83E58290029CF0EEA3F0EFA3F090029CE013
:20320500FDA3E0FEA3E0FF900298E0F52CA3E0F52DA3E0F52E7402252CF52FE4352DF530DD
:20322500852E31852F828530838531F0123DE8FB7A009002C8740AF0E4A3F08B828A83C0CC
:2032450007C006C005123D76AA82D005D006D00774302A8D828E838FF0123C2774012DFAE6
:20326500E43EFB8F04852F828530838531F0123DE8F879009002BF740AF0E4A3F088828914
:2032850083C007C006C005C004C003C002123C62A882D002D003D004D005D006D007743092
:2032A500288A828B838CF0123C2774022DFAE43EFB8F048A828B838CF0743A123C27740359
:2032C5002DF52FE43EF5308F317401252CF532E4352DF533852E348532828533838534F032
:2032E500123DE8FB7A009002C8740AF0E4A3F08B828A83C007C006C005123D76AA82D005AC
:20330500D006D00774302A852F828530838531F0123C2774042DFAE43EFB8F048532828597
:2033250033838534F0123DE8F879009002BF740AF0E4A3F088828983C007C006C005C0041F
:20334500C003C002123C62A882D002D003D004D005D006D0077430288A828B838CF0123C5E
:203365002790029BE0701374052DFAE43EFB8F048A828B838CF0E4023C2774052DFAE43EA0
:20338500FB8F048A828B838CF0743A123C2774062DFAE43EFB8F04852C82852D83852EF085
:2033A500123DE8F879009002C8740AF0E4A3F088828983C007C006C005C004C003C002125E
:2033C5003D76A882D002D003D004D005D006D0077430288A828B838CF0123C2774072DFA97
:2033E500E43EFB8F04852C82852D83852EF0123DE8F879009002BF740AF0E4A3F08882899C
:2034050083C007C006C005C004C003C002123C62A882D002D003D004D005D006D007743010
:20342500288A828B838CF0123C2774082DFDE43EFE8D828E838FF0E4023C27AFF0AE83E5F1
:20344500829002A2F0EEA3F0EFA3F09002A2E0FDA3E0FEA3E0FF90029FE0F535A3E0F536C1
:20346500A3E0F53774042535F538E43536F53985373A853882853983853AF0123DE8FB7A4B
:20348500009002C8740AF0E4A3F08B828A83C007C006C005123D76AA82D005D006D0077495
:2034A500302A8D828E838FF0123C2774012DFAE43EFB8F04853882853983853AF0123DE8E7
:2034C500F879009002BF740AF0E4A3F088828983C007C006C005C004C003C002123C62A837
:2034E50082D002D003D004D005D006D0077430288A828B838CF0123C2774022DFAE43EFBB9
:203505008F048A828B838CF0742F123C2774032DF538E43EF5398F3A74052535F53BE4355F
:2035250036F53C85373D853B82853C83853DF0123DE8FB7A009002C8740AF0E4A3F08B82F6
:203545008A83C007C006C005123D76AA82D005D006D00774302A853882853983853AF01285
:203565003C2774042DFAE43EFB8F04853B82853C83853DF0123DE8F879009002BF740AF0F5
:20358500E4A3F088828983C007C006C005C004C003C002123C62A882D002D003D004D005D6
:2035A500D006D0077430288A828B838CF0123C2774052DFAE43EFB8F048A828B838CF07428
:2035C5002F123C2774062DF53BE43EF53C8F3D74062535F538E43536F53985373A85388299
:2035E500853983853AF0123DE8FB7A009002C8740AF0E4A3F08B828A83C007C006C005126D
:203605003D76AA82D005D006D00774302A853B82853C83853DF0123C2774072DFAE43EFB0A
:203625008F04853882853983853AF0123DE8F879009002BF740AF0E4A3F088828983C00708
:20364500C006C005C004C003C002123C62A882D002D003D004D005D006D0077430288A82E4
:203665008B838CF0123C2774082DFDE43EFE8D828E838FF0E4023C27AFF0AE83E5829002CF
:20368500AAF0EEA3F0EFA3F09002A7E0FDA3E0FEA3E0FF74042DF53EE43EF53F8F409002E0
:2036A500AAE0F541A3E0F542A3E0F54374042541FAE43542FBAC438A828B838CF0123DE8E6
:2036C500853E82853F838540F0123C2774032DF544E43EF5458F4674032541F8E43542F9F8
:2036E500AC43888289838CF0123DE88544828545838546F0123C2774022DF544E43EF5450D
:203705008F4674022541F8E43542F9AC43888289838CF0123DE88544828545838546F0128A
:203725003C2774012DF547E43EF5488F4974012541F8E43542F9AC43888289838CF0123D15
:20374500E88547828548838549F0123C2774052DF54AE43EF54B8F4C74052541F8E4354257
:20376500F9AC43888289838CF0123DE8854A82854B83854CF0123C2785418285428385435F
:20378500F0123DE88D828E838FF0123C2774062DF54AE43EF54B8F4C74062541F8E4354293
:2037A500F9AC43888289838CF0123DE8F8854A82854B83854CF0123C279002A5E0FBA3E0EC
:2037C500FC9002ADEBF0ECA3F08D028E038F049002ADE0F8A3E0F9C3E498748089F063F00A
:2037E5008095F0400122C002C003C0048D828E838FF0123DE8FC7B00743CC39CF54AE49BF9
:20380500F54BC3E8954AE96480854BF063F08095F0D004D003D00250028004A84AA94BC0FF
:2038250002C003C0048D828E838FF0123DE8FC8803EB2C8D828E838FF0123C279002ADE053
:20384500FBA3E0FC9002ADEBC398F0EC99A3F08D828E838FF0123DE8FCBC3C028009D00433
:20386500D003D0020237D4D004D003D0028D828E838FF0E4123C278547828548838549F0C4
:20388500123DE8F9098547828548838549F0E9123C27B93C0280030237D48547828548830B
:2038A5008549F0E4123C278544828545838546F0123DE8F9098544828545838546F0E91212
:2038C5003C27B9180280030237D48544828545838546F0E4123C27853E82853F838540F030
:2038E500123DE8F909853E82853F838540F0E9123C278D828E838FF0C007C006C005C00436
:20390500C003C0021230E5A882A983D002D003D004D005D006D00774042AF54AE43BF54B65
:203925008C4CC002C003C004854A82854B83854CF0123DE8FC7B00C3E89CE964808BF0635C
:20394500F08095F0D004D003D00240030237D4854A82854B83854CF07401123C2774052AB2
:20396500F54AE43BF54B8C4C854A82854B83854CF0123DE8F909854A82854B83854CF0E9E0
:20398500123C27B90C0280030237D4C005C006C007854A82854B83854CF07401123C277441
:2039A500062AF8E43BF98C07888289838FF0123DE8FE0E888289838FF0EE123C27D007D0B8
:2039C50006D0050237D4AFF0AE83E5829002B2F0EEA3F0EFA3F09002B2E0F552A3E0F55356
:2039E500A3E0F55474062552FAE43553FBAC548A828B838CF0123DE8F54E9002AFE0F54F2F
:203A0500A3E0F550A3E0F5517406254FF8E43550FBAC5188828B838CF0123DE8FCB54E02FD
:203A25008003023B8A74052552F9E43553FAAB5489828A838BF0123DE8FB7405254FF8E45B
:203A45003550F9AA51888289838AF0123DE8FAEBB502028003023B7B74042552F8E43553F5
:203A6500F9AF54888289838FF0123DE8FF7404254FF9E43550FDAE5189828D838EF0123D48
:203A8500E8FEEFB506028003023B6974022552F8E43553F9AD54888289838DF0123DE8F55C
:203AA500557402254FF8E43550F9AD51888289838DF0123DE8FDB555028003023B51740111
:203AC5002552F556E43553F5578554588556828557838558F0123DE8F5567401254FF559F4
:203AE500E43550F55A85515B855982855A83855BF0123DE8F559B5563E855282855383853F
:203B050054F0123DE8F8854F828550838551F0123DE8F559E8B55904900000228852E4F5D5
:203B250053F55AE552C39559F559E553955AF55A855982855A8322755700A8597900E556CD
:203B4500C398F8E55799F98882898322855559755A008D017D00E559C399F9E55A9DFD8905
:203B6500828D83227D008E017E00EFC399FFED9EFD8F828D8322E4FFFEEBC39AFBEF9EFF3D
:153B85008B828F8322AE4EE4FFFDEEC39CFEEF9D8E82F583228D
:203B9A00AF83E5829002B7F0EFA3F09002B9E4F0A3F09002B5E0FEA3E0FF7D109002B7E0A8
:203BBA00FBA3E0FC9002BB235401F0EB2BFBEC33FC9002B7EBF0ECA3F09002B9E0FBA3E044
:203BDA00FCEB2BFBEC33FC9002B9EBF0ECA3F09002BBE060089002B9E043E001F09002B9DF
:203BFA00E0FBA3E0FCC3EB9EEC9F40139002B9EBC39EF0EC9FA3F09002B7E043E001F0DD68
:0D3C1A009B9002B7E0FEA3E08E82F58322AE
:06003500E4787FF6D8FD1F
:200013007900E94400601B7A00903F5278CC75A002E493F2A308B8000205A0D9F4DAF27535
:02003300A0FF2C
:1B3C270020F71130F6138883A88220F509F6A8837583002280FEF280F5F0229C
:203C4200AA83AB828BF09002BDE0A4F8A9F08AF0E0A429F98BF0A3E0A429F5838882222278
:203C6200AF83E5829002C1F0EFA3F09002C1E0FEA3E0FF30E709C3E49EFCE49FFD80048E3E
:203C8200048F059002BFE0FEA3E0FF30E709C3E49EFAE49FFB80048E028F039002C3EAF027
:203CA200EBA3F08C828D83123CCAAE82AF839002C1E0A3E030E70CC3E49EFCE49FFD8C8244
:083CC2008D83228E828F832284
:203CCA00AF83E5829002C5F0EFA3F09002C7E4F09002C5E0FEA3E0FF7D009002C3E0FBA344
:203CEA00E0FC235401FA7036EB2BFBEC33FC9002C3EBF0ECA3F09002C3E0FBA3E0FCC3EE8B
:203D0A009BEF9C5011ECC313CB13CBFC9002C3EBF0ECA3F080080D9002C7EDF080BC900263
:203D2A00C7E0FF9002C5E0FDA3E0FE9002C3E0FBA3E0FCC3ED9BEE9C400B9002C5EDC39BAD
:203D4A00F0EE9CA3F09002C3E0FDA3E0C313CD13CDFE9002C3EDF0EEA3F08F061FEE70C38E
:0C3D6A009002C5E0FEA3E08E82F58322EB
:203D7600AF83E5829002CAF0EFA3F09002CAE0FEA3E0FF30E709C3E49EFCE49FFD80048E17
:203D9600048F059002C8E0FEA3E0FF33E433FB6009C3E49EF9E49FFA80048E018F0290021C
:203DB600B5E9F0EAA3F08C828D83C003123B9AAE82AF83D0039002CAE0A3E033E4336B6011
:123DD6000CC3E49EFCE49FFD8C828D83228E828F83228A
:20003B007800E84400600A790175A000E4F309D8FC78CBE84402600C7903900001E4F0A3F3
:04005B00D8FCD9FAFA
:0D00060075815B123E04E582600302000379
:1C3DE80020F71430F6148883A88220F507E6A88375830022E280F7E49322E022EA
:043E040075820022A1
:00000001FF
