:03000000020008F3
:0300610002000397
:0500030012006480FE04
:10006400758F0112022612158F020070C00CE581F3
:10007400F50C240AF581A80C08E4F608F67C007D4A
:1000840000A80C08C3E6940A08E664809480400340
:10009400020202EC2412FEED3400FFE50C2403F806
:1000A400A60608A607087600E50C2403F88682084D
:1000B40086830886F0E50C2406F912367FF7A3122E
:1000C400367F09F7E50C2406F8E6084670030201BA
:1000D400B4C004C005E50C2403F8740226FBE4084C
:1000E40036FC0886058B828C838DF012367FFBA349
:1000F40012367FFCE50C2403F8E50C2408F974049B
:1001040026F7E4083609F70809E6F7E50C2408F8A9
:1001140086820886830886F012367FFDA312367F16
:10012400FAC3ED9BEA64808CF063F08095F0D0050F
:10013400D00450030201B4E50C2403F8740626FA33
:10014400E40836FB0886068A828B838EF012367F9B
:10015400605EE50C2408F886820886830886F0E44D
:10016400123533A3E4123533E50C2403F87407265F
:10017400FAE40836FB0886068A828B838EF01236F0
:100184007FFAA312367FFBC002C003C004C005740B
:10019400AAC0E07401C0E0C002C003E50C2406F864
:1001A400868208868322D005D004D003D002803B07
:1001B400C004C005E50C2403F8740426FAE40836E8
:1001C400FB0886068A828B838EF012367FFFA31289
:1001D400367FFC0FBF00010C8A828B838EF0EF12F6
:1001E4003533A3EC123533D005D00474092CFCE468
:1001F4003DFDA80C0806B6000208060200857AE850
:100204007B037C007D001ABAFF091BBBFF051CBCE5
:10021400FF011DEA4B4C4D70ED02007A850C81D034
:100224000C227A007B007C007D00C3EA940AEB6414
:10023400809480501CEC2412F582ED3400F583E4A4
:10024400F0A3F074092CFCE43DFD0ABA00DC0B8039
:10025400D97AC77B02900000EAF0A3EBF07AC57B61
:1002640003900002EAF0A3EBF07A847B049000048C
:10027400EAF0A3EBF07A817B04900006EAF0A3EBAA
:10028400F07A7E7B04900008EAF0A3EBF07A877B97
:100294000490000AEAF0A3EBF07A247B0590000CAA
:1002A400EAF0A3EBF07A527B0590000EEAF0A3EBA0
:1002B400F07A567B05900010EAF0A3EBF01229883F
:1002C4000231CBC00C85810CC082C08305810581BD
:1002D4007C007D007E007F007A007B00C3EE940AE0
:1002E400EF6480948040030203A6EA2412F582EBB3
:1002F4003400F583E50C2403F8E0F6A3E008F6E502
:100304000C2403F8E60846601AE50C2403F8A90C4B
:100314000986F0E7B5F00A0886F009E7B5F002802F
:1003240002806C90027CECF0A3EDF0900009123591
:100334004CAA82AB83EA2412F582EB3400F583A83D
:100344000C08E6F0A308E6F0EA2412FAEB3400FB0A
:100354008A828B83A3A3E50C24FCF8E6F0A308E6C9
:10036400F08A828B83A3A3A3A3E4F0A3F074062AE8
:10037400F582E43BF5837401F074072AF582E43BCB
:10038400F583E50C24FAF8E6F0A308E6F0802C7473
:10039400092AFAE43BFB0EBE00010F8E048F05020E
:1003A40002E074BFC0E07403C0E0900010E0C0E05D
:1003B400A3E0C0E090369F75F08022850C81D00CBC
:1003C40022C00CE581F50C2404F581AA82AB837C60
:1003D400007D007E007F00A80C08E4F608F6C3EE5A
:1003E400940AEF648094804003020478A80C08E621
:1003F4002412F58208E63400F583E50C2403F8E0C2
:10040400F6A3E008F6E50C2403F8E608466012E5D6
:100414000C2403F8E6B5020708E6B503028002805F
:100424003C90027CECF0A3EDF090000912354CAA4C
:1004340082AB83E50C2403F8EA2412F6EB340008BB
:10044400F6E50C2403F8740626FAE40836FBE50CFA
:1004540024FCF886048A828B83ECF08017A80C08AD
:10046400740926F6E40836F60EBE00010F8E048FDA
:10047400050203E2850C81D00C22022AB9023078ED
:10048400022E89C00C85810CC082C083C0F0A80CE8
:100494000886820886830886F0E4123533A3E412C2
:1004A40035337D007B00BB0400506F8BF005F07486
:1004B400808002C313D5F0FBF4FF740F4FF5907FD7
:1004C400007A00BA0400504DC007E590F4FF8AF0AA
:1004D40005F07401800225E0D5F0FBFE5207EFD051
:1004E40007602DED75F004A4FEAAF08F037C00EBE9
:1004F4002EFEEC3AFA0EBE00010AA80C0886820809
:1005040086830886F0EE123533A3EA123533800A67
:100514000A8A0780AE0B8B05808C850C81D00C2257
:10052400AA82AB83ACF075B0FC743C55B08A828B64
:10053400838CF0123533F4FD8A828B838CF0123570
:10054400335305BF8A828B838CF0ED023533858269
:10055400A022C00CE581F50C2422F581AA82AB838C
:10056400ACF0AD0C0D7E007F00C3EE9420EF6480F0
:10057400948050348A828B838CF0E50C2422F81208
:10058400367FF6E50C2422F8E66011EE2DF8E50C32
:100594002422F9E7F60ABA00080B8005EE2DF87656
:1005A400200EBE00C40F80C17A007B408D828A83F6
:0D05B4008BF0122AB980FE850C81D00C223C
:0C369F004F75744F6654696D65727300BE
:1005C100900091742DF0900092742FF0900093742C
:1005D1007CF0900094745CF0900095742EF0900083
:1005E10096742EF0900097E4F07A007B00C3EA94B1
:1005F10020EB648094805014EA246CF582EB340083
:10060100F583742EF00ABA00E40B80E190008CE4CB
:10061100F0742BC0E07406C0E0900008E0C0E0A3D5
:10062100E0C0E090006C75F00022900098E4F0A327
:10063100F0E490006CE4F0900098E0FAA3E0FBEAAB
:100641002491F582EB3400F583E0FC900095F0BA3B
:10065100030CBB0009900098E4F0A3F0800B90001C
:100661009874012AF0E43BA3F090026974ABF0A303
:100671007436F0A37480F090006C75F0001233971B
:100681009002697495F0A37400F0A3E4F090006CFB
:1006910075F00012339790026974BAF0A37436F0C2
:1006A100A37480F090006C75F00012339774C7C08A
:1006B100E07406C0E090000CE0C0E0A3E0C0E09070
:1006C100008F75F0002290008FE0FA74105AFBE45D
:1006D100BB00010490009AF074205AFBE4BB0001B6
:1006E10004FB90009BF0530204E4BA000104900063
:1006F1009CF0740CC0E07407C0E090000AE0C0E018
:10070100A3E0C0E090008D75F0002290008DE0FA2A
:10071100A3E0FBBA0105BB00028010BA0205BB00D1
:10072100028010BA031BBB0018801090009A74015C
:10073100F0800E90009B7401F0800690009C740183
:10074100F090009AE0601990026974BCF0A37436CD
:10075100F0A37480F090006C75F00012339780174D
:1007610090026974BAF0A37436F0A37480F090001B
:100771006C75F00012339790009BE060199002694C
:1007810074BCF0A37436F0A37480F090006C75F023
:1007910000123397801790026974BAF0A37436F08F
:1007A100A37480F090006C75F00012339790009C58
:1007B100E0601990026974BCF0A37436F0A37480F0
:1007C100F090006C75F000123397801790026974F5
:1007D100BAF0A37436F0A37480F090006C75F00049
:1007E10012339790009AE0700990009BE07003FA31
:1007F10080027A01EA700990009CE07003FA80029D
:100801007A0190009DEAF090009AE0700990009BB7
:10081100E07003FA80027A01EA700990009CE070AE
:1008210003FA80027A0190009EEAF090009AE0902B
:10083100009FF090009BE09000A0F090009CE09061
:1008410000A1F090008DE0FAA3E0FBBA0505BB0022
:10085100028020BA0605BB00028020BA0905BB0050
:10086100028020BA0A05BB00028020BA0B2BBB0014
:1008710028802090009D7401F0801E90009E7401DC
:10088100F0801690009F7401F0800E9000A074011A
:10089100F080069000A17401F090026974BAF0A38F
:1008A1007436F0A37480F090006C75F000123397E9
:1008B10090009DE0FA601D90026974BEF0A3743649
:1008C100F0A37480F090006C75F000C002123397B1
:1008D100D002801B90026974C1F0A37436F0A37436
:1008E10080F090006C75F000C002123397D0029036
:1008F100009EE0FB602190026974BEF0A37436F0A3
:10090100A37480F090006C75F000C002C003123334
:1009110097D003D002801F90026974C1F0A374368E
:10092100F0A37480F090006C75F000C002C0031257
:100931003397D003D00290026974BAF0A37436F0F1
:10094100A37480F090006C75F000C002C0031233F4
:1009510097D003D00290009FE0602190026974BC9F
:10096100F0A37436F0A37480F090006C75F000C0B1
:1009710002C003123397D003D002801F9002697422
:10098100BAF0A37436F0A37480F090006C75F00097
:10099100C002C003123397D003D0029000A0E060E0
:1009A1002190026974BCF0A37436F0A37480F090B6
:1009B100006C75F000C002C003123397D003D0025F
:1009C100801F90026974BAF0A37436F0A37480F0AA
:1009D10090006C75F000C002C003123397D003D0B1
:1009E100029000A1E0602190026974BCF0A374360A
:1009F100F0A37480F090006C75F000C002C0031287
:100A01003397D003D002801F90026974BAF0A374A7
:100A110036F0A37480F090006C75F000C002C00342
:100A2100123397D003D002C002C0037445C0E074F2
:100A31000AC0E0900008E0C0E0A3E0C0E090006CD4
:100A410075F00022D003D002900090E4F090009F56
:100A5100E060069000907401F09000A0E0600890C2
:100A61000090E0FC4402F09000A1E060089000904A
:100A7100E0FC4404F0EB6008900090E0FB4410F0CF
:100A8100EA6008900090E0FA4420F0900090E0FACB
:100A910074A6C0E0740AC0E090000EE0C0E0A3E0DC
:100AA100C0E08A82227A407B0D7C037D001ABAFF66
:100AB100091BBBFF051CBCFF011DEA4B4C4D70ED32
:030AC100020633F7
:1036AB005A31323320422050204131323320002016
:0936BB00002A002A200020200052
:100AC400900138E4F0A3F0020ACE900138E0FAA3D2
:100AD400E0FB90027CEAF0A3EBF090000512354CA9
:100AE400AA82AB83EA24A2FAEB3400FB8A828B83CA
:100AF400A3A3A3A3E4F08A828B83E4F0A3F0A3F07E
:100B04008A828B83A3A3A3E4F022AAF0AB83E582B9
:100B1400900144F0A3EBF0A3EAF0900138E0FAA3CB
:100B2400E0FB90027CEAF0A3EBF0900005C002C069
:100B34000312354CAC82AD83D003D002EC24A2FC6A
:100B4400ED3400FD74042CFEE43DFF900142E0F816
:100B5400A3E0F98E828F83E8F0900144E0FEA3E0E5
:100B6400FFA3E0F88C828D83EEF0A3EFF0A3E8F00E
:100B740074032CFCE43DFD900140E0FEA3E0FF8CF7
:100B8400828D83EEF090013874012AF0E43BA3F0E7
:100B9400900138E0FAA3E0FB0ABA00010BC3741E0B
:100BA4009A74808BF063F08095F0501974C9C0E09A
:100BB400740BC0E0900010E0C0E0A3E0C0E0903609
:100BC400C475F08022020ACE90013AE4F090013B11
:100BD400F090013EF090013FF090013AE075F0058D
:100BE400A424A2FAE43400FB8A828B83A3A3A3A3E4
:100BF400E0FA3395E0FB9001B07401F0A3E4F08ACD
:100C0400828B830218C6E582900147F0FABA01028A
:100C1400800DBA02028005BA035380060213B5029E
:100C2400146712123BE5828583F045F060030212DB
:100C3400E01212B9E5828583F045F0600302150BDA
:100C440090013AE075F005A424A2FAE43400FB8A8A
:100C5400828B83A3A3A3A3E0FA3395E0FB9001B0B6
:100C64007402F0A3E4F08A828B830218C622AAF0ED
:100C7400AB83E58290014CF0A3EBF0A3EAF0900182
:100C84003AE0F52775F005A424A2FBE43400FC8BBC
:100C9400828C83A3A3A3E0FB3395E0FC900150E492
:100CA400F0A3F090014AE0FDA3E0FE900148E0FFCC
:100CB400A3E0F8E4F521F522C003C00490027CE52A
:100CC40021F0A3E522F0900005C003C004C005C0D4
:100CD40006C007C00012354C858223858324D000CA
:100CE400D007D006D005D004D003E52324A2F58292
:100CF400E5243400F583E0F9A3E0FBA3E0FCB900AC
:100D04000BBB0008BC0005D004D00322D004D003E0
:100D1400E52324A2F9E5243400FA89828A83A3A373
:100D2400A3E0FA3395E0F9EAB50306E9B5040280D5
:100D340003020F4DE527F5233395E0F524E523B5AC
:100D4400210DE524B5220890014F745BF0800690D4
:100D5400014F7420F0900150E0F525A3E0F526C37F
:100D6400E5259FE526648088F063F08095F0405384
:100D7400E5259DE52664808EF063F08095F0504370
:100D8400C003C00490014CE0F9A3E0FBA3E0FC9095
:100D9400014FE089828B838CF012353390014C74BF
:100DA4000129F0E43BA3F0A3ECF090014CE0FAA39A
:100DB400E0FBA3E0FC8A828B838CF0E4123533D011
:100DC40004D003C003C004900150E02401F0A3E068
:100DD4003400F0AA21A92290027CE521F0A3E522A7
:100DE400F0900005C002C005C006C007C000C001E5
:100DF40012354CAB82AC83D001D000D007D006D0E2
:100E040005D002EB24A2F582EC3400F583E0F5284A
:100E1400A3E0F529A3E0F52AD004D00390014CE027
:100E2400F52BA3E0F52CA3E0F52D900150E0F5257A
:100E3400A3E0F526852882852983852AF012367F4A
:100E4400F52E6063C3E5259FE526648088F063F092
:100E54008095F04040E5259DE52664808EF063F0A2
:100E64008095F05030852B82852C83852DF0E52EDE
:100E7400123533A385822B85832C90014CE52BF00E
:100E8400A3E52CF0A3E52DF0852B82852C83852DFD
:100E9400F0E41235330525E4B5250205260528E4DA
:100EA400B528910529808D90014CE52BF0A3E52C04
:100EB400F0A3E52DF0900150E525F0A3E526F0EA36
:100EC400B5230CE9B5240890014F745DF0800690B9
:100ED400014F7420F0900150E0FAA3E0F9C3EA9FB7
:100EE400E9648088F063F08095F04051EA9DE964FC
:100EF400808EF063F08095F05043C003C0049001ED
:100F04004CE0FAA3E0F9A3E0FB90014FE08A828968
:100F1400838BF012353390014C74012AF0E439A329
:100F2400F0A3EBF090014CE0FAA3E0FBA3E0FC8A11
:100F3400828B838CF0E4123533D004D003900150BB
:100F4400E02401F0A3E03400F00521E4B52102051A
:100F540022020CBCAA83E582900158F0A3EAF09027
:100F64000152E0FAA3E0FBA3E0FC8A828B838CF0BD
:100F7400E4123533A3E4123533900155E0F52FA381
:100F8400E0F530A3E0F531852F828530838531F09B
:100F9400E4123533A3E412353390015AE4F0A3F09C
:100FA400900158E0F8A3E0F990027CE8F0A3E9F09E
:100FB400900005C002C003C004C000C00112354C3B
:100FC400AD82AE83D001D000D004D003D002ED2492
:100FD400A2FDEE3400FE8D828E83A3A3A3E0FD8DDB
:100FE400363395E0F537E4F532F53390027CE5329B
:100FF400F0A3E533F0900005C002C003C004C000B4
:10100400C00112354C858234858335D001D000D09F
:1010140004D003D002E53424A2F582E5353400F58A
:1010240083E0FFA3E0FDA3E0FEBF0007BD0004BE14
:10103400000122C002C003C004E53424A2FFE53548
:101044003400FA8F828A83A3A3A3E0FA3395E0FBEA
:10105400EAB53606EBB537028009D004D003D002D6
:10106400021145D004D003D002E8B5321BE9B533F0
:101074001790015AE0FFA3E0FD8A828B838CF0EF86
:10108400123533A3ED123533C002C003C0049001FE
:101094005AE02401F0A3E03400F0AD32AE33900204
:1010A4007CE532F0A3E533F0900005C003C004C032
:1010B40005C006C000C00112354CAF82AA83D0011E
:1010C400D000D006D005D004D003EF24A2F582EAE4
:1010D4003400F583E0F538A3E0F539A3E0F53AD020
:1010E40004D003D00290015AE0F534A3E0F535852D
:1010F4003882853983853AF012367F60120534E4EC
:10110400B5340205350538E4B538E4053980E09096
:10111400015AE534F0A3E535F0EDB50018EEB5015C
:1011240014852F828530838531F0E534123533A35D
:10113400E53512353390015AE02401F0A3E0340080
:10114400F00532E4B532020533020FEFAAF0AB83A7
:10115400E58290015EF0A3EBF0A3EAF090015EE07B
:10116400FAA3E0FBA3E0FC8A828B838CF0E41235C3
:101174003390013AE0FDBDFF0122ED3395E0FE908E
:1011840001527461F0A37401F0A3E4F0900155746A
:1011940063F0A37401F0A3E4F08D828E83C002C0D7
:1011A40003C004120F58D004D003D00290013FE0D2
:1011B400FD900161E0FEA3E0FFED3395E0F8C3EE9E
:1011C4009DEF648088F063F08095F0500790013FB4
:1011D400EEF0803390015CE0FEA3E0FFEE2DFDEF26
:1011E40038F8900163E0F53BA3E0F53CC3ED953B93
:1011F400E86480853CF063F08095F0500AE53BC3D9
:101204009E04FD90013FF090013FE0FD3395E0FE28
:1012140090015CE0FFA3E0F8EF2DFFE83EF89001B9
:1012240048EDF0A3EEF090014AEFF0A3E8F08A82D3
:101234008B838CF0020C7290013AE075F005A4FAED
:101244007B007C0090027CEBF0A3ECF0900005C0E6
:1012540002C003C00412354CAD82AE83D004D00367
:10126400D002ED24A2F582EE3400F583E0FFA3E082
:10127400F8A3E0F9BF0008B80005B900028032ED18
:1012840024A2FDEE3400FE8D828E83A3A3A3E0FD91
:10129400EA24A2FEE43400FF8E828F83A3A3A3A3D7
:1012A400E0FEEDB50604900001220BBB00960C8015
:1012B400939000002290013AE075F005A424A2FA6C
:1012C400E43400FB8A828B83A3A3A3A3E0FAE4BAE9
:1012D400FF0104FA3395E08A82F583227A007B00C9
:1012E40090027CEAF0A3EBF0900005C002C0031268
:1012F400354CAC82AD83D003D002EC24A2F582ED50
:101304003400F583E0FEA3E0FFA3E0F8EE4F48705D
:101314000122EC24A2FCED3400FD8C828D83A3A376
:10132400A3E0FC90013AE075F005A424A2FDE434A6
:1013340000FE8D828E83A3A3A3A3E0FDECB5056913
:10134400ED3395E0FC9001B07403F0A3E4F08D82DA
:101354008C83C002C0031218C6D003D00290013E91
:10136400E0FC0490013EF0EC243BFCE43401FD90ED
:10137400013AE08C828D83F08A0490013AECF0EC1F
:1013840075F005A424A2FCE43400FD8C828D83A3B3
:10139400A3A3A3E0FC3395E0FD9001B07401F0A396
:1013A400E4F08C828D830218C60ABA00010B021283
:1013B400E490013AE0FA75F005A424A2FBE43400B9
:1013C400FC8B828C83A3A3A3E0FB8B3D3395E0F5D8
:1013D4003EEA3395E0FD0ABA00010D90027CEAF082
:1013E400A3EDF0900005C002C00512354CAE82AFEB
:1013F40083D005D002EE24A2F582EF3400F583E019
:10140400F8A3E0F9A3E0FBE8494B6056EE24A2FE02
:10141400EF3400FF8E828F83A3A3A3E0FB3395E018
:10142400FCEBB53D35ECB53E318A0390013AEBF067
:10143400EB75F005A424A2FBE43400FC8B828C83BE
:10144400A3A3A3A3E0FB3395E0FC9001B07401F0E7
:10145400A3E4F08B828C830218C60ABA00010D0241
:1014640013DF2290013AE0FA75F005A424A2FBE40C
:101474003400FC8B828C83A3A3A3E0FB3395E0FCB4
:10148400EA3395E0FD1ABAFF011DED30E701229021
:10149400027CEAF0A3EDF0900005C002C003C00492
:1014A400C00512354CAE82AF83D005D004D003D032
:1014B40002EE24A2FEEF3400FF8E828F83A3A3A347
:1014C400E0FE3395E0FFEEB50335EFB504318A064F
:1014D40090013AEEF0EE75F005A424A2FEE4340087
:1014E400FF8E828F83A3A3A3A3E0FE3395E0FF9036
:1014F40001B07401F0A3E4F08E828F830218C61A3F
:10150400BAFF011D02148E90013AE4F090013EE00E
:10151400FAC374808AF063F08095F0506D1A9001DC
:101524003EEAF0EA243BF582E43401F583E0FA90E4
:10153400013AF0EA75F005A424A2FAE43400FB8A27
:10154400828B83A3A3A3A3E0FA3395E0FB9001B0BD
:101554007404F0A3E4F08A828B831218C690013AD3
:10156400E075F005A424A2FAE43400FB8A828B839C
:10157400A3A3A3A3E0FA3395E0FB9001B07401F0B8
:0B158400A3E4F08A828B830218C622C9
:1036C4004D656E75206974656D20636F756E740049
:10158F00900186E4F0900187F0900188F090018936
:10159F00F090018AE4F090018BF07A007B00C3EAAF
:1015AF009420EB648094805014EA2465F582EB3428
:1015BF0001F5837420F00ABA00E40B80E174E5C0F2
:1015CF00E07415C0E0900008E0C0E0A3E0C0E09038
:1015DF00016575F000229001877401F074A3C0E0DB
:1015EF007416C0E07490C0E07401C0E07411C0E0E4
:1015FF007416C0E0900000E0C0E0A3E0C0E09000EF
:10160F000122E58124FCF58174A3C0E07416C0E0CB
:10161F007432C0E0E4C0E0743CC0E07416C0E090E7
:10162F000000E0C0E0A3E0C0E090000222E58124CA
:10163F00FCF58174A3C0E07416C0E074E8C0E074D8
:10164F0003C0E07468C0E07416C0E0900000E0C012
:10165F00E0A3E0C0E090000322E58124FCF5817453
:10166F00A3C0E07416C0E074E8C0E07403C0E07477
:10167F0094C0E07416C0E0900000E0C0E0A3E0C0AA
:10168F00E090000422E58124FCF5811226CF120B95
:10169F00CC021793AA83E582900194F0A3CAF0FBC2
:1016AF00BA0105BB0002801BBA0205BB0002805BBA
:1016BF00BA0306BB000302177BBA0406BB00030282
:1016CF00178722900187E0FABA010302212BBA0291
:1016DF001A900188E0FB60091218A9900188E4F0C4
:1016EF00221221CB9001887401F022BA03028001EB
:1016FF0022900188E0FA60091218A9900188E4F09D
:10170F002212217A9001887401F0227433C0E074A0
:10171F0017C0E090000AE0C0E0A3E0C0E09001969F
:10172F0075F00022900196E0FAA3E0FB900186E0AD
:10173F00FC7D00EAB50405EBB5050122900186EAB0
:10174F00F0BA010BBB0008758201120C0A801ABA9D
:10175F00020BBB0008758203120C0A800CBA030936
:10176F00BB0006758202120C0A021793900187E0E4
:10177F00FABA04012202237B900187E0FABA01032F
:10178F000224902290015C7410F0A3E4F090019871
:10179F0075F0001211507A007B007C007D00C3ECC5
:1017AF009410ED64809480504FEA2498FEEB34013E
:1017BF00FF8E828F83E060288C0674102E2465FEC6
:1017CF00E43401FF8A008B010ABA00010BE8249868
:1017DF00F582E93401F583E0F88E828F83F0801172
:1017EF008C0674102E2465F582E43401F583742081
:1017FF00F00CBC00A90D80A67420C0E07418C0E0E6
:10180F00900008E0C0E0A3E0C0E090016575F00033
:10181F002222AA83E5829001AEF0A3EAF09001ABF9
:10182F00E0FAA3E0FBA3E0FC9001AEE0FDA3E0FE35
:10183F009001A9E0FFA3E0F8EF2DFFE83EF8C3ED1C
:10184F009FEE648088F063F08095F050338A828B2E
:10185F00838CF012367FF9700FED2465F582EE342C
:10186F0001F5837420F08011ED2465F582EE3401CB
:10187F00F583E9F00ABA00010B0DBD00C10E80BE61
:10188F0074A8C0E07418C0E0900008E0C0E0A3E0C6
:10189F00C0E090016575F00022229001A97410F04C
:1018AF00A3E4F09001AB74D4F0A37436F0A374806A
:1018BF00F0900000021821AA83E5829001B2F0A3F4
:1018CF00CAF0FBC3EA940BEB64809480500122C3EF
:1018DF0074259A74808BF063F08095F0500122EAA2
:1018EF0024F5FA240983C0E0EA241E83C0E02234E1
:1018FF00900761BB156FA6A66249C92989E9A6A6FB
:10190F00A6A699D0F01030506D8A19191A1A1A1B01
:10191F001B1E1E191D1B1C1C1C1E1E1E1E1D1D1DED
:10192F001E1E1E1E1E9001B0E0FAA3E0FBBA0311AB
:10193F00BB000E9001877402F0900188E4F002184A
:10194F00A9BA0405BB00028001229001877401F03F
:10195F000218A99001B0E0FAA3E0FBBA0311BB0093
:10196F000E9001877403F0900188E4F00218A9BA71
:10197F000405BB00028001229001877401F0021858
:10198F00A99001B0E0FAA3E0FBBA0205BB00028008
:10199F00012274BAC0E07419C0E0900004E0C0E006
:1019AF00A3E0C0E09001B475F000229001B8E0FA16
:1019BF009001B475F000C002122266AB82AC83D0E6
:1019CF00027D00EAB50305EDB50401229001B8E0F0
:1019DF00FA0A9001B8EAF074FFC0E07419C0E09001
:1019EF000006E0C0E0A3E0C0E09001B475F0002273
:1019FF00900188E4F00221CB9001B0E0FAA3E0FB64
:101A0F00BA0205BB00028001227431C0E0741AC013
:101A1F00E0900004E0C0E0A3E0C0E09001B475F0F6
:101A2F0000229001B8E0FABA0101221A9001B8EA37
:101A3F00F07459C0E0741AC0E0900006E0C0E0A353
:101A4F00E0C0E09001B475F00022900188E4F0024C
:101A5F0021CB9001B0E0FAA3E0FBBA0205BB000274
:101A6F00800122748BC0E0741AC0E0900004E0C0C3
:101A7F00E0A3E0C0E09001B475F000229001B9E05E
:101A8F00FABA0C01220A9001B9EAF074B3C0E074FB
:101A9F001AC0E0900006E0C0E0A3E0C0E09001B4FF
:101AAF0075F00022900188E4F00221CB9001B0E0A4
:101ABF00FAA3E0FBBA0205BB000280012274E5C065
:101ACF00E0741AC0E0900004E0C0E0A3E0C0E09032
:101ADF0001B475F000229001B9E0FABA0101221A9F
:101AEF009001B9EAF0740DC0E0741BC0E0900006DD
:101AFF00E0C0E0A3E0C0E09001B475F000229001D7
:101B0F0088E4F00221CB9001B0E0FAA3E0FBBA0227
:101B1F0005BB0002800122743FC0E0741BC0E0903F
:101B2F000004E0C0E0A3E0C0E09001B475F0002233
:101B3F009001BAE0FABA3201220A9001BAEAF074BF
:101B4F0067C0E0741BC0E0900006E0C0E0A3E0C0F7
:101B5F00E09001B475F00022900188E4F00221CBEF
:101B6F009001B0E0FAA3E0FBBA0205BB00028001CE
:101B7F00227499C0E0741BC0E0900004E0C0E0A3A1
:101B8F00E0C0E09001B475F000229001BAE0FABA1B
:101B9F000A01221A9001BAEAF074C1C0E0741BC0A6
:101BAF00E0900006E0C0E0A3E0C0E09001B475F063
:101BBF000022900188E4F00221CB9001B0E0FAA35B
:101BCF00E0FBBA0205BB000280012274F3C0E0748F
:101BDF001BC0E0900004E0C0E0A3E0C0E09001B4BF
:101BEF0075F000229001B5E0FABA3B079001B5E419
:101BFF00F080060A9001B5EAF07421C0E0741CC0B1
:101C0F00E0900006E0C0E0A3E0C0E09001B475F002
:101C1F000022900188E4F002217A9001B0E0FAA34B
:101C2F00E0FBBA0205BB00028001227453C0E074CE
:101C3F001CC0E0900004E0C0E0A3E0C0E09001B45D
:101C4F0075F000229001B5E0FA70089001B5743B71
:101C5F00F080061A9001B5EAF07481C0E0741CC0E0
:101C6F00E0900006E0C0E0A3E0C0E09001B475F0A2
:101C7F000022900188E4F002217A9001B0E0FAA3EB
:101C8F00E0FBBA0205BB000280012274B3C0E0740E
:101C9F001CC0E0900004E0C0E0A3E0C0E09001B4FD
:101CAF0075F000229001B6E0FABA17079001B6E47A
:101CBF00F080060A9001B6EAF074E1C0E0741CC02F
:101CCF00E0900006E0C0E0A3E0C0E09001B475F042
:101CDF000022900188E4F002217A9001B0E0FAA38B
:101CEF00E0FBBA0205BB00028001227413C0E0744E
:101CFF001DC0E0900004E0C0E0A3E0C0E09001B49C
:101D0F0075F000229001B6E0FA70089001B67417D2
:101D1F00F080061A9001B6EAF07441C0E0741DC05D
:101D2F00E0900006E0C0E0A3E0C0E09001B475F0E1
:101D3F000022900188E4F002217A9001B0E0FAA32A
:101D4F00E0FBBA0205BB00028001227473C0E0748D
:101D5F001DC0E0900004E0C0E0A3E0C0E09001B43B
:101D6F0075F000229001B4E4F07491C0E0741DC0CE
:101D7F00E0900006E0C0E0A3E0C0E09001B475F091
:101D8F000022900188E4F002217A9001B0E0FAA3DA
:101D9F00E0FBBA031ABB00179001877404F0121806
:101DAF00A99001F4E4F09036D575F080022216BAAE
:101DBF000405BB00028001229001877401F0021814
:101DCF00A99001B0E0FAA3E0FBBA0205BB000280C4
:101DDF0001229001F47420F09036D975F080022220
:101DEF00169001B0E0FAA3E0FBBA0205BB00028037
:101DFF0001229001F47410F09036E075F080022209
:101E0F00169001B0E0FAA3E0FBBA0205BB00028016
:101E1F0001229001F47401F09036E575F0800222F2
:101E2F00169001B0E0FAA3E0FBBA0205BB000280F6
:101E3F0001229001F47402F09036EC75F0800222CA
:101E4F00169001B0E0FAA3E0FBBA024BBB0048903A
:101E5F0001F47404F09036F375F0800222169001AD
:101E6F00B0E0FAA3E0FBBA022EBB002B9001F47492
:101E7F0008F09036FA75F0800222169001B0E0FA61
:101E8F00A3E0FBBA0211BB000E9001F4E4F090370F
:101E9F000175F08012221622AAF0AB83E582900121
:101EAF00BFF0A3EBF0A3EAF09001BFE0FAA3E0FBD1
:101EBF00A3E0FC9001BBE0F50DA3E0F50EA3E0F568
:101ECF000F7402250DF8E4350EF9AD0F8882898362
:101EDF008DF012367FF875F00A8424308A828B8356
:101EEF008CF012353374012AFDE43BFE8C0775F03C
:101EFF000AE884E5F024308D828E838FF01235331B
:101F0F0074022AFDE43BFE8C078D828E838FF07462
:101F1F003A12353374032AF510E43BF5118C127421
:101F2F0001250DF8E4350EF9AD0F888289838DF008
:101F3F0012367FF875F00A8424308510828511835C
:101F4F008512F012353374042AFDE43BFE8C0775BD
:101F5F00F00AE884E5F02430F88D828E838FF0123A
:101F6F0035339001BEE0FD701374052AFDE43BFE8E
:101F7F008C078D828E838FF0E402353374052AFD32
:101F8F00E43BFE8C078D828E838FF0743A123533CB
:101F9F0074062AFDE43BFE8C07850D82850E838532
:101FAF000FF012367FF875F00A8424308D828E83FD
:101FBF008FF012353374072AFDE43BFE8C0775F062
:101FCF000AE884E5F024308D828E838FF01235334A
:101FDF0074082AFAE43BFB8A828B838CF0E4023587
:101FEF0033AAF0AB83E5829001C5F0A3EBF0A3EA2F
:101FFF00F09001C5E0FAA3E0FBA3E0FC9001C2E082
:10200F00F50DA3E0F50EA3E0F50F7404250DF8E42C
:10201F00350EF9AD0F888289838DF012367FF875F2
:10202F00F00A8424308A828B838CF012353374014A
:10203F002AFDE43BFE8C0775F00AE884E5F02430B6
:10204F008D828E838FF012353374022AFDE43BFEAE
:10205F008C078D828E838FF0742F12353374032A81
:10206F00F510E43BF5118C127405250DF8E4350ECF
:10207F00F9AD0F888289838DF012367FF875F00ADB
:10208F008424308510828511838512F012353374C4
:10209F00042AFDE43BFE8C0775F00AE884E5F02482
:1020AF00308D828E838FF012353374052AFDE43B19
:1020BF00FE8C078D828E838FF0742F12353374064A
:1020CF002AF510E43BF5118C127406250DF8E43552
:1020DF000EF9AD0F888289838DF012367FF875F077
:1020EF000A8424308510828511838512F0123533CE
:1020FF0074072AFDE43BFE8C0775F00AE884E5F0CF
:10210F0024308D828E838FF012353374082AFAE4CF
:10211F003BFB8A828B838CF0E40235337444C0E03E
:10212F007421C0E0900004E0C0E0A3E0C0E09001A3
:10213F008D75F000229001BB748DF0A37401F0A394
:10214F00E4F09001BEF09001C875F000121EA79048
:10215F0001A97405F0A3E4F09001AB74C8F0A37467
:10216F0001F0A3E4F090000B0218217493C0E07407
:10217F0021C0E0900004E0C0E0A3E0C0E09001DCEB
:10218F0075F000229001BB74DCF0A37401F0A3E49E
:10219F00F09001BE7401F09001D275F000121EA7ED
:1021AF009001A97410F0A3E4F09001AB74D2F0A3E6
:1021BF007401F0A3E4F090000002182174E4C0E071
:1021CF007421C0E0900004E0C0E0A3E0C0E0900103
:1021DF00ED75F000229001C274EDF0A37401F0A32D
:1021EF00E4F09001E375F000121FF09001A9741054
:1021FF00F0A3E4F09001AB74E3F0A37401F0A3E457
:10220F00F0900000021821AAF0AB83E5829001F54F
:10221F00F0A3EBF0A3EAF09001F5E0FAA3E0FBA343
:10222F00E0FC9001A97410F0A3E4F09001ABEAF088
:10223F00A3EBF0A3ECF09000001218219001F4E052
:10224F00FA7465C0E07422C0E090000EE0C0E0A315
:10225F00E0C0E08A822222AAF0AB83E5829001F8E7
:10226F00F0A3EBF0A3EAF09001F8E0FAA3E0FBA3F0
:10227F00E0FC74062AFDE43BFE8C078D828E838F73
:10228F00F012367FFD7E0074D02DFD74073EFE7474
:10229F00052AFAE43BFB8A828B838CF012367FFA95
:1022AF00740CB502005003022377EA2A2A9022C049
:1022BF00730223770222E70222EB02234F022353FA
:1022CF0002235702235B02235F0223630223670269
:1022DF00236B02236F02237390001F2290027E74E0
:1022EF0004F0A3E4F08D828E83C005C00612356C16
:1022FF00E5828583F0D006D00545F0702190027EEF
:10230F007464F0A3E4F08D828E83C005C00612358D
:10231F006CE5828583F0D006D00545F0701A9002E7
:10232F007E7490F0A37401F08D828E8312356CE56C
:10233F00828583F045F0700490001D2290001C22CE
:10234F0090001F2290001E2290001F2290001E223C
:10235F0090001F2290001E2290001E2290001E222D
:10236F0090001E2290001F2290FFFF229001FBE49D
:10237F00F07499C0E07423C0E090000CE0C0E0A3BB
:10238F00E0C0E09001FB75F000229001FBE0FA90B5
:10239F000189F074105AFB9001FCF074205A9001DF
:1023AF00FDF074045A9001FEF074085AFC9001FF7E
:1023BF00F0530240900200EAF0EB70189001FDE03C
:1023CF0070129001FEE0700C9001FFE07006900219
:1023DF0000E0600E9002017401F09002027401F0AF
:1023EF008022900201E4F0900202F090018FE0FA57
:1023FF00BA11028003BA120C90018C7401F0900292
:10240F00027401F0900203E4F0900202E0FA600619
:10241F009002037420F0900201E0FA60089002032A
:10242F00E0FA4410F09001FCE06008900203E0FA3B
:10243F004401F09001FDE06008900203E0FA4402CD
:10244F00F09001FEE06008900203E0FA4404F0907F
:10245F0001FFE06008900203E0FA4408F0900203E5
:10246F00E0FAC0027488C0E07424C0E090000EE06F
:10247F00C0E0A3E0C0E08A8222D00290018AEAF095
:10248F002290018BE0FA6003022539900189E0FB6D
:10249F0074105B900211F074205B900212F07404C0
:1024AF005B900213F074085B900214F0530340909A
:1024BF000215EBF090026F7407F0A37437F0A3745A
:1024CF0080F090020475F0001234277B00BB0500EA
:1024DF00400302269AEB2411FCE43402FD8C828D1A
:1024EF0083E0602874312B90020FF0900210E4F01B
:1024FF00900269740FF0A37402F0A3E4F090020449
:10250F0075F000C003123397D003801B90026974DB
:10251F000DF0A37437F0A37480F090020475F000EF
:10252F00C003123397D0030B80A3BA0102800302BA
:10253F00264990018AE0FB74015B900216F0740249
:10254F005B900217F074045B900218F0530308902D
:10255F000219EBF090026F740FF0A37437F0A374AD
:10256F0080F090020475F0001234277B00BB04004A
:10257F005055EB2416FCE43402FD8C828D83E06011
:10258F002874312B90020FF0900210E4F090026942
:10259F00740FF0A37402F0A3E4F090020475F0003E
:1025AF00C003123397D003801B900269740DF0A300
:1025BF007437F0A37480F090020475F000C003121A
:1025CF003397D0030B80A690018AE0FB30E419907B
:1025DF0002697414F0A37437F0A37480F0900204AE
:1025EF0075F0001233978017900269740DF0A37481
:1025FF0037F0A37480F090020475F00012339790B7
:10260F00018AE0FB30E51A9002697416F0A3743763
:10261F00F0A37480F090020475F000123397022635
:10262F009A900269740DF0A37437F0A37480F09040
:10263F00020475F0001233978051BA024E90026F68
:10264F007418F0A37437F0A37480F090020475F03F
:10265F000012342790018CE0FA6019900269741C03
:10266F00F0A37437F0A37480F090020475F0001299
:10267F003397801790026974D5F0A37436F0A37462
:10268F0080F090020475F0001233979001A9740A3C
:10269F00F0A3E4F09001AB7404F0A37402F0A3E490
:1026AF00F090000012182190018BE02401F09001AE
:1026BF008BE0FA7402B50200500590018BE4F02212
:1036D400004F666600426F696C65720050756D70CC
:1036E400005A6F6E652031005A6F6E652032005AA1
:1036F4006F6E652033005A6F6E6520340052657317
:103704006574005A6F6E6520005F004F7574200069
:0B37140050004200485720004F6E009C
:1026CF00120AC4900140E4F0A3F0900142740AF0A2
:1026DF00A3E4F090371F75F080120B0E9001407439
:1026EF000AF0A3E4F0900142740BF0A3E4F09037EA
:1026FF002975F080120B0E900140740BF0A3E4F0DB
:10270F00900142740CF0A3E4F090373275F0801210
:10271F000B0E900140740BF0A3E4F0900142740D86
:10272F00F0A3E4F090373775F080120B0E90014054
:10273F00740BF0A3E4F0900142740EF0A3E4F09058
:10274F00373C75F080120B0E900140740BF0A3E430
:10275F00F0900142740FF0A3E4F090374375F080CE
:10276F00120B0E900140740BF0A3E4F09001427431
:10277F0010F0A3E4F090374A75F080120B0E900121
:10278F0040740BF0A3E4F09001427411F0A3E4F055
:10279F0090375075F080120B0E900140740BF0A320
:1027AF00E4F090014274FFF0A3F090375675F0807B
:1027BF00120B0E900140740AF0A3E4F090014274E2
:1027CF0014F0A3E4F090375D75F080120B0E9001BA
:1027DF00407414F0A3E4F09001427416F0A3E4F0F7
:1027EF0090376675F080120B0E9001407414F0A3B1
:1027FF00E4F09001427417F0A3E4F090376E75F097
:10280F0080120B0E9001407414F0A3E4F09001427B
:10281F007418F0A3E4F090377675F080120B0E90D9
:10282F0001407414F0A3E4F09001427419F0A3E492
:10283F00F090377C75F080120B0E9001407414F0FD
:10284F00A3E4F09001427415F0A3E4F09037827581
:10285F00F080120B0E9001407414F0A3E4F090017D
:10286F004274FFF0A3F090375675F080120B0E9064
:10287F000140740AF0A3E4F090014274FFF0A3F05A
:10288F0090375675F080120B0E900140E4F0A3F0D4
:10289F00900142741EF0A3E4F090379075F080120F
:1028AF000B0E900140741EF0A3E4F0900142741FD0
:1028BF00F0A3E4F090379D75F080120B0E9001405D
:1028CF00741EF0A3E4F09001427420F0A3E4F090A2
:1028DF0037A475F080120B0E900140741EF0A3E424
:1028EF00F09001427421F0A3E4F09037A975F080C5
:1028FF00120B0E900140741EF0A3E4F0900142748D
:10290F0022F0A3E4F09037B075F080120B0E900117
:10291F0040741EF0A3E4F09001427423F0A3E4F09E
:10292F009037B775F080120B0E900140741EF0A314
:10293F00E4F09001427424F0A3E4F09037BE75F0F8
:10294F0080120B0E900140741EF0A3E4F090014230
:10295F007425F0A3E4F09037C575F080120B0E903C
:10296F000140741EF0A3E4F090014274FFF0A3F055
:09297F0090375675F080020B0E32
:10371F0053657420436C6F636B0053657420446171
:10372F007465004461792B004461792D004D6F6EF3
:10373F0074682B004D6F6E74682D00596561722B84
:10374F0000596561722D0052657475726E00536574
:10375F00742054696D65004D696E7574652B004D4D
:10376F00696E7574652D00486F75722B00486F7503
:10377F00722D005265736574205365636F6E6473A9
:10378F000054657374204F75747075747300426FB5
:10379F00696C65720050756D70005A6F6E652031DF
:1037AF00005A6F6E652032005A6F6E652033005AD3
:0C37BF006F6E6520340052657365740065
:10298800C281C283C2827A107B271ABAFF011BEA6E
:102998004B70F753800F438030122A717AC47B0939
:1029A8001ABAFF011BEA4B70F753800F43803012AD
:1029B8002A717A647B001ABAFF011BEA4B70F7533D
:1029C800800F438030122A71122A83E58270F953EE
:1029D800800F438020122A71122A83E58270F975CC
:1029E8008228122A0575820C122A05758206122A77
:1029F80005758201122A05758200022AAAE58290CD
:102A0800021AF0C283C28253800F90021AE0FA744D
:102A1800F05A4280C002122A71D00253800FEAC4D1
:102A280054F0FA74F05A4280122A71122A83E5820D
:102A380070F922E58290021BF0D283C28253800F84
:102A480090021BE0FA74F05A4280C002122A71D038
:102A58000253800FEAC454F0FA74F05A4280122AE2
:102A680071122A83E58270F922D2817AF47B011AE5
:102A7800BAFF011BEA4B70F7C28122C283D282D20D
:102A88008190021CE580F0E0FA30E708C281C2823A
:102A980075820122C281C28275820022758201027A
:102AA8002A05E58290021DF0FA4302808A82022AF2
:102AB80005AAF0AB83E58290021EF0A3EBF0A3EA2F
:102AC800F090021EE0FAA3E0FBA3E0FC900221EAEA
:102AD800F0A3EBF0A3ECF07A007B00C3EA9402EBDE
:102AE800648094804001228A04EBCC25E0CC33FD3D
:102AF800EC24CBF582ED3437F583E493FCA3E4931F
:102B08008C82C002C003122AAAD003D002900221EC
:102B1800E0FCA3E0FDA3E0FE7F007800C3EF941083
:102B2800E864809480505D8C828D838EF012367FAD
:102B3800F960288982C002C003C004C005C006C06D
:102B480007C000122A3BD000D007D006D005D00419
:102B5800D003D0020CBC00250D8022758220C00253
:102B6800C003C004C005C006C007C000122A3BD07D
:102B780000D007D006D005D004D003D0020FBF0084
:102B88009B088098900221ECF0A3EDF0A3EEF00AE8
:072B9800BA00010B022AE361
:0437CB0000004000BA
:102B9F00900261E5B0F090022475F0001232C0741B
:102BAF00C7C0E0742BC0E0900010E0C0E0A3E0C00D
:102BBF00E090022475F0002222D2B6D2B7227A0A10
:102BCF007B001ABAFF011BEA4B70F722D2B7122B08
:102BDF00CDC2B6122BCDC2B7022BCDC2B6D2B71211
:102BEF002BCDD2B6022BCDD2B6D2B7122BCD30B65B
:102BFF000790022EE4F0800690022E7401F0C2B707
:102C0F00122BCDC2B690022EE0F58222E582900201
:102C1F002FF07A007B00C3EA9408EB648094805015
:102C2F003A90022FE0FC30E704D2B68002C2B6C061
:102C3F0002C003122BCDD2B7122BCDC2B7122BCDA0
:102C4F00C2B6122BCDD003D00290022FE025E0FCAC
:102C5F0090022FF00ABA00BE0B80BB022BF6E58262
:102C6F00900230F0900231E4F07A007B00C3EA94D6
:102C7F0008EB64809480503D900231E025E0900293
:102C8F0031F0D2B6C2B7C002C003122BCDD2B712E9
:102C9F002BCDA2B6E433FCC004122BCDC2B7122B3E
:102CAF00CDD004D003D002900231E0FD4CF00ABA2F
:102CBF0000BB0B80B8900230E0FA6004C2B680020D
:102CCF00D2B6122BCDD2B7122BCDC2B7122BCD90BD
:102CDF000231E0F58222E582900233F025E0900286
:102CEF0033F0900232E0FA530201900233E04AF0DF
:102CFF00900233E0F582022C1BE582900239F0122C
:102D0F002BDB900239E0FA900232E4F08A82122C27
:102D1F00E5E5827007122BEA75820022900237E0F8
:102D2F00FAA3E0FB900234E0FCA3E0FDA3E0FE7FFA
:102D3F00007800C3EF9AE864808BF063F08095F021
:102D4F0050418C828D838EF012367FF582C002C087
:102D5F0003C004C005C006C007C000122C1BE582CB
:102D6F00D000D007D006D005D004D003D002700712
:102D7F00122BEA758200220CBC00010D0FBF00B3AD
:102D8F000880B0122BEA75820122E58290023FF093
:102D9F00122BDB90023FE0FA9002327401F08A822C
:102DAF00122CE5E582702074CFC0E0742DC0E09046
:102DBF000010E0C0E0A3E0C0E09037CF75F08022B4
:102DCF00122BEA7582002290023DE0F508A3E0F590
:102DDF000990023AE0FCA3E0FDA3E0FE7F0078003B
:102DEF00C3EF9508E864808509F063F08095F05093
:102DFF004AE50824FFF9E50934FFFAC3EF99E864BF
:102E0F00808AF063F08095F0E433F582C004C0054A
:102E1F00C006C007C000122C6DAA82D000D007D008
:102E2F0006D005D0048C828D838EF0EA123533A341
:102E3F00AC82AD830FBF00A80880A5122BEA758264
:022E4F0001225E
:0837CF004E6F742041434B00D2
:102E5100E582900240F0FA75F00A84E5F0540FFB28
:102E610075F00AEA84540FC454F042038B8222E5C0
:102E710082900241F0FA74F05AC4540F75F00AA41A
:102E8100FB740F5A2BF58222AAF0AB83E5829002E4
:102E910042F0A3EBF0A3EAF07A007B00C3EA9409C5
:102EA100EB648094805013EA2445F582EB3402F5FB
:102EB10083E4F00ABA00E50B80E29002347445F035
:102EC100A37402F0A3E4F09002377401F0A3E4F0DC
:102ED100758268122D0890023A7445F0A37402F0CD
:102EE100A3E4F090023D7407F0A3E4F07582681248
:102EF1002D99E5827003F58222900242E0FAA3E067
:102F0100FBA3E0FC900245E0FD53057F8D82C002EA
:102F1100C003C004122E70AD82D004D003D0028A47
:102F2100828B838CF0ED12353374012AFDE43BFE74
:102F31008C07900246E0F853007F8882C002C003EC
:102F4100C004C005C006C007122E70A882D007D0E9
:102F510006D005D004D003D0028D828E838FF0E895
:102F610012353374022AFDE43BFE8C07900247E0E0
:102F7100F853003F8882C002C003C004C005C006E8
:102F8100C007122E70A882D007D006D005D004D079
:102F910003D0028D828E838FF0E812353374032AB9
:102FA100FDE43BFE8C07900248E0F853000788825D
:102FB100C002C003C004C005C006C007122E70A81D
:102FC10082D007D006D005D004D003D0028D828EE6
:102FD100838FF0E812353374042AFDE43BFE8C073D
:102FE100900249E0F853003F8882C002C003C00448
:102FF100C005C006C007122E70A882D007D006D027
:1030010005D004D003D0028D828E838FF0E8123573
:103011003374052AFDE43BFE8C0790024AE0F85325
:10302100001F8882C002C003C004C005C006C007DB
:10303100122E70A882D007D006D005D004D003D0BC
:10304100028D828E838FF0E812353374062AFAE4FA
:103051003BFB90024BE0F582C002C003C004122E7C
:1030610070AD82D004D003D0028A828B838CF0EDC4
:1030710012353375820122AAF0AB83E58290024EAC
:10308100F0A3EBF0A3EAF0900251E4F090024EE0DD
:10309100FAA3E0FBA3E0FC8A828B838CF012367FDB
:1030A100F582C002C003C004122E51E582D004D0C3
:1030B10003D002547F900252F074012AFDE43BFEDA
:1030C1008C078D828E838FF012367FF582C002C00D
:1030D10003C004122E51E582D004D003D002547FE4
:1030E100900253F074022AFDE43BFE8C078D828E20
:1030F100838FF012367FF582C002C003C004122E06
:1031010051E582D004D003D002547F448090025410
:10311100F074032AFDE43BFE8C078D828E838FF0D1
:1031210012367FF582C002C003C004122E51E5821F
:10313100D004D003D0025407900255F074042AFD44
:10314100E43BFE8C078D828E838FF012367FF582F1
:10315100C002C003C004122E51E582D004D003D0B6
:1031610002543F900256F074052AFDE43BFE8C07A1
:103171008D828E838FF012367FF582C002C003C02C
:1031810004122E51E582D004D003D002541F9002C4
:1031910057F074062AFAE43BFB8A828B838CF01287
:1031A100367FF582122E51AA82900258EAF09002DF
:1031B100347451F0A37402F0A3E4F0900237740860
:1031C100F0A3E4F0758268022D08022BC8AAF0ABC7
:1031D10083E58290025CF0A3EBF0A3EAF090025F3A
:1031E1007410F0A37427F090025CE0FAA3E0FBA353
:1031F100E0FC90025FE0FDA3E0FE90025AE0F50AD8
:10320100A3E0F50B900275EDF0A3EEF0850A82853F
:103211000B83C002C003C004C005C006123499A9C3
:1032210082AF83D006D005D004D003D002890074C8
:1032310030288A828B838CF0123533A3AA82AB8328
:1032410090027CEDF0A3EEF089828F83C002C0036F
:10325100C004C005C00612354CAF82A883D006D089
:103261000590025AE50AC39FF0E50B98A3F090027E
:1032710075740AF0A3E4F08D828E83123499E5828D
:103281008583F0D004D003D00290025FF0A3E5F073
:10329100F090025CEAF0A3EBF0A3ECF090025FE0A7
:1032A100FDA3E0FE4D60030231F390025CEAF0A35E
:1032B100EBF0A3ECF08A828B838CF0E4023533AA25
:1032C100F0AB83E582900262F0A3EBF0A3EAF09009
:1032D10002677480F0A3E4F0900262E0FAA3E0FBDD
:1032E100A3E0FC900267E0FDA3E0FE900261E0FF35
:1032F1007800900275EDF0A3EEF08F828883C00212
:10330100C003C004123499AD82AE83D004D003D07F
:1033110002900265EDF0A3EEF08A078B008C01EDBF
:103321004E60047D3180027D308F82888389F0ED8B
:10333100123533900265E0FDA3E0900267E0FEA341
:10334100E0FF8E008DF0E8A4FD900261E0F89002AC
:1033510061C39DF0EFC313CE13CEFF900267EEF071
:10336100A3EFF00ABA00010B900262EAF0A3EBF0BE
:10337100A3ECF0900267E0FDA3E0FE4D6003023292
:10338100E4900262EAF0A3EBF0A3ECF08A828B8373
:103391008CF0E4023533AAF0AB83E58290026CF045
:1033A100A3EBF0A3EAF090026CE0FAA3E0FBA3E048
:1033B100FC8A828B838CF012367F60120ABA00017C
:1033C1000B90026CEAF0A3EBF0A3ECF080E3900227
:1033D1006CEAF0A3EBF0A3ECF0900269E0FDA3E04E
:1033E100FEA3E0FF8D828E838FF012367FF860217D
:1033F1008A828B838CF0E8123533A3AA82AB839047
:10340100026CEAF0A3EBF0A3ECF00DBD00D60E8048
:10341100D390026CEAF0A3EBF0A3ECF08A828B83E9
:103421008CF0E4023533AAF0AB83E582900272F0AE
:10343100A3EBF0A3EAF0900272E0FAA3E0FBA3E0B1
:10344100FC8A828B838CF0E412353390026FE0FDAD
:10345100A3E0FEA3E0FF8D828E838FF012367FF80A
:1034610060218A828B838CF0E8123533A3AA82AB68
:1034710083900272EAF0A3EBF0A3ECF00DBD00D64D
:103481000E80D3900272EAF0A3EBF0A3ECF08A82F3
:103491008B838CF0E4023533AA83E582900277F0C6
:1034A100A3EAF0900279E4F0A3F0900275E0FAA3A8
:1034B100E0FB7C10900277E0FDA3E0FE339200EE8A
:1034C100CD25E0CD33FE900277EDF0A3EEF0900232
:1034D10079E0FDA3E0CD25E0CD33FE900279EDF05A
:1034E100A3EEF0300012900279E0FDA3E0FE90021D
:1034F1007974014DF0A3EEF0900279E0FDA3E0FEB6
:10350100C3ED9AEE9B401D900279EDC39AF0EE9BBC
:10351100A3F0900277E0FDA3E0FE90027774014DE5
:10352100F0A3EEF0DC8E900277E0FAA3E08A82F558
:023531008322F3
:06003700E4787FF6D8FD1D
:100015007900E94400601B7A009037D7788775A08E
:1000250002E493F2A308B8000205A0D9F4DAF27548
:02003500A0FF2A
:1035330020F71030F6118883A88220F507F6A883B8
:1035430075830022F280F7F022AA83AB828BF0907E
:10355300027CE0A4F8A9F08AF0E0A429F98BF0A397
:10356300E0A429F58388822222AA83E5829002803F
:10357300F0A3CAF0FB33E433FC6009C3E49AFDE42F
:103583009BFE80048A058B068D028E0390027EE0EB
:10359300FDA3E0FE30E709C3E49DFFE49EF8800449
:1035A3008D078E00900282EFF0A3E8F08A828B836E
:1035B300C0041235D2AA82AB83D004EC600CC3E4FE
:1035C3009AFCE49BFD8C828D83228A828B8322AAC0
:1035D30083E582900284F0A3EAF0900286E4F090FF
:1035E3000284E0FAA3E0FB7C00900282E0FDA3E00A
:1035F300FE235401FF7037EECD25E0CD33FE90025C
:1036030082EDF0A3EEF0900282E0FDA3E0FEC3EAB8
:103613009DEB9E5011EEC313CD13CDFE900282EDB0
:10362300F0A3EEF080080C900286ECF080BB9002D1
:1036330086E0FA900284E0FBA3E0FC900282E0FDC6
:10364300A3E0FEC3EB9DEC9E400B900284EBC39D75
:10365300F0EC9EA3F0900282E0FBA3E0C313CB1334
:10366300CBFC900282EBF0A3ECF08A031AEB70C35D
:0C367300900284E0FAA3E08A82F5832232
:10003D007800E84400600A790075A000E4F309D85F
:10004D00FC7887E84402600C7903900000E4F0A38B
:04005D00D8FCD9FAF8
:0D00080075813E12369BE582600302000305
:10367F0020F71430F6148883A88220F507E6A88374
:10368F0075830022E280F7E49322E0227582002204
:00000001FF
