:0D006400900025742DF0900026742FF09070
:0C0071000027747CF0900028745CF09074
:0C007D000029742EF090002A742EF090E0
:08008900002BE4F07A007B007B
:0D009100C3EA9420EB648094805014EA24AC
:0A009E0000F582EB3400F583742EA8
:0800A800F00ABA00E40B80E14C
:0A00B000900020E4F074CEC0E0746C
:0C00BA0000C0E090003EE0C0E0A3E0C009
:0800C600E090000075F000223B
:0800CE0090002CE4F0A3F0E423
:0E00D600900000E4F090002CE0FAA3E0FBEABA
:0A00E4002425F582EB3400F583E0DB
:0E00EE00FC900029F0BA030CBB000990002C16
:0600FC00E4F0A3F0800B0C
:0B01020090002C74012AF0E43BA3F0F5
:08010D009002607426F0A37457
:0C01150033F0A37480F090000075F0003F
:07012100123090900260749F
:0A01280029F0A37400F0A3E4F090A6
:09013200000075F00012309090FD
:07013B0002607435F0A374AB
:0C01420033F0A37480F090000075F00012
:08014E00123090746AC0E074E5
:0C01560001C0E0900042E0C0E0A3E0C067
:08016200E090002375F000227B
:0E016A00900023E0FA74105AFBE4BB0001047D
:0D01780090002EF074205AFBE4BB0001043F
:0D018500FB90002FF0530204E4BA000104C7
:09019200900030F074AFC0E0747D
:0C019B0001C0E0900040E0C0E0A3E0C024
:0801A700E090002175F0002238
:0E01AF00900021E0FAA3E0FBBA0105BB0002BC
:0201BD008010B0
:0801BF00BA0205BB000280102A
:0801C700BA031BBB00188010F5
:0801CF0090002E7401F0800E77
:0801D70090002F7401F0800676
:0601DF009000307401F0F5
:0A01E50090002EE060199002607493
:0A01EF0037F0A37433F0A37480F01E
:0B01F90090000075F00012309080179D
:080204009002607435F0A37450
:0C020C0033F0A37480F090000075F00047
:0302180012309011
:0A021B0090002FE06019900260745B
:0A02250037F0A37433F0A37480F0E7
:0B022F0090000075F000123090801766
:08023A009002607435F0A3741A
:0C02420033F0A37480F090000075F00011
:03024E00123090DB
:0A025100900030E060199002607424
:0A025B0037F0A37433F0A37480F0B1
:0B02650090000075F000123090801730
:080270009002607435F0A374E4
:0C02780033F0A37480F090000075F000DB
:03028400123090A5
:0E02870090002EE0700990002FE07003FA80C6
:010295000266
:020296007A01EB
:0C029800EA7009900030E07003FA800268
:0202A4007A01DD
:0C02A600900031EAF090002EE07009900A
:0802B200002FE07003FA800246
:0202BA007A01C7
:0C02BC00EA7009900030E07003FA800244
:0202C8007A01B9
:0A02CA00900032EAF090002EE09060
:0802D4000033F090002FE090D0
:0802DC000034F0900030E090C6
:0E02E4000035F0900021E0FAA3E0FBBA05051A
:0502F200BB00028020AA
:0802F700BA0605BB00028020DD
:0802FF00BA0905BB00028020D2
:08030700BA0A05BB00028020C8
:08030F00BA0B2BBB0028802073
:080317009000317401F0801E1A
:08031F009000327401F0801619
:080327009000337401F0800E18
:08032F009000347401F0800617
:060337009000357401F096
:08033D009002607435F0A37416
:0C03450033F0A37480F090000075F0000D
:0B035100123090900031E0FA601D9027
:07035C0002607439F0A37484
:0C03630033F0A37480F090000075F000EF
:09036F00C002123090D002801B84
:08037800900260743CF0A374D4
:0C03800033F0A37480F090000075F000D2
:07038C00C002123090D00204
:0B039300900032E0FB602190026074DB
:0A039E0039F0A37433F0A37480F06B
:0E03A80090000075F000C002C003123090D02B
:0503B60003D002801FCE
:0803BB00900260743CF0A37491
:0C03C30033F0A37480F090000075F0008F
:0B03CF00C002C003123090D003D00227
:0803DA009002607435F0A37479
:0C03E20033F0A37480F090000075F00070
:0E03EE00C002C003123090D003D00290003342
:0B03FC00E060219002607437F0A374F1
:0C04070033F0A37480F090000075F0004A
:0D041300C002C003123090D003D002801F41
:080420009002607435F0A37432
:0C04280033F0A37480F090000075F00029
:0B043400C002C003123090D003D002C1
:0A043F00900034E060219002607428
:0A04490037F0A37433F0A37480F0C1
:0E04530090000075F000C002C003123090D07F
:0504610003D002801F22
:080466009002607435F0A374EC
:0C046E0033F0A37480F090000075F000E3
:0B047A00C002C003123090D003D0027B
:0A048500900035E0602190026074E1
:0A048F0037F0A37433F0A37480F07B
:0E04990090000075F000C002C003123090D039
:0504A70003D002801FDC
:0804AC009002607435F0A374A6
:0C04B40033F0A37480F090000075F0009D
:0B04C000C002C003123090D003D00235
:0A04CB00C002C00374E8C0E074042E
:0D04D500C0E090003EE0C0E0A3E0C0E09079
:0604E200000075F000228D
:0E04E800D003D002900024E4F0900033E060D6
:0704F600069000247401F0E0
:0E04FD00900034E06008900024E0FC4402F01F
:0E050B00900035E06008900024E0FC4404F00D
:0B051900EB6008900024E0FB4410F0B1
:0B052400EA6008900024E0FA4420F098
:0A052F00900024E0FA7449C0E07463
:0C05390005C0E0900044E0C0E0A3E0C07A
:04054500E08A8222A4
:080549007A407B0D7C037D006C
:0D0551001ABAFF091BBBFF051CBCFF011DF2
:09055E00EA4B4C4D70ED0200D691
:0E3326005A31323320422050204131323320C0
:013334000098
:02333500200076
:023337002A006A
:033339002A200047
:03333C002020004E
:03000000020008F3
:0300610002000397
:0500030012056780FEFC
:08056700758F017A667B079095
:0A056F000036EAF0A3EBF07AA27B5D
:0A05790008900038EAF0A3EBF07AD6
:04058300977B0990C9
:0A058700003AEAF0A3EBF07A737B70
:0A0591000990003CEAF0A3EBF07AB9
:04059B004F7B0990F9
:0A059F00003EEAF0A3EBF07ABB7B0C
:0A05A90009900040EAF0A3EBF07A9D
:0405B3005A7B0A90D5
:0A05B7000042EAF0A3EBF07A857B26
:0A05C1000A900044EAF0A3EBF07A80
:0405CB008E7B0A9089
:0B05CF000046EAF0A3EBF012268112B8
:0705DA002EC474F5C0E074AB
:0C05E10005C0E0900046E0C0E0A3E0C0D0
:0805ED00E090333F75F080221D
:0705F50012006412161A0245
:0205FC0005FEFA
:0405FE007A007B0004
:0E060200C3EA940AEB64809480400302074828
:0E06100090026DEAF0A3EBF0900009C002C06A
:0E061E00031231D3AC82AD83D003D002EC24A2
:09062C0048FCED3400FD7E009055
:0E06350000A2ECF0A3EDF0A3EEF08C828D831A
:0E0643008EF0123306FFA3123306F84F700339
:0306510002070B92
:0E065400C007C00074022CF9E43DFF8E00893F
:0C066200828F8388F0123306F50BA31280
:08066E003306F50C74042CF5B1
:0606760008E43DF5098EC9
:05067C000A85088285DB
:060681000983850AF01256
:0B0687003306F8A3123306FFC3E8950A
:0A0692000BEF6480850CF063F0802C
:0E069C0095F0D000D0074067C007C00074067C
:0E06AA002CF9E43DFF8E0089828F8388F012C8
:0C06B8003306D000D007604B8508828517
:0706C4000983850AF0E4122E
:0E06CB0031BAA3E41231BA74072CFCE43DFDF1
:0E06D9008C828D838EF0123306FCA312330642
:0C06E700FDC002C003C004C0057401C0C7
:0C06F300E07407C0E0C004C0058F8288DE
:0206FF00832254
:0A070100D005D004D003D0028035EB
:0E070B009000A2E0FCA3E0FDA3E0FE74042C2D
:0E071900FCE43DFD8C828D838EF0123306FFD2
:0A072700A3123306F80FBF0001080B
:0D0731008C828D838EF0EF1231BAA3E81296
:02073E0031BACE
:050740000ABA00010BE4
:03074500020602A7
:080748007AA07B867C017D0094
:0D0750001ABAFF091BBBFF051CBCFF011DF1
:09075D00EA4B4C4D70ED0205FE63
:0E076600AA83E5829000A9F0A3EAF09000AB10
:0E077400E4F0A3F0A3F09000AEE4F0A3F09048
:0B07820000A9E0FAA3E0FB7C007D0072
:0E078D00C3EC940AED648094804003020816C9
:0E079B0090026DECF0A3EDF0900009C002C0DA
:0E07A90003C004C0051231D3AE82AF83D00569
:0C07B700D004D003D002EE2448F582EFFD
:0C07C3003400F583E0FEA3E0FF4E600868
:0807CF00EEB50233EFB5032F74
:0E07D7009000AEE0FEA3E0FF90026DEEF0A3F6
:0E07E500EFF09000091231D3AE82AF83EE2404
:0707F30048FEEF3400FF9007
:0C07FA0000ABEEF0A3EFF0A3E4F08010E1
:050806000CBC00010D17
:0B080B009000AEECF0A3EDF002078DB2
:0E0816009000ABE0FAA3E0FBA3E0FC9000A989
:0D082400E0FDA3E0FE8A828B838CF0ED12D4
:0E08310031BAA3EE1231BA74022AFDE43BFE86
:0E083F008C079000A5E0F8A3E0F98D828E836F
:0E084D008FF0E81231BAA3E91231BA74042A0E
:0E085B00FDE43BFE8C078D828E838FF0E4124D
:0E08690031BAA3E41231BA74062AFDE43BFE54
:0E0877008C078D828E838FF074011231BA745B
:0E088500072AFAE43BFB9000A7E0FDA3E0FE8B
:0D0893008A828B838CF0ED1231BAA3EE0245
:0208A00031BA6B
:0E08A200AA83E5829000B2F0A3EAF09000B4C1
:0E08B000E4F0A3F09000B2E0FAA3E0FB7C00BD
:0208BE007D00BB
:0C08C000C3EC940AED6480948040012297
:0E08CC0090026DECF0A3EDF0900009C002C0A8
:0E08DA0003C004C0051231D3AE82AF83D00537
:0C08E800D004D003D002EE2448F582EFCB
:0C08F4003400F583E0FEA3E0FF4E600836
:08090000EEB5023BEFB5033731
:0E0908009000B4E0FEA3E0FF90026DEEF0A3BD
:0E091600EFF09000091231D3AE82AF83EE24D1
:0A09240048FEEF3400FF74062EFEBB
:0E092E00E43FFF9000B0E0F8A3E08E828F83DC
:03093C00E8F022BE
:05093F000CBC00010DDD
:0B0944009000B4ECF0A3EDF00208C03E
:0E094F00AAF0AB83E5829000B6F0A3EBF0A314
:0E095D00EAF09000B6E0FAA3E0FBA3E0FC8A0B
:08096B00828B838CF00227B29D
:0E097300AAF0AB83E5829000B9F0A3EBF0A3ED
:0E098100EAF09000B9E0FAA3E0FBA3E0FC8AE4
:08098F00828B838CF0022D71B4
:0E099700AAF0AB83E5829000BCF0A3EBF0A3C6
:0E09A500EAF09000BCE0FAA3E0FBA3E0FC8ABD
:0809B300828B838CF0022B8281
:0E09BB00AAF0AB83E5829000BFF0A3EBF0A39F
:0E09C900EAF09000BFE0FAA3E0FBA3E0FC8A96
:0E09D700828B838CF0E41231BAA3E41231BAA1
:0709E5009000C2E4F07D0068
:0309EC00BD040047
:0A09EF0050688DF005F0748080025E
:0209F900C31326
:0C09FB00D5F0FBF4FE740F4EF5907E006A
:030A0700BE04002A
:0E0A0A005045E590F4FF8EF005F07401800277
:020A180025E0D7
:0E0A1A00D5F0FBF85F602D9000C2E075F0048F
:0A0A2800A4F51185F0128E017F0085
:0A0A3200E92511F9EF3512FF09B9AB
:030A3C0000010FA7
:0D0A3F008A828B838CF0E91231BAA3EF029A
:020A4C0031BABD
:030A4E000E80B661
:080A51000D9000C2EDF080934E
:010A5900227A
:0E0A5A00AAF0AB83E5829000C3F0A3EBF0A3FB
:0E0A6800EAF075B0FC9000C3E0FAA3E0FBA337
:0D0A7600E0FC743C55B08A828B838CF0024A
:020A830031BA86
:090A8500E5829000C6F0F5A02204
:0E0A8E00AAF0AB83E5829000C7F0A3EBF0A3C3
:0E0A9C00EAF09000C7E0FAA3E0FBA3E0FC7DC7
:030AAA00007E00CB
:0E0AAD00C3ED9420EE64809480503E8A828BCC
:0C0ABB00838CF0123306FF601EED24CA8D
:0C0AC700F582EE3400F583EFF00ABA006F
:020AD300010B15
:0D0AD5009000C7EAF0A3EBF0A3ECF0800D59
:0A0AE200ED24CAF582EE3400F5831E
:030AEC007420F083
:070AEF000DBD00BA0E80B737
:0E0AF6009000C7EAF0A3EBF0A3ECF09000CA6A
:060B040075F0001227B29B
:020B0A0080FE6B
:020B0C0080FE69
:0D333F004865726520696E206D61696E0041
:0E0B0E009000EBE4F0A3F09000EDE4F0A3F013
:0E0B1C009000F3E4F0A3F09000F5E4F0A3F0F5
:0E0B2A009000EBE0FAA3E0FB90026DEAF0A36E
:0E0B3800EBF090000A1231D3AA82AB83EA24BC
:0A0B460078FAEB3402FB8A828B83FD
:0E0B5000A3A3A3A3A3E0FAA3E0FB90015174BA
:0C0B5E0001F0A3E4F08A828B830219B03E
:0C0B6A00E5829000F7F0FABA0102800D5D
:050B7600BA0202800537
:050B7B00BA03668006CC
:030B80000213F568
:030B83000214AEAB
:0D0B86001211DDE5828583F045F060030269
:020B930012C985
:0D0B9500121288E5828583F045F0600302AE
:020BA2001559E3
:0E0BA4009000EBE0FAA3E0FB90026DEAF0A3F4
:0E0BB200EBF090000A1231D3AA82AB83EA2442
:0A0BC00078FAEB3402FB8A828B8383
:0E0BCA00A3A3A3A3A3E0FAA3E0FB9001517440
:0C0BD80002F0A3E4F08A828B830219B0C3
:010BE40022EE
:0E0BE500AAF0AB83E5829000FCF0A3EBF0A336
:0B0BF300EAF09000EBE0F525A3E0F530
:050BFE002690026DE5E8
:0A0C030025F0A3E526F090000A1288
:0C0C0D0031D3AC82AD83EC2478FCED34D4
:0C0C190002FD8C828D83A3A3A3E0FCA34A
:0E0C2500E0FD900100E4F0A3F09000FAE0FE84
:0D0C3300A3E0FF9000F8E0F8A3E0F9E4F57D
:030C400021F52279
:0C0C4300C004C00590026DE521F0A3E59F
:0C0C4F0022F090000AC004C005C006C0DE
:0C0C5B0007C000C0011231D38582238540
:0C0C67008324D001D000D007D006D005B7
:090C7300D004E5232478F582E5A4
:0A0C7C00243402F583E0FCA3E0FD40
:0E0C8600A3E0FABC000BBD0008BA0005D005C3
:030C9400D0042267
:0A0C9700D005D004E5232478FAE527
:0A0CA100243402FB8A828B83A3A394
:0E0CAB00A3E0FAA3E0FBEAB50406EBB50502F0
:020CB9008003B6
:030CBB00020EC462
:060CBE00E525B5210DE55E
:050CC40026B522089096
:070CC90000FF745BF08006E0
:060CD0009000FF7420F00B
:0E0CD600900100E0FAA3E0FBC3EA98EB648013
:0E0CE40089F063F08095F04051EA9EEB648049
:0E0CF2008FF063F08095F05043C004C0059071
:0E0D000000FCE0FAA3E0FBA3E0FC9000FFE0A3
:0E0D0E008A828B838CF01231BA9000FC740143
:0E0D1C002AF0E43BA3F0A3ECF09000FCE0FA18
:0E0D2A00A3E0FBA3E0FC8A828B838CF0E41232
:060D380031BAD005D00421
:0E0D3E00C004C005900100E02401F0A3E034E1
:070D4C0000F0AA21AB229088
:070D5300026DE521F0A3E5AC
:0C0D5A0022F090000AC002C003C006C0D6
:0E0D660007C000C0011231D3AC82AD83D001B2
:0C0D7400D000D007D006D003D002EC2441
:0A0D800078F582ED3402F583E0F50A
:080D8A0027A3E0F528A3E0F522
:0A0D920029D005D0049000FCE0F524
:080D9C002AA3E0F52BA3E0F50A
:060DA4002C900100E0F5B7
:050DAA0023A3E0F52485
:070DAF00852782852883855A
:060DB60029F0123306F5DE
:080DBC002D6063C3E52398E5F7
:0C0DC40024648089F063F08095F04040CA
:0A0DD000E5239EE52464808FF063A4
:0A0DDA00F08095F05030852A8285E4
:060DE4002B83852CF0E5D5
:070DEA002D1231BAA385822E
:050DF1002A85832B9010
:070DF60000FCE52AF0A3E573
:070DFD002BF0A3E52CF085AB
:060E04002A82852B838584
:060E0A002CF0E41231BAE5
:070E10000523E4B5230205F0
:010E170024B6
:070E18000527E4B527910551
:030E1F0028808D9B
:080E22009000FCE52AF0A3E5B5
:070E2A002BF0A3E52CF09072
:070E31000100E523F0A3E539
:080E380024F0EAB5250CEBB52E
:0A0E400026089000FF745DF08006A4
:060E4A009000FF7420F08F
:0E0E5000900100E0FAA3E0FBC3EA98EB648097
:0E0E5E0089F063F08095F04051EA9EEB6480CD
:0E0E6C008FF063F08095F05043C004C00590F5
:0E0E7A0000FCE0FAA3E0FBA3E0FC9000FFE028
:0E0E88008A828B838CF01231BA9000FC7401C8
:0E0E96002AF0E43BA3F0A3ECF09000FCE0FA9D
:0E0EA400A3E0FBA3E0FC8A828B838CF0E412B7
:060EB20031BAD005D004A6
:0C0EB800900100E02401F0A3E03400F001
:070EC4000521E4B521020540
:010ECB002204
:030ECC00020C43D2
:0E0ECF00AA83E582900108F0A3EAF0900102E8
:0E0EDD00E0FAA3E0FBA3E0FC8A828B838CF09A
:0A0EEB00E41231BAA3E41231BA9008
:080EF5000105E0F52EA3E0F574
:060EFD002FA3E0F5308593
:060F03002E82852F83857C
:090F090030F0E41231BAA3E41245
:0A0F120031BA90010AE4F0A3F09058
:0E0F1C000108E0F8A3E0F990026DE8F0A3E907
:0E0F2A00F090000AC002C003C004C000C00165
:0E0F38001231D3AD82AE83D001D000D004D0F0
:0A0F460003D002ED2478FDEE340222
:0C0F5000FE8D828E83A3A3A3E0F535A3E1
:070F5C00E0F536E4F531F584
:010F6300325B
:080F640090026DE531F0A3E5F8
:0C0F6C0032F090000AC002C003C004C0B4
:0B0F780000C0011231D3858233858355
:0C0F830034D001D000D004D003D002E52F
:060F8F00332478F582E531
:0A0F9500343402F583E0FFA3E0FD11
:0D0F9F00A3E0FEBF0007BD0004BE0001225C
:0A0FAC00C002C003C004E53324783E
:0A0FB600FFE5343402FA8F828A83CB
:0C0FC000A3A3A3E0FAA3E0FBEAB535060A
:060FCC00EBB536028009BE
:090FD200D004D003D0020210B9D2
:0C0FDB00D004D003D002E8B5311BE9B50A
:0C0FE700321790010AE0FFA3E0FD8A82AF
:0D0FF3008B838CF0EF1231BAA3ED1231BAEE
:0E100000C002C003C00490010AE02401F0A366
:09100E00E03400F0AD31AE329087
:07101700026DE531F0A3E5D5
:0C101E0032F090000AC003C004C005C0FE
:0E102A0006C000C0011231D3AF82AA83D001EC
:0C103800D000D006D005D004D003EF2477
:0A10440078F582EA3402F583E0F546
:08104E0037A3E0F538A3E0F53B
:0C10560039D004D003D00290010AE0F56C
:0510620033A3E0F534AA
:07106700853782853883857F
:08106E0039F01233066012058F
:0610760033E4B53302056E
:01107C00343F
:07107D000537E4B537E40577
:031084003880E0D1
:0810870090010AE533F0A3E536
:0B108F0034F0EDB50018EEB50114853B
:06109A002E82852F8385E4
:0510A00030F0E5331201
:0610A50031BAA3E534128C
:0210AB0031BA58
:0C10AD0090010AE02401F0A3E03400F000
:0710B9000531E4B531020529
:0110C00032FD
:0310C100020F64B7
:0E10C400AAF0AB83E58290010EF0A3EBF0A33F
:0E10D200EAF090010EE0FAA3E0FBA3E0FC8A36
:0E10E000828B838CF0E41231BA9000EBE0FDBD
:0A10EE00A3E0FEBDFF04BEFF0122D7
:0B10F800C002C003C0047417C0E07405
:0C11030011C0E0900046E0C0E0A3E0C096
:08110F00E090334C75F08022E2
:0C1117009000EBE0FDA3E0FE90010274EC
:0A11230011F0A37401F0A3E4F090B2
:07112D0001057413F0A37427
:0C11340001F0A3E4F08D828E83120ECF38
:0E114000D004D003D0029000F5E0FDA3E0FE45
:0E114E00900111E0FFA3E0F8C3EF9DE864807C
:0E115C008EF063F08095F0500A9000F5EFF0F1
:05116A00A3E8F0803F46
:0E116F0090010CE0FFA3E0F8EF2DFDE83EFE3E
:09117D00900113E0F53AA3E0F53E
:091186003BC3ED953AEE6480854F
:0A118F003BF063F08095F05016E588
:0A1199003AC39FFFE53B98F80FBF33
:0311A30000010840
:0811A6009000F5EFF0A3E8F062
:0E11AE009000F5E0FDA3E0FE90010CE0FFA331
:0E11BC00E0F8EF2DFFE83EF89000F8EDF0A30C
:0E11CA00EEF09000FAEFF0A3E8F08A828B833B
:0511D8008CF0020BE5A4
:0E11DD009000EBE0FAA3E0FB90026DEAF0A3B5
:0E11EB00EBF090000A1231D3AA82AB837C0095
:0211F9007D0077
:0D11FB00C002C00390026DECF0A3EDF09077
:0E120800000AC002C003C004C0051231D3AEFC
:0D12160082AF83D005D004D003D002EE24B7
:0A12230078F582EF3402F583E0F85D
:0E122D00A3E0F9A3E0FAB8000CB90009BA007A
:07123B0006D003D00280423F
:0A124200D003D002EE2478FEEF3452
:0C124C0002FF8E828F83A3A3A3E0FEA309
:0A125800E0FFEA2478F8EB3402F915
:0E12620088828983A3A3A3A3A3E0F8A3E0F9E5
:0C127000EEB50008EFB50104900001226B
:05127C000CBC00010D97
:031281000211FB5C
:0412840090000022B4
:0E1288009000EBE0FAA3E0FB90026DEAF0A309
:0E129600EBF090000A1231D3AA82AB83EA2457
:0A12A40078FAEB3402FB8A828B8398
:0E12AE00A3A3A3A3A3E0FAA3E0FBE4BAFF040A
:0412BC00BBFF01046F
:0912C000FA3395E08A82F58322DD
:0412C9007A007B002C
:0E12CD0090026DEAF0A3EBF090000AC002C0A0
:0E12DB00031231D3AC82AD83D003D002EC24D9
:0A12E90078F582ED3402F583E0FE93
:0C12F300A3E0FFA3E0F8EE4F48700122DA
:0A12FF00EC2478FEED3402FF8E822D
:0E1309008F83A3A3A3E0FEA3E0FF9000EBE020
:0D131700F8A3E0F990026DE8F0A3E9F09072
:0E132400000AC002C003C004C005C006C00716
:0E1332001231D3A882A983D007D006D005D0EF
:0B13400004D003D002E82478F8E93460
:0C134B0002F988828983A3A3A3A3A3E076
:0E135700F8A3E0F9EEB50006EFB50102800341
:031365000213ED83
:0E1368009001517403F0A3E4F088828983C0E1
:0E13760002C003C004C0051219B0D005D00497
:0E138400D003D0029000F3E0FEA3E0FF74015E
:0E1392002EF8E43FF99000F3E8F0A3E9F0EF45
:0C13A000CE25E0CE33FFEE24EDFEEF344E
:0C13AC0000FF9000EBE0F8A3E0F98E8257
:0E13B8008F83E8F0A3E9F09000EBEAF0A3EBDE
:0A13C600F0EC2478FCED3402FD8CFD
:0E13D000828D83A3A3A3A3A3E0FCA3E0FD9062
:0D13DE0001517401F0A3E4F08C828D8302B4
:0213EB0019B037
:0513ED000ABA00010B2B
:0313F2000212CD17
:0E13F5009000EBE0FAA3E0FB90026DEAF0A39B
:0E140300EBF090000AC002C0031231D3AC829D
:0C141100AD83D003D002EC2478FCED3455
:0B141D0002FD8C828D83A3A3A3E0F5E9
:0A1428003CA3E0F53D0ABA00010BF9
:0E14320090026DEAF0A3EBF090000AC002C039
:0E144000031231D3AE82AF83D003D002EE246C
:0A144E0078F582EF3402F583E0F830
:0D145800A3E0F9A3E0FCE8494C604AEE2453
:0A14650078FCEF3402FD8C828D83C9
:0C146F00A3A3A3E0FEA3E0FFEEB53C2A1F
:0C147B00EFB53D269000EBEAF0A3EBF08B
:0E1487008C828D83A3A3A3A3A3E0FCA3E0FDAE
:0E1495009001517401F0A3E4F08C828D83026B
:0214A30019B07E
:0514A5000ABA00010B72
:0314AA00021432F7
:0114AD00221C
:0E14AE009000EBE0FAA3E0FB90026DEAF0A3E1
:0E14BC00EBF090000AC002C0031231D3AC82E4
:0C14CA00AD83D003D002EC2478FCED349C
:0C14D60002FD8C828D83A3A3A3E0FCA385
:0714E200E0FD1ABAFF011B37
:0D14E900EB20E76B90026DEAF0A3EBF090B2
:0E14F600000AC002C003C004C0051231D3AE0C
:0D15040082AF83D005D004D003D002EE24C6
:0A15110078FEEF3402FF8E828F8314
:0E151B00A3A3A3E0F8A3E0F9E8B5042AE9B51C
:0E15290005269000EBEAF0A3EBF08E828F8394
:0E153700A3A3A3A3A3E0FEA3E0FF90015174C1
:0C15450001F0A3E4F08E828F830219B045
:051551001ABAFF011BA6
:02155600809182
:011558002270
:0E1559009000EBE4F0A3F09000F3E0FAA3E0C2
:0E156700FBC3E49A74808BF063F08095F04033
:02157500012251
:051577001ABAFF011B80
:0E157C009000F3EAF0A3EBF0EBCA25E0CA33CF
:0A158A00FBEA24EDF582EB3400F5D6
:0E15940083E0FAA3E0FB9000EBEAF0A3EBF09B
:0E15A20090026DEAF0A3EBF090000A1231D334
:0A15B000AA82AB83EA2478FAEB3438
:0C15BA0002FB8A828B83A3A3A3A3A3E0FF
:0E15C600FAA3E0FB9001517404F0A3E4F08A54
:0E15D400828B831219B09000EBE0FAA3E0FBCB
:0E15E20090026DEAF0A3EBF090000A1231D3F4
:0A15F000AA82AB83EA2478FAEB34F8
:0C15FA0002FB8A828B83A3A3A3A3A3E0BF
:0E160600FAA3E0FB9001517401F0A3E4F08A16
:06161400828B830219B075
:05334C006865726500D8
:04161A007A007B00D7
:0D161E00C3EA9420EB648094805014EA2409
:0A162B0015F582EB3401F583742DF0
:08163500F00ABA00E40B80E1A9
:09163D007456C0E07416C0E09080
:0E164600003EE0C0E0A3E0C0E090011575F0AA
:02165400002272
:0C1656009003927401F0A3E4F07458C0FB
:0C166200E07417C0E07490C0E07401C098
:0A166E00E07485C0E07416C0E0903F
:0D1678000036E0C0E0A3E0C0E090000122D9
:0B168500E58124FCF5817458C0E0747E
:0B16900017C0E07432C0E0E4C0E0745A
:08169B00B0C0E07416C0E0903D
:0D16A3000036E0C0E0A3E0C0E090000222AD
:0B16B000E58124FCF5817458C0E07453
:0C16BB0017C0E074E8C0E07403C0E074E5
:0816C700DCC0E07416C0E090E5
:0D16CF000036E0C0E0A3E0C0E09000032280
:0B16DC00E58124FCF5817458C0E07427
:0B16E70017C0E07464C0E0E4C0E074D1
:0816F20007C0E07417C0E0908E
:0D16FA000036E0C0E0A3E0C0E09000042254
:0B170700E58124FCF5817458C0E074FB
:0B17120017C0E07464C0E0E4C0E074A5
:08171D0032C0E07417C0E09037
:0D1725000036E0C0E0A3E0C0E09000052227
:0D173200E58124FCF581120B0E12187D7468
:08173F0057C0E07417C0E090F0
:0E1747000046E0C0E0A3E0C0E090335175F032
:021755008022F0
:01175700226F
:0E175800AA83E582900135F0A3CAF0FBBA0126
:0617660005BB0002802516
:09176C00BA0206BB00030217F7E4
:09177500BA0306BB00030218567A
:09177E00BA0406BB00030218685E
:09178700BA0506BB000302187943
:011790002236
:0E179100900392E0FAA3E0FBBA0106BB00034E
:03179F00022263C0
:0E17A200BA0226BB0023900394E0FCA3E0FDF6
:0E17B0004C600B121993900394E4F0A3F02206
:0D17BE001223039003947401F0A3E4F022C1
:0817CB00BA0305BB0002800116
:0117D30022F3
:0E17D400900394E0FAA3E0FB4A600B12199315
:0817E200900394E4F0A3F0224F
:0D17EA001222B29003947401F0A3E4F022E7
:0917F7007410C0E07418C0E09009
:0E1800000040E0C0E0A3E0C0E090013775F0CA
:02180E000022B6
:0E181000900137E0FAA3E0FB900390E0FCA308
:0B181E00E0FDEAB50405EBB505012272
:0E182900900390EAF0A3EBF0EA30E00875823D
:0618370001120B6A80168D
:0C183D00EA30E108758203120B6A800A91
:0A184900EA30E206758202120B6A13
:0318530002187DFB
:0E185600900392E0FAA3E0FBBA0404BB000189
:011864002261
:0318650002253128
:0E186800900392E0FAA3E0FBBA0109BB000670
:0318760002238CBE
:031879000226360E
:01187C002249
:0E187D0090010C7410F0A3E4F090013975F0A6
:0C188B00001210C47A007B007C007D007D
:0D189700C3EC9410ED64809480504FEA245F
:0A18A40039FEEB3401FF8E828F83C2
:0C18AE00E060288C0674102E2415FEE467
:0C18BA003401FF8A008B010ABA00010B08
:0A18C600E82439F582E93401F583C6
:0918D000E0F88E828F83F0801194
:0B18D9008C0674102E2415F582E434F8
:0618E40001F5837420F001
:0718EA000CBC00A90D80A653
:0918F100740AC0E07419C0E09013
:0E18FA00003EE0C0E0A3E0C0E090011575F0F4
:021908000022BB
:01190A0022BA
:0E190B00AA83E58290014FF0A3EAF090014C10
:0E191900E0FAA3E0FBA3E0FC90014FE0FDA389
:0E192700E0FE90014AE0FFA3E0F8EF2DFFE89C
:021935003EF87A
:0E193700C3ED9FEE648088F063F08095F05061
:0E194500338A828B838CF0123306F9700FED1B
:0A1953002415F582EE3401F58374CB
:04195D0020F08011E5
:0A196100ED2415F582EE3401F58344
:07196B00E9F00ABA00010BCC
:071972000DBD00C10E80BE97
:091979007492C0E07419C0E09002
:0E198200003EE0C0E0A3E0C0E090011575F06B
:02199000002233
:011992002232
:0D19930090014A7410F0A3E4F090014C7430
:0A19A00060F0A37433F0A37480F02C
:0619AA0090000002190B81
:0E19B000AA83E582900153F0A3CAF0FBC3EABC
:0A19BE00946EEB64809480500122C7
:0E19C800C3748A9A74808BF063F08095F0509F
:0219D6000122EC
:0E19D800EA2492FA240983C0E0EA242083C0A6
:0219E600E022FD
:0219E800228C4F
:0219EA00056195
:0219EC00BD1923
:0219EE0075DEA4
:0219F000DEDE39
:0219F200575943
:0219F400D133ED
:0219F60095F763
:0219F800DEDE31
:0219FA00DEDE2F
:0219FC00ABE856
:0219FE000828B7
:021A0000486834
:021A020088A5B5
:011A0400C21F
:021A05001A1AAB
:021A07001B1BA7
:021A09001B1CA4
:021A0B001C1F9E
:021A0D001F1F99
:021A0F001A1E9D
:021A11001C1D9A
:021A13001D1D97
:021A15001F1F91
:021A17001F1F8F
:021A19001E1E8F
:021A1B001F1F8B
:021A1D001F1F89
:021A1F001F1F87
:011A21001FA5
:0E1A2200900151E0FAA3E0FBBA0315BB0012DD
:0E1A30009003927402F0A3E4F0900394F0A3EC
:041A3E00F002199306
:081A4200BA0405BB000280019B
:011A4A002279
:0C1A4B009003927401F0A3E4F0021993E0
:0E1A5700900151E0FAA3E0FBBA0315BB0012A8
:0E1A65009003927403F0A3E4F0900394F0A3B6
:041A7300F0021993D1
:081A7700BA0405BB0002800166
:011A7F002244
:0C1A80009003927401F0A3E4F0021993AB
:0E1A8C00900151E0FAA3E0FBBA0205BB000294
:021A9A008001C9
:011A9C002227
:091A9D0074B6C0E0741AC0E090B8
:0E1AA600003AE0C0E0A3E0C0E090015575F00A
:021AB40000220E
:0E1AB600900159E0FA90015575F000C002123F
:0E1AC400241CAB82AC83D0027D00EAB5030582
:051AD200EDB504012246
:0C1AD700900159E0FA0A900159EAF074FD
:081AE300FBC0E0741AC0E090A2
:0E1AEB00003CE0C0E0A3E0C0E090015575F0C3
:021AF9000022C9
:0A1AFB00900394E4F0A3F00223032B
:0E1B0500900151E0FAA3E0FBBA0205BB00021A
:021B130080014F
:011B150022AD
:091B1600742FC0E0741BC0E090C4
:0E1B1F00003AE0C0E0A3E0C0E090015575F090
:021B2D00002294
:091B2F00900159E0FABA0101220B
:0B1B38001A900159EAF07457C0E074E5
:0C1B43001BC0E090003CE0C0E0A3E0C04C
:081B4F00E090015575F0002241
:0A1B5700900394E4F0A3F0022303CE
:0E1B6100900151E0FAA3E0FBBA0205BB0002BE
:021B6F008001F3
:011B71002251
:091B7200748BC0E0741BC0E0900C
:0E1B7B00003AE0C0E0A3E0C0E090015575F034
:021B8900002238
:091B8B0090015AE0FABA0C0122A3
:0B1B94000A90015AEAF074B3C0E0743C
:0C1B9F001BC0E090003CE0C0E0A3E0C0F0
:081BAB00E090015575F00022E5
:0A1BB300900394E4F0A3F002230372
:0E1BBD00900151E0FAA3E0FBBA0205BB000262
:021BCB00800197
:011BCD0022F5
:091BCE0074E7C0E0741BC0E09054
:0E1BD700003AE0C0E0A3E0C0E090015575F0D8
:021BE5000022DC
:091BE70090015AE0FABA01012252
:0B1BF0001A90015AEAF0740FC0E07474
:0C1BFB001CC0E090003CE0C0E0A3E0C093
:081C0700E090015575F0002288
:0A1C0F00900394E4F0A3F002230315
:0E1C1900900151E0FAA3E0FBBA0205BB000205
:021C270080013A
:011C29002298
:091C2A007443C0E0741CC0E0909A
:0E1C3300003AE0C0E0A3E0C0E090015575F07B
:021C410000227F
:091C430090015BE0FABA320122C3
:0B1C4C000A90015BEAF0746BC0E074CA
:0C1C57001CC0E090003CE0C0E0A3E0C036
:081C6300E090015575F000222C
:0A1C6B00900394E4F0A3F0022303B9
:0E1C7500900151E0FAA3E0FBBA0205BB0002A9
:021C83008001DE
:011C8500223C
:091C8600749FC0E0741CC0E090E2
:0E1C8F00003AE0C0E0A3E0C0E090015575F01F
:021C9D00002223
:091C9F0090015BE0FABA0A01228F
:0B1CA8001A90015BEAF074C7C0E07402
:0C1CB3001CC0E090003CE0C0E0A3E0C0DA
:081CBF00E090015575F00022D0
:0A1CC700900394E4F0A3F00223035D
:0E1CD100900151E0FAA3E0FBBA0205BB00024D
:021CDF00800182
:011CE10022E0
:091CE20074FBC0E0741CC0E0902A
:0E1CEB00003AE0C0E0A3E0C0E090015575F0C3
:021CF9000022C7
:0E1CFB00900156E0FABA3B07900156E4F080E3
:011D090006D3
:061D0A000A900156EAF008
:091D10007429C0E0741DC0E090CC
:0E1D1900003CE0C0E0A3E0C0E090015575F092
:021D2700002298
:0A1D2900900394E4F0A3F00222B24C
:0E1D3300900151E0FAA3E0FBBA0205BB0002EA
:021D410080011F
:011D4300227D
:091D4400745DC0E0741DC0E09064
:0E1D4D00003AE0C0E0A3E0C0E090015575F060
:021D5B00002264
:0E1D5D00900156E0FA7008900156743BF08039
:011D6B000671
:061D6C001A900156EAF096
:091D7200748BC0E0741DC0E09008
:0E1D7B00003CE0C0E0A3E0C0E090015575F030
:021D8900002236
:0A1D8B00900394E4F0A3F00222B2EA
:0E1D9500900151E0FAA3E0FBBA0205BB000288
:021DA3008001BD
:011DA500221B
:091DA60074BFC0E0741DC0E090A0
:0E1DAF00003AE0C0E0A3E0C0E090015575F0FE
:021DBD00002202
:0E1DBF00900157E0FABA1707900157E4F08040
:011DCD00060F
:061DCE000A900157EAF043
:091DD40074EDC0E0741DC0E09044
:0E1DDD00003CE0C0E0A3E0C0E090015575F0CE
:021DEB000022D4
:0A1DED00900394E4F0A3F00222B288
:0E1DF700900151E0FAA3E0FBBA0205BB000226
:021E050080015A
:011E070022B8
:091E08007421C0E0741EC0E090DA
:0E1E1100003AE0C0E0A3E0C0E090015575F09B
:021E1F0000229F
:0E1E2100900157E0FA70089001577417F08096
:011E2F0006AC
:061E30001A900157EAF0D0
:091E3600744FC0E0741EC0E0907E
:0E1E3F00003CE0C0E0A3E0C0E090015575F06B
:021E4D00002271
:0A1E4F00900394E4F0A3F00222B225
:0E1E5900900151E0FAA3E0FBBA0205BB0002C3
:021E67008001F8
:011E69002256
:091E6A007483C0E0741EC0E09016
:0E1E7300003AE0C0E0A3E0C0E090015575F039
:021E810000223D
:0A1E8300900155E4F074A1C0E07472
:0C1E8D001EC0E090003CE0C0E0A3E0C0FC
:081E9900E090015575F00022F4
:0A1EA100900394E4F0A3F00222B2D3
:0E1EAB00900151E0FAA3E0FBBA031DBB001A40
:0D1EB9009003927404F0A3E4F012199390CA
:0B1EC60001DEE4F090336175F0800253
:021ED100234E9E
:081ED300BA0405BB0002800106
:011EDB0022E4
:0C1EDC009003927401F0A3E4F00219934B
:0E1EE800900151E0FAA3E0FBBA0205BB000234
:021EF600800169
:011EF80022C7
:0D1EF9009001DE7402F090336575F08002F8
:021F0600234E68
:0E1F0800900151E0FAA3E0FBBA0205BB000213
:021F1600800148
:011F180022A6
:0D1F19009001DE7404F090336C75F08002CE
:021F2600234E48
:0E1F2800900151E0FAA3E0FBBA0205BB0002F3
:021F3600800128
:011F38002286
:0D1F39009001DE7408F090337175F08002A5
:021F4600234E28
:0E1F4800900151E0FAA3E0FBBA0205BB0002D3
:021F5600800108
:011F58002266
:0D1F59009001DE7410F090337875F0800276
:021F6600234E08
:0E1F6800900151E0FAA3E0FBBA0205BB0002B3
:021F76008001E8
:011F78002246
:0D1F79009001DE7420F090337F75F080023F
:021F8600234EE8
:0E1F8800900151E0FAA3E0FBBA024BBB004807
:0D1F96009001DE7440F090338675F08002FB
:021FA300234ECB
:0E1FA500900151E0FAA3E0FBBA022EBB002B24
:0D1FB3009001DE7480F090338D75F0800297
:021FC000234EAE
:0E1FC200900151E0FAA3E0FBBA0211BB000E41
:0C1FD0009001DEE4F090339475F0801274
:021FDC00234E92
:011FDE0022E0
:0E1FDF00AAF0AB83E582900160F0A3EBF0A3C3
:0E1FED00EAF0900160E0FAA3E0FBA3E0FC90B4
:081FFB00015CE0F511A3E0F523
:0820030012A3E0F5137402259D
:07200B0011F8E43512F9ADF4
:0C20120013888289838DF0123306F87564
:0E201E00F00A8424308A828B838CF01231BA4F
:0E202C0074012AFDE43BFE8C0775F00AE8847F
:0E203A00E5F024308D828E838FF01231BA745F
:0E204800022AFDE43BFE8C078D828E838FF012
:0C205600743A1231BA74032AF514E43B0A
:07206200F5158C1674012531
:0720690011F8E43512F9AD96
:0C20700013888289838DF0123306F87506
:0A207C00F00A8424308514828515D3
:0C208600838516F01231BA74042AFDE4C0
:0E2092003BFE8C0775F00AE884E5F02430F878
:0E20A0008D828E838FF01231BA90015FE0FDC9
:0E20AE00701374052AFDE43BFE8C078D828EB4
:0720BC00838FF0E40231BA4A
:0E20C30074052AFDE43BFE8C078D828E838F10
:0E20D100F0743A1231BA74062AFDE43BFE8C1C
:0820DF0007851182851283853B
:0C20E70013F0123306F875F00A84243060
:0E20F3008D828E838FF01231BA74072AFDE4BD
:0E2101003BFE8C0775F00AE884E5F024308D73
:0E210F00828E838FF01231BA74082AFAE43BF4
:0B211D00FB8A828B838CF0E40231BA55
:0E212800AAF0AB83E582900166F0A3EBF0A372
:0E213600EAF0900166E0FAA3E0FBA3E0FC9063
:082144000163E0F511A3E0F5D1
:08214C0012A3E0F51374042551
:0721540011F8E43512F9ADAA
:0C215B0013888289838DF0123306F8751A
:0E216700F00A8424308A828B838CF01231BA05
:0E21750074012AFDE43BFE8C0775F00AE88435
:0E218300E5F024308D828E838FF01231BA7415
:0E219100022AFDE43BFE8C078D828E838FF0C8
:0C219F00742F1231BA74032AF514E43BCB
:0721AB00F5158C16740525E3
:0721B20011F8E43512F9AD4C
:0C21B90013888289838DF0123306F875BC
:0A21C500F00A842430851482851589
:0C21CF00838516F01231BA74042AFDE476
:0E21DB003BFE8C0775F00AE884E5F024308D99
:0E21E900828E838FF01231BA74052AFDE43B1A
:0E21F700FE8C078D828E838FF0742F1231BA0A
:0A22050074062AF514E43BF5158C6D
:08220F001674062511F8E435F0
:0A22170012F9AD13888289838DF05F
:0C222100123306F875F00A84243085148E
:08222D00828515838516F0126D
:0E22350031BA74072AFDE43BFE8C0775F00AEF
:0D224300E884E5F024308D828E838FF01248
:0E22500031BA74082AFAE43BFB8A828B838C35
:05225E00F0E40231BABA
:09226300747CC0E07422C0E0901C
:0E226C00003AE0C0E0A3E0C0E090018975F008
:02227A00002240
:08227C0090015C7489F0A37469
:0A22840001F0A3E4F090015FF09078
:09228E00016975F000121FDF90D8
:0C229700014A7405F0A3E4F090014C74BF
:0A22A30069F0A37401F0A3E4F090C9
:0522AD00000B02190BFB
:0922B20074CBC0E07422C0E0907E
:0E22BB00003AE0C0E0A3E0C0E09001B075F092
:0222C9000022F1
:0822CB0090015C74B0F0A374F3
:0C22D30001F0A3E4F090015F7401F090B2
:0922DF00019075F000121FDF9060
:0C22E800014A7410F0A3E4F090014C7463
:0A22F40090F0A37401F0A3E4F09051
:0522FE00000002190BB5
:09230300741CC0E07423C0E090DA
:0E230C00003AE0C0E0A3E0C0E09001D775F019
:02231A0000229F
:08231C0090016374D7F0A37473
:0C23240001F0A3E4F09001B775F0001286
:0C233000212890014A7410F0A3E4F09002
:07233C00014C74B7F0A3741B
:0B23430001F0A3E4F090000002190B71
:0E234E00AAF0AB83E5829001DFF0A3EBF0A3D1
:0E235C00EAF09001DFE0FAA3E0FBA3E0FC90C2
:0E236A00014A7410F0A3E4F090014CEAF0A3D5
:0E237800EBF0A3ECF090000012190B9001DEC8
:06238600E0900398F02234
:04238C007A007B0058
:0E239000C3EA940AEB64809480503390039665
:0E239E00E0FCA3E0FDEAB50413EBB5050FEA81
:0A23AC0024E2F582EB3401F583749E
:0423B6002AF0800D7C
:0A23BA00EA24E2F582EB3401F5831A
:0323C4007420F092
:0723C7000ABA00C50B80C239
:0A23CE00EA24E2F582EB3401F58306
:0E23D800E4F0900396E02401F0A3E03400F05E
:0E23E600900396E0FAA3E0FBC3EA940AEB64CE
:0C23F4008094804007900396E4F0A3F072
:0D24000090014A740AF0A3E4F090014C74BE
:0A240D00E2F0A37401F0A3E4F090E4
:05241700000002190B9A
:0E241C00AAF0AB83E582900202F0A3EBF0A3DE
:0E242A00EAF0900202E0FAA3E0FBA3E0FC74EB
:0E243800062AFDE43BFE8C078D828E838FF01A
:0E244600123306FD7E0074D02DFD74073EFE9D
:0E24540074052AFAE43BFB8A828B838CF0121B
:082462003306FA740CB5020008
:05246A00500302252DC6
:07246F00EA2A2A902476738B
:0724760002252D02249D0246
:06247D0024A10225050266
:06248300250902250D02EF
:06248900251102251502D9
:06248F00251902251D02C3
:06249500252102252502AD
:02249B002529F1
:04249D0090001F226A
:0E24A10090026F7404F0A3E4F08D828E83C06D
:0E24AF0005C0061231F3E5828583F0D006D019
:0E24BD000545F0702190026F7464F0A3E4F006
:0E24CB008D828E83C005C0061231F3E5828536
:0A24D90083F0D006D00545F0701A1C
:0E24E30090026F7490F0A37401F08D828E83CE
:0C24F1001231F3E5828583F045F07004A1
:0424FD0090001D220C
:0425010090001C2208
:0425050090001F2201
:0425090090001E22FE
:04250D0090001F22F9
:0425110090001E22F6
:0425150090001F22F1
:0425190090001E22EE
:04251D0090001E22EA
:0425210090001E22E6
:0425250090001E22E2
:0425290090001F22DD
:04252D0090FFFF22FA
:0A253100900205E4F0744FC0E0745E
:0C253B0025C0E0900042E0C0E0A3E0C03A
:08254700E090020575F000228E
:0E254F00900205E0FA74015AFB7C009002062F
:0E255D00EBF0A3ECF074025AFD7E0090020831
:0E256B00EDF0A3EEF05302047D0090020AEAA8
:0E257900F0A3EDF0EB4C7016900208E0FAA310
:0E258700E0FB4A700B90020AE0FAA3E0FB4A68
:022595006014D0
:0E25970090020C7401F0A3E4F090020E7401A7
:0625A500F0A3E4F0800E3B
:0E25AB0090020CE4F0A3F090020EE4F0A3F016
:0E25B900900210E4F090020EE0FAA3E0FB4A5C
:0825C70060069002107402F09E
:0E25CF0090020CE0FAA3E0FB4A6008900210B4
:0525DD00E0FA4404F0E7
:0E25E200900206E0FAA3E0FB4A6008900210A7
:0525F000E0FA4408F0D0
:0E25F500900208E0FAA3E0FB4A600890021092
:05260300E0FA4410F0B4
:0E26080090020AE0FAA3E0FB4A60089002107C
:05261600E0FA4420F091
:0E261B00900210E0FA900398E0FBEAB503018C
:01262900228E
:0C262A00900398EAF090039A7401F022EB
:0E263600900398E0FA900399E0FBEAB50301E7
:012644002273
:0E26450090039AE0FCF45203EC5A9003994B78
:0B265300F0900399E0FA746EC0E07490
:0C265E0026C0E0900044E0C0E0A3E0C013
:04266A00E08A82225E
:0C266E0090039AE025E090039AF0FA90A7
:07267A00039A74014AF022EB
:0E335100446F6E652064697370206D656E7543
:01335F00006D
:01336000006C
:043361004F6666004D
:07336500426F696C65720004
:05336C0050756D7000BA
:073371005A6F6E6520310068
:073378005A6F6E6520320060
:07337F005A6F6E6520330058
:073386005A6F6E6520340050
:07338D005A6F6E6520350048
:0633940052657365740030
:0A339A0053657420436C6F636B00F1
:0933A40053657420446174650056
:0533AD004461792B00D2
:0533B2004461792D00CB
:0733B7004D6F6E74682B00DE
:0733BE004D6F6E74682D00D5
:0633C500596561722B0046
:0633CB00596561722D003E
:0733D10052657475726E0075
:0933D8005365742054696D650011
:0833E1004D696E7574652B0047
:0833E9004D696E7574652D003D
:0633F100486F75722B000D
:0633F700486F75722D0005
:0E33FD005265736574205365636F6E647300D0
:0D340B0054657374204F75747075747300F0
:0A3424009A338000006400000000ED
:0A342E00A4338064006E000000006B
:0A343800AD33806E006F000000004D
:0A344200B233806E0070000000003D
:0A344C00B733806E0071000000002D
:0A345600BE33806E0072000000001B
:0A346000C533806E00730000000009
:0A346A00CB33806E007400000000F8
:0A347400D133806E00FFFF0000005E
:0A347E00D8338064007800000000DD
:0A348800E1338078007A00000000B4
:0A349200E9338078007B00000000A1
:0A349C00F1338078007C000000008E
:0A34A600F7338078007D000000007D
:0A34B000FD33807800790000000071
:0A34BA00D133807800FFFF0000000E
:0A34C400D133806400FFFF00000018
:0A34CE000B348000008200000000B3
:0A34D80065338082008300000000CD
:0A34E2006C338082008400000000BB
:0A34EC0071338082008500000000AB
:0A34F6007833808200860000000099
:0A3500007F33808200870000000086
:0A350A008633808200880000000074
:0A3514008D33808200890000000062
:0A351E0094338082008A0000000050
:0A352800D133808200FFFF00000095
:0A353200000000000000000000008F
:02353C0000008D
:02353E0000008B
:02354000000089
:02354200000087
:013544000086
:013545000085
:013546000084
:0A268100C281C283C2827A107B2757
:05268B001ABAFF011B5B
:0E269000EA4B70F753800F43803012276A7AAE
:03269E00C47B09F1
:0526A1001ABAFF011B45
:0E26A600EA4B70F753800F43803012276A7A98
:0326B400647B0044
:0526B7001ABAFF011B2F
:0D26BC00EA4B70F753800F43803012276AFD
:0E26C90012277CE58270F953800F43802012A7
:0226D700276A70
:0E26D90012277CE58270F97582281226FE75A4
:0E26E700820C1226FE7582061226FE758201F6
:0926F5001226FE7582000227A3E3
:0E26FE00E582900211F0C283C28253800F90D9
:0E270C000211E0FA74F05A4280C00212276AED
:0E271A00D00253800FEAC454F0FA74F05A4211
:042728008012276A8A
:08272C0012277CE58270F922FE
:0E273400E582900212F0D283C28253800F9091
:0E2742000212E0FA74F05A4280C00212276AB6
:0E275000D00253800FEAC454F0FA74F05A42DB
:04275E008012276A54
:0827620012277CE58270F922C8
:06276A00D2817AF47B012C
:052770001ABAFF011B75
:07277500EA4B70F7C281225C
:0E277C00C283D282D281900213E580F0E0FA8F
:0B278A0030E708C281C2827582012284
:08279500C281C282758200229C
:06279D007582010226FE18
:0D27A300E582900214F0FA4302808A82025F
:0227B00026FE03
:0E27B200AAF0AB83E582900215F0A3EBF0A332
:0E27C000EAF0900215E0FAA3E0FBA3E0FC9023
:0E27CE000218EAF0A3EBF0A3ECF07A007B0017
:0C27DC00C3EA9402EB6480948040012268
:0C27E8008A04EBCC25E0CC33FDEC241877
:0C27F400F582ED3434F583E493FCA3E49B
:0E280000938C82C002C0031227A3D003D00223
:0E280E00900218E0FCA3E0FDA3E0FE7F00783E
:01281C0000BB
:0E281D00C3EF9410E864809480505D8C828D2F
:0E282B00838EF0123306F960288982C002C045
:0E28390003C004C005C006C007C0001227344B
:0E284700D000D007D006D005D004D003D002B8
:072855000CBC00250D8022E0
:0E285C00758220C002C003C004C005C006C0C3
:0E286A0007C000122734D000D007D006D005DA
:06287800D004D003D002E1
:07287E000FBF009B088098CA
:0E288500900218ECF0A3EDF0A3EEF00ABA00FA
:02289300010B37
:032895000227DC3B
:043418000000400070
:0D289800900258E5B0F090021B75F00012A0
:0728A5002FB974C0C0E074FC
:0C28AC0028C0E0900046E0C0E0A3E0C0BF
:0828B800E090021B75F0002204
:0128C00022F5
:0528C100D2B6D2B722DF
:0428C6007A0A7B000F
:0528CA001ABAFF011B1A
:0528CF00EA4B70F72246
:0D28D400D2B71228C6C2B61228C6C2B7027B
:0228E10028C607
:0C28E300C2B6D2B71228C6D2B60228C670
:0E28EF00D2B6D2B71228C630B607900225E442
:0328FD00F0800662
:062900009002257401F0B5
:0E290600C2B71228C6C2B6900225E0F58222A2
:0A291400E582900226F07A007B00B5
:0E291E00C3EA9408EB64809480503A9002263D
:09292C00E0FC30E704D2B68002A1
:02293500C2B628
:0E293700C002C0031228C6D2B71228C6C2B70B
:0D2945001228C6C2B61228C6D003D00290D8
:0E2952000226E025E0FC900226F00ABA00BE44
:032960000B80BB2E
:032963000228EF58
:0E296600E582900227F0900228E4F07A007BD0
:012974000062
:0E297500C3EA9408EB64809480503D900228E1
:0E298300E025E0900228F0D2B6C2B7C002C034
:0E299100031228C6D2B71228C6A2B6E433FC41
:0E299F00C0041228C6C2B71228C6D004D00346
:0E29AD00D002900228E0FD4CF00ABA00BB0BED
:0229BB0080B8E2
:0B29BD00900227E0FA6004C2B680021E
:0229C800D2B685
:0B29CA001228C6D2B71228C6C2B712EE
:0929D50028C6900228E0F58222D8
:0D29DE00E58290022AF025E090022AF09098
:0E29EB000229E0FA53020190022AE04AF0901D
:0829F900022AE0F58202291414
:0A2A0100E582900230F01228D49014
:0C2A0B000230E0FA900229E4F08A821206
:0D2A170029DEE58270071228E37582002297
:0E2A240090022EE0FAA3E0FB90022BE0FCA350
:092A3200E0FDA3E0FE7F00780046
:0E2A3B00C3EF9AE864808BF063F08095F05052
:0E2A4900418C828D838EF0123306F582C0021E
:0D2A5700C003C004C005C006C007C00012C7
:0E2A64002914E582D000D007D006D005D0049A
:0D2A7200D003D00270071228E37582002205
:052A7F000CBC00010D7C
:072A84000FBF00B30880B092
:072A8B001228E3758201220D
:0A2A9200E582900236F01228D4907D
:0D2A9C000236E0FA9002297401F08A8212DD
:0B2AA90029DEE582702074C8C0E074D4
:0C2AB4002AC0E0900046E0C0E0A3E0C0B3
:082AC000E090341C75F0802247
:072AC8001228E375820022D1
:092ACF00900234E0F50DA3E0F5DE
:0C2AD8000E900231E0FCA3E0FDA3E0FE44
:042AE4007F007800F7
:0A2AE800C3EF950DE86480850EF041
:0C2AF20063F08095F0504AE50D24FFF9D8
:0C2AFE00E50E34FFFAC3EF99E864808A0B
:0E2B0A00F063F08095F0E433F582C004C0055E
:0E2B1800C006C007C000122966AA82D000D0F5
:0E2B260007D006D005D0048C828D838EF0EA95
:0E2B34001231BAA3AC82AD830FBF00A8088097
:012B4200A5ED
:072B43001228E37582012254
:08341C004E6F742041434B0088
:0E2B4A00E582900237F0FA75F00A84E5F05447
:0E2B58000FFB75F00AEA84540FC454F04203D8
:032B66008B82223D
:0E2B6900E582900238F0FA74F05AC4540F75E9
:0B2B7700F00AA4FB740F5A2BF5822219
:0E2B8200AAF0AB83E582900239F0A3EBF0A33A
:062B9000EAF07A007B0070
:0D2B9600C3EA9409EB648094805013EA2494
:0A2BA3003CF582EB3402F583E4F008
:072BAD000ABA00E50B80E20B
:082BB40090022B743CF0A374A5
:0C2BBC0002F0A3E4F090022E7401F0A3DC
:0C2BC800E4F0758268122A01900231745A
:0A2BD4003CF0A37402F0A3E4F090BB
:0E2BDE0002347407F0A3E4F0758268122A92A4
:072BEC00E5827003F582226F
:0E2BF300900239E0FAA3E0FBA3E0FC90023C64
:0E2C0100E0FD53057F8D82C002C003C00412A7
:0E2C0F002B69AD82D004D003D0028A828B8361
:0E2C1D008CF0ED1231BA74012AFDE43BFE8CFE
:0E2C2B000790023DE0F853007F8882C002C08F
:0E2C390003C004C005C006C007122B69A882A4
:0E2C4700D007D006D005D004D003D0028D8275
:0E2C55008E838FF0E81231BA74022AFDE43B40
:0E2C6300FE8C0790023EE0F853003F8882C0CE
:0E2C710002C003C004C005C006C007122B69D4
:0E2C7F00A882D007D006D005D004D003D00222
:0E2C8D008D828E838FF0E81231BA74032AFD17
:0E2C9B00E43BFE8C0790023FE0F853000788F0
:0E2CA90082C002C003C004C005C006C00712EE
:0E2CB7002B69A882D007D006D005D004D00328
:0E2CC500D0028D828E838FF0E81231BA740433
:0E2CD3002AFDE43BFE8C07900240E0F853001F
:0E2CE1003F8882C002C003C004C005C006C008
:0E2CEF0007122B69A882D007D006D005D004AA
:0E2CFD00D003D0028D828E838FF0E81231BAA0
:0E2D0B0074052AFDE43BFE8C07900241E0F8BF
:0E2D190053001F8882C002C003C004C005C062
:0E2D270006C007122B69A882D007D006D0057F
:0E2D3500D004D003D0028D828E838FF0E8127E
:0E2D430031BA74062AFAE43BFB900242E0F536
:0E2D510082C002C003C004122B69AD82D00400
:0E2D5F00D003D0028A828B838CF0ED1231BA41
:042D6D007582012248
:0E2D7100AAF0AB83E582900245F0A3EBF0A33D
:0E2D7F00EAF0900248E4F0900245E0FAA3E08A
:0E2D8D00FBA3E0FC8A828B838CF0123306F5E8
:0E2D9B0082C002C003C004122B4AE582D0049D
:0E2DA900D003D002547F900249F074012AFD3D
:0E2DB700E43BFE8C078D828E838FF012330674
:0E2DC500F582C002C003C004122B4AE582D082
:0E2DD30004D003D002547F90024AF074022A0A
:0D2DE100FDE43BFE8C078D828E838FF01287
:0E2DEE003306F582C002C003C004122B4AE572
:0E2DFC0082D004D003D002547F448090024B5A
:0E2E0A00F074032AFDE43BFE8C078D828E835C
:0E2E18008FF0123306F582C002C003C0041210
:0D2E26002B4AE582D004D003D0025407905F
:0E2E3300024CF074042AFDE43BFE8C078D82F5
:0E2E41008E838FF0123306F582C002C003C0EC
:0E2E4F0004122B4AE582D004D003D002543F77
:0E2E5D0090024DF074052AFDE43BFE8C078DBB
:0E2E6B00828E838FF0123306F582C002C00300
:0E2E7900C004122B4AE582D004D003D00254CC
:0E2E87001F90024EF074062AFAE43BFB8A828A
:0E2E95008B838CF0123306F582122B4AAA8230
:092EA30090024FEAF090022B743A
:0A2EAC0048F0A37402F0A3E4F090D4
:0E2EB600022E7408F0A3E4F0758268022A016F
:032EC4000228C120
:0E2EC700AAF0AB83E582900253F0A3EBF0A3D8
:0D2ED500EAF09002567410F0A37427F090FC
:0A2EE2000253E0FAA3E0FBA3E0FCBA
:0D2EEC00900256E0FDA3E0FE900251E0F5DB
:062EF9000FA3E0F51090AC
:0B2EFF000266EDF0A3EEF0850F828567
:0C2F0A001083C002C003C004C005C00654
:0E2F1600123120A982AF83D006D005D004D09E
:0E2F240003D00289007430288A828B838CF0DF
:0E2F32001231BAA3AA82AB8390026DEDF0A318
:0E2F4000EEF089828F83C002C003C004C0057A
:0E2F4E00C0061231D3AF82A883D006D0059002
:082F5C000251E50FC39FF0E5EF
:0C2F64001098A3F0900266740AF0A3E439
:0E2F7000F08D828E83123120E5828583F0D0B1
:0E2F7E0004D003D002900256F0A3E5F0F090CC
:0E2F8C000253EAF0A3EBF0A3ECF0900256E043
:0A2F9A00FDA3E0FE4D6003022EECE3
:0E2FA400900253EAF0A3EBF0A3ECF08A828BCC
:072FB200838CF0E40231BA48
:0E2FB900AAF0AB83E582900259F0A3EBF0A3DF
:0E2FC700EAF090025E7480F0A3E4F0900259EC
:082FD500E0FAA3E0FBA3E0FC1D
:0E2FDD0090025EE0FDA3E0FE900258E0FF7857
:0E2FEB0000900266EDF0A3EEF08F828883C0A6
:0E2FF90002C003C004123120AD82AE83D004AA
:0E300700D003D00290025CEDF0A3EEF08A0739
:0C3015008B008C01ED4E60047D318002C8
:023021007D3000
:0E3023008F82888389F0ED1231BA90025CE052
:0E303100FDA3E090025EE0FEA3E0FF8E008DA6
:0E303F00F0E8A4FD900258E0F8900258C39DFE
:0E304D00F0EFC313CE13CEFF90025EEEF0A3A1
:07305B00EFF00ABA00010BBF
:0E306200900259EAF0A3EBF0A3ECF090025EAE
:0B307000E0FDA3E0FE4D6003022FDD39
:0E307B00900259EAF0A3EBF0A3ECF08A828BEE
:07308900838CF0E40231BA70
:0E309000AAF0AB83E582900263F0A3EBF0A3FD
:0D309E00EAF0900263E0FAA3E0FBA3E0FC7F
:0E30AB008A828B838CF012330660120ABA0000
:0230B900010B09
:0D30BB00900263EAF0A3EBF0A3ECF080E3D9
:0E30C800900263EAF0A3EBF0A3ECF09002603C
:0830D600E0FDA3E0FEA3E0FF12
:0E30DE008D828E838FF0123306F860218A8275
:0E30EC008B838CF0E81231BAA3AA82AB8390DA
:0E30FA000263EAF0A3EBF0A3ECF00DBD00D6EC
:033108000E80D363
:0E310B00900263EAF0A3EBF0A3ECF08A828B53
:07311900838CF0E40231BADF
:0E312000AA83E582900268F0A3EAF090026AAA
:0E312E00E4F0A3F0900266E0FAA3E0FB7C1050
:0C313C00900268E0FDA3E0FE339200EE7C
:0E314800CD25E0CD33FE900268EDF0A3EEF051
:0E31560090026AE0FDA3E0CD25E0CD33FE90AF
:0B316400026AEDF0A3EEF030001290C4
:0E316F00026AE0FDA3E0FE90026A74014DF0DA
:03317D00A3EEF0CE
:0E31800090026AE0FDA3E0FEC3ED9AEE9B40D4
:0D318E001D90026AEDC39AF0EE9BA3F09035
:0E319B000268E0FDA3E0FE90026874014DF0B2
:0331A900A3EEF0A2
:0E31AC00DC8E900268E0FAA3E08A82F58322AE
:06003700E4787FF6D8FD1D
:080015007923E94401601B7A24
:05001D0002903424787C
:030022007875A04E
:0A00250002E493F2A308B8000205FC
:08002F00A0D9F4DAF275A0FF7C
:0E31BA0020F71030F6118883A88220F507F662
:0531C800A883758300DF
:0131CD0022DF
:0331CE00F280F795
:0231D100F022EA
:0E31D300AA83AB828BF090026DE0A4F8A9F005
:0E31E1008AF0E0A429F98BF0A3E0A429F5837D
:0431EF00888222228E
:0E31F300AA83E582900271F0A3CAF0FB33E4D8
:0D32010033FC6009C3E49AFDE49BFE8004E9
:04320E008A058B069C
:0E3212008D028E0390026FE0FDA3E0FE30E718
:0A32200009C3E49DFFE49EF880045A
:04322A008D078E007E
:0E322E00900273EFF0A3E8F08A828B83C00455
:0E323C00123259AA82AB83D004EC600CC3E4BA
:0A324A009AFCE49BFD8C828D832228
:053254008A828B832239
:0E325900AA83E582900275F0A3EAF090027756
:0C326700E4F0900275E0FAA3E0FB7C00AC
:0E327300900273E0FDA3E0FE235401FF7037CC
:0E328100EECD25E0CD33FE900273EDF0A3EE0E
:0E328F00F0900273E0FDA3E0FEC3EA9DEB9E0B
:0E329D005011EEC313CD13CDFE900273EDF071
:0532AB00A3EEF0800815
:0832B0000C900277ECF080BBEA
:0532B800900277E0FA2E
:0E32BD00900275E0FBA3E0FC900273E0FDA31D
:0E32CB00E0FEC3EB9DEC9E400B900275EBC342
:0632D9009DF0EC9EA3F045
:0E32DF00900273E0FBA3E0C313CB13CBFC9073
:0E32ED000273EBF0A3ECF08A031AEB70C390AF
:0B32FB000275E0FAA3E08A82F583224E
:08003D007800E84400600A7934
:030045000075A0A3
:0600480000E4F309D8FCFE
:08004E007878E84402600C79A7
:0B00560003900000E4F0A3D8FCD9FAEE
:0300080075813DC2
:0A000B00123322E5826003020003B5
:0E33060020F71430F6148883A88220F507E61D
:06331400A883758300226E
:03331A00E280F757
:03331D00E4932214
:02332000E022A9
:04332200758200228E
:00000001FF
