:03000000020008F3
:0300610002000397
:050003001200AB80FEBD
:04006400AA82AB833E
:0E006800E5D220E0FBA2AFE433FCC2AF43D2EE
:0E007600028A828B83E0FA53D2FDEC24FF92C3
:04008400AF8A82229B
:04008800AA82AB831A
:0E008C00E5D220E0FBA2AFE433FCC2AF43D2CA
:0C009A00028A828B83E51BF053D2FDEC40
:0500A60024FF92AF22CF
:0800AB00758F011200F77A4184
:0D00B300C374DA8AF063F08095F040379056
:0D00C00004CC75F080C00212020CD0028A40
:0C00CD001B900000C00212008890000090
:0700D90012006485821790FC
:0900E000000875F0401203539072
:0D00E900000875F04012020CD0020A80BD24
:0100F60022E7
:0C04CC00202020202020202020202000C4
:0A00F700C281C283C2827A107B2707
:050101001ABAFF011B0A
:0E010600EA4B70F753800F4380301201CE7A1F
:03011400C47B09A0
:050117001ABAFF011BF4
:0E011C00EA4B70F753800F4380301201CE7A09
:03012A00647B00F3
:05012D001ABAFF011BDE
:0D013200EA4B70F753800F4380301201CE6E
:0E013F001201E0E58270F953800F4380201218
:02014D0001CEE1
:0E014F001201E0E58270F975822812017475C4
:0E015D00820C12017475820612017475820103
:09016B0012017475820002020207
:0E017400AA82C283C28253800F74F05A428066
:0E018200C0021201CED00253800FEAC454F026
:09019000FA74F05A42801201CE0B
:080199001201E0E58270F92279
:0E01A100AA82D283C28253800F74F05A428029
:0E01AF00C0021201CED00253800FEAC454F0F9
:0901BD00FA74F05A42801201CEDE
:0801C6001201E0E58270F9224C
:0601CE00D2817AF47B01EE
:0501D4001ABAFF011B37
:0701D900EA4B70F7C281221E
:0E01E000C283D282D281E580FA30E708C28164
:0601EE00C28275820122AD
:0801F400C281C2827582002263
:0601FC007582010201748E
:0A020200AA8274804AF5820201749A
:0A020C00AA82AB83ACF0E4F512F512
:0102160013D4
:0A021700C3E5129402E5136480941D
:0402210080400122F6
:06022500E5122512FFE5C1
:0A022B001333F8EF24D8F582E8340D
:0C02350004F583E493FFA3E4938F82C0E0
:0E02410002C003C004120202D004D003D00297
:0A024F008A078B008C017D007E0001
:0E025900C3ED9410EE64809480504F8F828825
:0B0267008389F01204ACF514602185BF
:0C0272001482C005C006C007C000C00117
:0E027E001201A1D001D000D007D006D0050F8C
:06028C00BF001D08801AEE
:0E029200758220C005C006C007C000C0011262
:0C02A00001A1D001D000D007D006D0058D
:0702AC000DBD00A90E80A6A4
:0A02B3008F02880389040512E4B5E8
:0402BD001202051311
:0302C1000202171F
:0404D80000004000E0
:0A02C400AA82AB83ACF07D107E2708
:0502CE008D1B8E1C8554
:0A02D3001582851683C002C003C027
:0E02DD0004C005C00612044DAF82A883D006EF
:0E02EB00D005D004D003D0028F017430298AD0
:0E02F900828B838CF0120476A3AA82AB838DD5
:0A0307001B8E1C8F828883C002C089
:0E03110003C004C005C00612048FAF82A8838B
:0A031F00D006D005E515C39FF515C3
:06032900E51698F51675BB
:0A032F001B0A751C008D828E8312DC
:0E033900044DAD82AE83D004D003D002ED4E51
:0C03470070858A828B838CF0E4020476BF
:0A035300AA82AB83ACF07D807E002F
:07035D00AF1778008D1B8E25
:0C0364001C8F828883C002C003C004C04C
:0E03700005C00612044DAF82A883D006D0054A
:0A037E00D004D003D0028A188B19B6
:0A0388008C1AEF48600479318002FE
:020392007930C0
:07039400851882851983859D
:0C039B001AF0E91204768D008FF0E8A43F
:0A03A700D39517F4F517EEC313CD3C
:0803B10013CDFE0ABA00010B96
:0E03B900ED4E70A08A828B838CF0E4020476F5
:0603C700AA82AB83ACF03A
:0E03CD008A828B838CF01204AC60070ABA009F
:0403DB00F10B80EEB4
:0503DF00AD1BAE1CAFD8
:0103E4001DFB
:0E03E5008D828E838FF01204ACF860168A822F
:0E03F3008B838CF0E8120476A3AA82AB830DF4
:06040100BD00E10E80DEEB
:0A0407008A828B838CF0E4020476F5
:0C041100AA82AB83ACF0E4120476AD1BB1
:04041D00AE1CAF1D45
:0E0421008D828E838FF01204ACF860168A82F2
:0E042F008B838CF0E8120476A3AA82AB830DB7
:06043D00BD00E10E80DEAF
:0A0443008A828B838CF0E4020476B9
:05044D007A10E4FBFC45
:0E045200E58225E0F582E58333F583EB33FB8D
:0A046000EC33FCEB951BF5F0EC9576
:09046A001C4006FCABF0438201CA
:03047300DADD22AD
:06003700E4787FF6D8FD1D
:080015007900E94400601B7A48
:05001D00009004DC78F6
:030022000075A0C6
:0A00250000E493F2A308B8000205FE
:08002F00A0D9F4DAF275A0FF7C
:0E04760020F71030F6118883A88220F507F6D3
:05048400A88375830050
:010489002250
:03048A00F280F706
:02048D00F0225B
:0B048F00E582851BF0A4C582C0F0854B
:0A049A001CF0A4D0F025F0C5838506
:0804A4001BF0A42583F583225F
:08003D007800E84400600A7934
:030045000075A0A3
:0600480000E4F309D8FCFE
:08004E007800E84400600C7921
:0B00560000900000E4F0A3D8FCD9FAF1
:0300080075811DE2
:0A000B001204C8E58260030200033E
:0E04AC0020F71430F6148883A88220F507E6A6
:0604BA00A88375830022F7
:0304C000E280F7E0
:0304C300E493229D
:0204C600E02232
:0404C8007582002217
:00000001FF
